:020000040800F2
:1000000000000820F9010008FD010008FF010008B8
:100010001302000815020008290200080000000071
:100020000000000000000000000000003D02000889
:100030003F0200080000000041020008010800081B
:10004000430200084302000843020008430200087C
:10005000430200084302000843020008430200086C
:10006000430200084302000843020008430200085C
:10007000430200084302000843020008430200084C
:10008000430200084302000843020008430200083C
:10009000430200084302000843020008430200082C
:1000A000430200084302000843020008430200081C
:1000B000430200084302000843020008430200080C
:1000C00043020008430200084302000843020008FC
:1000D00043020008430200084302000843020008EC
:1000E00043020008430200084302000843020008DC
:1000F00043020008430200084302000843020008CC
:1001000043020008430200084302000843020008BB
:1001100043020008430200084302000843020008AB
:10012000430200084302000843020008430200089B
:10013000430200084302000843020008430200088B
:10014000430200084302000843020008430200087B
:100150004302000843020008DD09000843020008CA
:10016000430200084302000843020008430200085B
:100170004302000843020008430200080000000098
:10018000430200084302000843020008430200083B
:10019000430200084302000843020008430200082B
:1001A000430200084302000843020008430200081B
:1001B0003108000843020008430200084302000817
:1001C0004302000843020008000000004302000848
:1001D00043020008430200084302000843020008EB
:1001E00043020008430200084302000843020008DB
:1001F000430200084302000859480047FEE71EF08A
:10020000040F0CBFEFF30880EFF309807146554AE5
:100210001047FEE71EF0040F0CBFEFF30880EFF36A
:1002200009807146504A10471EF0040F0CBFEFF3CF
:100230000880EFF3098071464C4A1047FEE7FEE75D
:10024000FEE7FEE708B54FF00062344B34489A6091
:10025000344A9A60344B83423CD3344A00203449B8
:100260008A4244D3334B9A6802F00C02042A47D0E6
:10027000082A47D159685A6849025B6802F03F0270
:1002800048BF2D49C3F3881358BF2C49B1FBF2F284
:100290005343284A5268C2F3014201325200B3FB71
:1002A000F2F3244A002626499268264DC2F303122F
:1002B000254C8A5C641BD340A410244A1360B442CA
:1002C00022DC234D0026234C641BA410B44220DC06
:1002D00001F032F8D3E900120C33891A53F8044CB8
:1002E0009442B8D95558043242F8045CF8E752F801
:1002F000083B52F8044C9C42B2D943F8040BFAE78D
:100300000D4BCEE70D4BCCE755F8043B0136984733
:10031000D5E755F8043B01369847D7E700ED00E0F4
:100320008803000800000008700300088803000824
:10033000980300080038024000127A000024F400FC
:10034000241F0008980300089803000804000020F8
:100350009803000898030008FEE7FEE7FEE70000A8
:1003600045020008590300085B0300085D0300080C
:10037000B41F00080000002008000020B41F00087F
:1003800000000010000000100800002020010020E4
:08039000000000100000001045
:10039800034A0130116813685B1A8342FBD3704724
:1003A8001C01002070B590F83440866D012C34D0C3
:1003B800012480F8344090F83540012C4FF00004B7
:1003C80029D1022580F8355044650468256825F44C
:1003D8008025256063608368402B19D1A260E160A5
:1003E800C26D3F239340B360236843F01603236034
:1003F800636943F080036361036C1BB1236843F0B6
:10040800080323602368002043F00103236070BDC4
:10041800A160E260E4E780F834400220F7E70000DA
:100428002DE9F74F0023DFF8A8814FF00F09694A3B
:1004380001240E689C4004EA0605B44340F0AF80EE
:100448004C684FEA430C032624F0100E06FA0CF60B
:100458000EF1FF37F643012F10D8876807EA060A1E
:10046800CF6807FA0CF747EA0A078760476827EA60
:10047800050A27099F4047EA0A074760C768BEF18F
:10048800020F07EA060A8F6807FA0CF747EA0A0715
:10049800C76014D14FEAD30E03F0070A00EB8E0EA3
:1004A8004FEA8A0ADEF8207009FA0AFB27EA0B0BE2
:1004B8000F6907FA0AF747EA0B07CEF820700768B2
:1004C800374004F0030606FA0CF63E430660E600E1
:1004D80065D5D8F8446023F0030703F0030C46F40D
:1004E800804607F180474FEA8C0CC8F8446007F54E
:1004F8009C37D8F8446009FA0CFE06F48046019649
:10050800019EBE6826EA0E0E334EB0424ED006F566
:100518008066B0424CD006F58066B0424AD006F5F7
:100528008066B04248D006F58066B04246D006F5EF
:100538008066B04244D006F58066B04242D006F5E7
:100548008066B04240D006F58066B0423ED006F5DF
:100558008066B04214BF0A26092606FA0CF614F47F
:10056800803F46EA0E06BE606FEA050716680CBFB4
:100578003E402E4314F4003F166056680CBF3E40C0
:100588002E4314F4801F566096680CBF3E402E43DD
:10059800A4029660D66854BF3E402E43D66001330D
:1005A800102B7FF445AF03B0BDE8F08F0026D4E7E9
:1005B8000126D2E70226D0E70326CEE70426CCE7B9
:1005C8000526CAE70626C8E70726C6E70826C4E7B9
:1005D80000380240003C0140000002402DE9F04F85
:1005E80000224FF0010A4FF00F084FF0030B464C62
:1005F8000AFA02FC3CEA01030CEA01066CD122F07B
:10060800030502F0030705F18045BF0005F59C3599
:1006180008FA07F9AB6809EA030E3C4B984260D028
:1006280003F5806398425ED003F5806398425CD0FE
:1006380003F5806398425AD003F58063984258D0F6
:1006480003F58063984256D003F58063984254D0EE
:1006580003F58063984252D003F58063984250D0E6
:1006680003F58063984214BF0A230923BB407345EE
:1006780013D1236823EA06032360636823EA060389
:100688006360A36823EA0603A360E36823EA06031A
:10069800E360AB6823EA0903AB6053000568D6083A
:1006A8000BFA03F300EB860625EA0305056002F062
:1006B8000705376AAD0008FA05F527EA0507376226
:1006C800C56825EA0305C560456825EA0C05456047
:1006D800856825EA030383600132102A88D1BDE8C2
:1006E800F08F0023C2E70123C0E70223BEE70323FC
:1006F800BCE70423BAE70523B8E70623B6E70723D0
:10070800B4E70823B2E700BF003C01400000024004
:10071800836B00229A631A68136843F400331360EA
:100728007047836B0022DA621A68136843F4003357
:100738001360704770477047436D826B022B3FD040
:1007480000219163D162536C43F00403536413682E
:10075800186820F00400186092F8410080072FD52F
:1007680082F84010082182F84110196821F4F81124
:1007780019601968490719D5196821F00401196029
:10078800D36B1049196593F83510022905D08021DB
:100798005965012382F841307047052283F83520D6
:1007A8001A68136823F00103136070470222DA60A5
:1007B8001A6842F400321A601A6842F002021A609B
:1007C800704700BFD1070008836B00229A63DA6282
:1007D80093F84120082A0BD11B680222DA601A68B4
:1007E80042F400321A601A6842F002021A60704736
:1007F800012283F841207047094A38B5136800245C
:10080800084D013313602A88A3B29A4200D838BD34
:10081800A3B2013405EB83035B689847F3E700BF95
:100828001C010020D8000020684B1A6890681168E5
:1008380010F0040F38D011F4802F35D093F8411000
:10084800122915D19168490700D47047D96A51B166
:10085800596A097882F82010596A01315962D96AAF
:100868000139D962EEE7136823F4802313607047D7
:1008780093F84110222940F0A88019688868400739
:1008880000D47047986B50B192F82000196B08702B
:10089800196B01311963996B01399963EDE70B689D
:1008A80023F480230B60704710F0020F48D011F436
:1008B800003F45D00221D160116821F4E021116088
:1008C80093F84110122910D11168480709D5116809
:1008D80021F004011160DA6B11680A6822F0010244
:1008E8000A60012283F84120704793F841102229B9
:1008F80015D111684907EAD41968896811F47C5F31
:10090800EFD0996B0029ECD092F82000196B087091
:10091800196B01311963996B01399963ECE793F805
:1009280041100229DDD093F8411008294DD15169B1
:1009380021F040615161012283F841205B6C7047CE
:1009480010F0080F0CD011F4002F09D00821D16045
:100958001168490239D5116821F410211160C0E7E6
:1009680010F0010F2BD011F4803F28D00121D16065
:10097800106820F470201060586C40F00200586431
:100988001068400710D5106820F004001060DA6B7A
:100998000F48106592F83500022808D0802050656D
:1009A8005A6C42F004025A6483F8411070470523D8
:1009B80082F835301268136823F0010356E7C00641
:1009C80003D5CB0201D51023D36070478C000020DB
:1009D800D10700085D4BF7B5DC6B002308220193B3
:1009E8005B4BA56D1F68E36D2E689A4016420CD0CC
:1009F80021680868400708D5086820F004000860E6
:100A0800AA60626D42F00102626501229A401642B4
:100A180008D021684969090604D5AA60626D42F0C8
:100A28000202626504229A40164208D021680968C9
:100A3800880704D5AA60626D42F00402626510223C
:100A48009A40164210D02368196809070CD5AA6085
:100A58001A68500337D51B68190301D4236C00E0CA
:100A6800A36C0BB120469847E16D20228A401642BC
:100A78003AD023681868C60636D5AA6094F8352097
:100A8800052A1A6827D122F016021A605A6922F03C
:100A980080025A61226C0AB9A26C1AB11A6822F053
:100AA80008021A603F238B40AB60002384F834307F
:100AB800012384F83530236D002B45D0204603B040
:100AC800BDE8F04018471A68D205C7D41A6822F062
:100AD80008021A60C2E7500327D51B68190331D4EE
:100AE800636C0BB120469847636D6BB3636DDA078F
:100AF80019D54FF416532268B7FBF3F7052384F88A
:100B08003530136823F001031360019B01339F42C2
:100B1800019302D31368DB07F7D4002384F8343039
:100B2800012384F83530E36CC6E71A6812F4807242
:100B380008D1196821F010011960012384F83420C4
:100B480084F83530E36BCCE703B0F0BD8C000020AF
:100B5800040000202DE9F0476D4E0546376890F8EF
:100B68004030012B00F0D280012380F8403090F80B
:100B78004130012BD8B24FF0000340F0C5806B64C0
:100B880002232C6885F84130AB6CA26892062AD4FF
:100B9800486A00283BD10323E3608B69D1E907C683
:100BA800002B63D04A6940EA030AD1F834E0920482
:100BB8000B68D1E90B98002E37D08F684AEA0606F1
:100BC800E7610F69BCF1000F25D043EA0C0343EA43
:100BD800090343EA080343EA0E033B43CF683B4358
:100BE8001343334331E05A1CCFD03268D21B9342AF
:100BF80001D3002BC9D1042385F841306B6C43F035
:100C080001036B64002385F84030BDE8F0878B6AE8
:100C1800013B2361C1E743EA090343EA080343EAC6
:100C28000E033B43134333431CE0BCF1000F10D0C9
:100C380043EA0C03CE6843EA090343EA080343EA9C
:100C48000E03334343EA0A03134363614B68A3610A
:100C580009E043EA090343EA080343EA0E0343EAC7
:100C68000A0313436361002834D046E006B38B6857
:100C780006434F69E361BF040B69D1F834E0D1E959
:100C88000B98BCF1000F0BD043EA0C03CA6843EA87
:100C9800090343EA080343EA0E0313433B43A0E76F
:100CA80043EA090343EA080343EA0E033B43BAE76E
:100CB800BCF1000F0DD0CA6A40EA0C0313430A6B5B
:100CC80013434A6B1343CA6813434A6943EA82438E
:100CD800BBE740B9002385F84030236843F440332C
:100CE8002360002091E7CB6A0A6B034313434A6BE6
:100CF80013434A6943EA82436361012385F841301B
:100D0800002385F84030ECE785F8403002207CE786
:100D18001C0100207FB50C4B80240C4801A91A6BDC
:100D280042F002021A6301221B6B019403F00203D2
:100D38000093009B0023CDE9022302230493FFF7CD
:100D48006FFB8461FEE700BF0038024000040240E8
:100D58003E4B984203F5405300B58BB00BD11A6B4C
:100D680042F004021A631B6B03F004030193019B16
:100D78000BB05DF804FB364A904209D11A6B42F079
:100D880008021A631B6B03F008030293029BEFE748
:100D9800304A904209D11A6B42F010021A631B6B59
:100DA80003F010030393039BE2E72B4A904209D117
:100DB8001A6B42F020021A631B6B03F020030493A2
:100DC800049BD5E7254A904209D11A6B42F04002AC
:100DD8001A631B6B03F040030593059BC8E7204A81
:100DE800904209D11A6B42F080021A631B6B03F020
:100DF80080030693069BBBE71A4A904209D11A6BF7
:100E080042F480721A631B6B03F480730793079B89
:100E1800AEE7154A904209D11A6B42F400721A6380
:100E28001B6B03F400730893089BA1E70F4A9042D9
:100E380009D11A6B42F480621A631B6B03F4806356
:100E48000993099B94E7FFF765FF00BF000802407C
:100E5800000C02400010024000140240001802403A
:100E6800001C0240002002400024024000280240EA
:100E7800104A82B090420BD10F4B1A6B42F001021C
:100E88001A631B6B03F001030093009B02B07047C9
:100E98000A4A90420AD1084B1A6B42F002021A63BE
:100EA8001B6B03F002030193019BEFE702B0FFF70E
:100EB8004FBF00BF0000024000380240000402405B
:100EC800084A18211068C3B26FF30900103BB3FB3E
:100ED800F1F110B55F2B044C88BF0430615C90655C
:100EE800D16510BD080000201C1F0008124BDB68EC
:100EF800C3F3022310B5C3F107041A1D042C28BF3D
:100F08000424062A88BFDA1E4FF0FF3398BF002258
:100F1800A34021EA03039340421C4FEA0313DBB2C8
:100F280006D000F1604000F5614080F8003310BD44
:100F3800014A82F82330FAE700ED00E0824B2DE900
:100F4800F04F1C68102616234FF4E067012589B07E
:100F5800C4E903630023C4E905737C4FC4E907337C
:100F6800D7F8008094F84130C4E9015503F0FF0632
:100F7800002B40F0AB80764B4FF0020984F84060BC
:100F88004FF0030A9A6B4FF4806B724842F00202EA
:100F98009A639A6B02F002020292029A1A6B42F466
:100FA80080021A631A6B02F480020192019A9A690C
:100FB80042F002029A619A6922F002029A61FFF7EE
:100FC80057FF6548FFF7C4FE40230A22614803A97A
:100FD80005950925CDE90339CDE906A2FFF720FAE1
:100FE80000F580500795CDF80CB00596FFF718FA74
:100FF8004FF4807C0A22CDF80CC00792FFF710FA54
:101008004FF400720392FFF70BFA80220795534DB5
:101018000392FFF705FA40230393FFF701FA4FF015
:10102800C0634F4A4F48396885F8346085F8359071
:10103800E563AC63C5E90003C5E9036BC5E905666B
:10104800C5E90766C5E9096AC5E90B66D2F8B8308B
:1010580023F00103C2F8B830D2F8B86016F00106E0
:101068001AD1D2F8B810404B0B40A9680B4343F093
:10107800C06343F48063C2F8B830D2F8CC3023F0B0
:101088000703C2F8CC30FFF71BFFEA6D3F239340FC
:10109800836001236E6506E03B685B1A052BDBD98C
:1010A80020236B65032385F835300F215C202F4DF5
:1010B800FFF71CFF4FF0805300214620AB60FFF77D
:1010C80015FF4023AB6041F28833A36423681A6894
:1010D80022F4F8521A60A26C996811F020011ED10E
:1010E8001A6822F07F4222F0D00242F0807242F069
:1010F80010021A601E4A5868024042F4B01242F4C4
:10110800E0625A601A6842F001021A6001236164C1
:1011180084F8413084F8401009B0BDE8F08F511CC4
:10112800DAD03968A1EB08018A4201D3002AD3D169
:10113800042384F84130636C43F0010363640023A3
:1011480084F84030FFF7E6FD680000201C0100200D
:101158000038024000040240001402400800002049
:1011680000640240B86402403F8010E000E100E003
:10117800FEF8E0FF70B5064600286CD002681368D8
:1011880023F0010313604022334BC3F88820BFF3D8
:101198004F8FBFF36F8F4FF08052C3F88820BFF393
:1011A8004F8FBFF36F8F2D4D2D4B2B6095F835303A
:1011B800022B25D02B4B0024D3F8B82022F00102B3
:1011C800C3F8B8202122C3F8B840C3F8BC40C3F81C
:1011D800C040C3F8C440C3F8C840C3F8CC20FFF7E8
:1011E8006FFEEA6D3F23934083606C6585F8344059
:1011F80085F83540C5E90F44C5E91144C5E91344EC
:1012080019484021FFF7EAF94FF4806100F5805052
:10121800FFF7E4F94FF48071FFF7E0F94FF400713C
:10122800FFF7DCF98021FFF7D9F94021FFF7D6F95C
:101238000E4B9A6942F002029A619A6922F0020200
:101248009A619A6B22F002029A630023736486F80B
:10125800413086F8403070BD00E100E00800002011
:10126800B8640240006402400004024000380240B2
:1012780008B5104B4FF47A7201461B68B3FBF2F3C2
:10128800013BB3F1807F14D24FF0E022F0200F2908
:101298005361094B83F823004FF0000393614FF02B
:1012A8000703136105D84FF0FF30FFF71FFE034B0C
:1012B800196008BD0400002000ED00E000000020D7
:1012C8002DE9F843054608270024184EB6F8109073
:1012D8000120D6F80C8064004FEA0943013FE4B2CC
:1012E800C8F81830FFF754F8338B290672694FF0A5
:1012F80001004FEA450558BF1B04EDB29361FFF7A3
:1013080047F80120C8F81890FFF742F8F369328CC3
:1013180001201B691A4218BF44F00104FFF738F88E
:1013280017F0FF07D2D12046BDE8F88368000020F7
:10133800554B0F2055491A6842F400722DE9804830
:101348001A60ADF6F40D1A6842F480721A60CA6821
:101358004F4B22F4E0621204120C1343CB60FFF7E8
:1013680087FF4C4A136C43F080531364136C03F0EB
:1013780080530B930B9B484B196841F4404119600B
:101388001B6803F440430A930A9B936803F00C0319
:10139800042B424B07D0916801F00C0108293FD17A
:1013A800526855023CD53B4A12683A4A916801F0A6
:1013B8000C0108294DD0116821F08071116018685E
:1013C800116889013BD436495160116841F0807138
:1013D8001160304918680A68970135D52D4A116C93
:1013E80041F080511164126C02F080520C920C9AF8
:1013F800294A116841F48031116018685168CD0399
:1014080050D5116841F400311160234918684A68C1
:1014180094034CD41A68121AB2F57A7FF7D946E0C9
:101428001C4A116841F480311160186811688C03F6
:10143800BBD41968091A6429F8D9FFF76BFC196835
:10144800091A0229BCD9F8E71A68121A022AC2D95D
:10145800F3E752685602F0D502F03F010829ECD1B3
:1014680047F6C0711140B1F5C04FE6D112F4403FC4
:10147800E3D102F07061B1F1006FDED102F0E04219
:10148800B2F1005FAAD0D8E7003C024000ED00E0CE
:101498000003FA0500380240007000401C010020DB
:1014A800086040281968091AB1F57A7FA6D9CD498C
:1014B8000A6802F00F02052A40F2D482CA4A9168EB
:1014C80041F4E0519160916841F460419160916804
:1014D80021F0F001916011688901AED5916841F25F
:1014E800883421F0030141F0020191601868916885
:1014F80001F00C01082940F0C282BA4A136803F0CF
:101508000F03062B00F2C182B7498B6823F4E0531E
:1015180043F4A0538B608B6823F4604343F4004387
:101528008B608B6803F00C03042B00F0D582082B2A
:1015380000F0B882AD48AC4BAD4A9B68C3F30313C7
:10154800D35C20FA03F4AB4B1C60AB4B1868FFF775
:101558008FFE4FF47A73B4FBF3F00138B0F1807F5B
:101568000AD24FF0E023A54AF021586182F82310EF
:1015780000229A6107221A614FF0E022A04D00274D
:10158800A0481369402401264FF0030943F00403DF
:101598004FF4807B4FF4007ADFF86C8213619B4B29
:1015A8001F80FFF765FC2846FFF7D2FB95480DF52D
:1015B8009E61CDF8F044CDF8F874CDF8F464CDF818
:1015C800FC94FEF72DFF84612846CDF8F0B4FEF7B1
:1015D80027FF4FF08073AB61CDF8F0A4FEF720FF32
:1015E8004FF00073AB618023CDF8F034FEF718FF9D
:1015F8004FF40003AB61CDF8F044FEF711FF4FF450
:101608008003AB614FF48063CDF8F034FEF708FF38
:101618004FF080627B4BAA617D4D7E4A6B604FF430
:101628008063E8606861E86164202B82C8F8002064
:101638002C81C5F80080A5F818B0A5F820A0FEF701
:10164800A7FE4046FFF796FDFFF778FC394634229F
:1016580013A800F0DFFA4FF440732F6812A918930B
:10166800F523384612934FF400531593FFF772FA97
:10167800044600287FF4E1AE3846FFF77BFD6F682B
:101688003846FFF7F5FBEB6818460093FFF7F0FBC9
:10169800D5F814B05846FFF7EBFBD5F81CA0504618
:1016A800FFF7E6FBB5F808800DF59E613846CDF8E2
:1016B800FC94CDF8F844CDF80045CDF8F084CDF889
:1016C800F464FEF7ADFEB5F81090009BC7F81880DB
:1016D8001846C1F80090FEF7A3FE4FEA0943B5F893
:1016E800189083615846C1F80090FEF799FE50465D
:1016F8004FEA09434FEA0849CBF818302B8C8E6023
:10170800C1E90034FEF78CFE3046C7F81890FEF7A2
:101718003FFE6620FFF7D4FD3046C7F81880FEF775
:1017280037FE3046C7F81890FEF732FE9920FFF7CB
:10173800C7FD3046C7F81880FEF72AFE3046C7F8BE
:101748001890FEF725FE9F20FFF7BAFD2046FFF709
:10175800B7FD2046FFF7B4FD2046FFF7B1FD204650
:10176800FFF7AEFD83462046FFF7AAFDC7F81880AD
:1017780082463046FEF70CFEBBF10D0F7FF45DAEDE
:10178800BAF15D0F7FF459AE3046C7F81890FEF7EE
:10179800FFFD3520FFF794FD3046C7F81880FEF7A7
:1017A800F7FD6420FEF7F4FDFFF7C8FB0E4B0DA90B
:1017B80014481A6B42F002021A631B6B03F002030F
:1017C8000993099B022310934FF48043CDE90E64DB
:1017D8000D93FEF725FEA5233CA90022FF200393C5
:1017E8001AE000BF003C0240003802400024F40028
:1017F800241F0008040000200000002000ED00E085
:1018080000140240000402408C000020D800002090
:1018180068000020001000A0039CB2FBF0F3C3EBAB
:101828000323D31A01322344B2F5806F01F8013B38
:10183800F2D14FF0000B0BF12E035C464FF000097C
:101848004FF02E089A4604934FF4806300933CAB04
:1018580005930021302222A800F0DCF94FF44073F0
:10186800219420A9269338232C6820934FF44063B1
:10187800204627934FF4005323934FF04073CDE94C
:101888002938FFF767F900287FF4D7AD2668336950
:1018980094F84020012A3FF4D0AD012284F840207A
:1018A80094F84120012A40F0A181E76B013360647C
:1018B8007A690192002A40F02481E3621223059993
:1018C800384684F841300323F360E36AA362059B3A
:1018D8006362736923F040637361B04BFB63B04B81
:1018E8003B64B04BFB6400233B654023BB603B6813
:1018F80002931B68029A23F0C00343F0400313606D
:1019080006F1200306F120020693A36AFEF74AFDBA
:10191800002840F0138184F84000C144336843F440
:1019280080333360336843F004033360009BB3EBC8
:101938000803009340F0D2800DF59E63DA464FF419
:1019480080684FF02E0905930021302230A800F05E
:1019580061F94FF440732EA920463493EB23CDF858
:10196800BCA02E934FF4406335934FF4005331934A
:101978004FF04073CDE9373906233393FFF7EAF880
:1019880000287FF45AADB3690793336994F840206F
:10199800012A3FF452AD012284F8402094F84120F6
:1019A800012A40F02381019A01336064002A40F043
:1019B800E980A36322234FF0000A029A384684F88C
:1019C80041300323F360A36B6363059B2363764B6A
:1019D800C7F850A0FB63754BC7F808A03B64714B70
:1019E800FB64029B1B6823F0C0031360636BDDE993
:1019F8000521FEF7D7FC002840F0EE807369B8EBAC
:101A0800090823F0406343F080637361079BB36167
:101A180084F84000336843F480333360336843F01C
:101A28000403336040F096804FF480620DF59E61A8
:101A38003CA800F0DFF800287FF4FFAC0BF5806BC2
:101A4800BBF5000F7FF4F7AE594A53695B044EBFEC
:101A58004FF080434FF48043554A9361039B013311
:101A6800DBB2B9E60A6822F00F0242F006020A6009
:101A78000A6802F00F02062A7FF4DFAC1EE5196837
:101A8800091AA1427FF633ADD7E4136823F00F0398
:101A980043F006031360136803F00F03062B7FF46B
:101AA800CCAC31E54A684B68496802F03F0213F450
:101AB8008003C1F388111ABF3E4800233E48A1FBAA
:101AC800000100F0AFF83D4B5B68C3F301430133FD
:101AD8005B00B0FBF3F02EE536482CE5DDF800801E
:101AE8003CAB5446B8F12E0F4B4428BF4FF02E089C
:101AF80005930AEB0803B3F5000F3FF69EAC9A4630
:101B0800A7E6019AB2F5006F0CD1DA0702D4A268F1
:101B1800D00705D5636C43F008036364002316E01F
:101B28005B08CAE6019AB2F5805F7FF4C7AE9907F1
:101B3800F0D1A2689207EDD19B08BEE6636C43F032
:101B480004036364012384F841304FF0000384F8F0
:101B5800403072E4009BB8F12E0FDDF810A04B4422
:101B6800C14628BF4FF02E0900930DF59E63009AD9
:101B780013440593049B4B44B3F5000F3FF65DAC4B
:101B88000493E1E6019AB2F5006F19D1DA07C1D4DE
:101B9800A268D007BED45B080BE700BF2B0700087C
:101BA8003D07000841070008190700083F0700081B
:101BB8000004024000127A000024F40000380240B9
:101BC800019AB2F5805F7FF4F5AE9907A2D1A268B9
:101BD80092079FD19B08ECE6636C43F004036364AF
:101BE800012384F8413084F840A026E484F84000BA
:101BF80023E400BF10B501390244904201D100200E
:101C080005E0037811F8014FA34201D0181B10BD5D
:101C18000130F2E702440346934200D1704703F8CB
:101C2800011BF9E753B94AB9002908BF00281CBFAE
:101C38004FF0FF314FF0FF3000F06AB9ADF1080CFA
:101C48006DE904CE00F006F8DDF804E0DDE90223D2
:101C580004B070472DE9F047089D0E4604460F462C
:101C6800002B4AD194468C45B2FA82F260D942B12F
:101C7800C2F12003974020FA03F30CFA02FC1F4339
:101C880094404FEA1C4E1FFA8CF6B7FBFEF1230C6A
:101C98000EFB117743EA074301FB06F098420AD985
:101CA8001CEB030301F1FF3780F01581984240F2E5
:101CB8001281023963441B1AA4B2B3FBFEF00EFB77
:101CC800103344EA034400FB06F6A6420AD91CEB8B
:101CD800040400F1FF3380F00081A64240F2FD8049
:101CE8006444023840EA0140A41B00211DB1D440DD
:101CF8000023C5E90043BDE8F0878B4205D90DB143
:101D0800C5E9000100210846F5E7B3FA83F1002987
:101D180046D1B34202D3824200F2F580841A66EBC0
:101D2800030201201746002DE5D0C5E90047E2E788
:101D3800002A40F09380A1EB0C034FEA1C471FFADE
:101D48008CFE0121B3FBF7F607FB1630230C43EAA0
:101D580000430EFB06F0984208D91CEB030306F17A
:101D6800FF3802D2984200F2D08046461B1AA4B22D
:101D7800B3FBF7F007FB103344EA03440EFB00FE05
:101D8800A64508D91CEB040400F1FF3302D2A6458E
:101D980000F2B6801846A4EB0E0440EA0640A5E718
:101DA800C1F120078B4022FA07FC4CEA030C06FA23
:101DB80001FE20FA07F426FA07F344EA0E0400FAB3
:101DC80001F84FEA1C404FEA1449B3FBF0FE1FFA32
:101DD8008CF600FB1E3349EA03430EFB06F99945CE
:101DE80002FA01F20BD91CEB03030EF1FF3A80F063
:101DF8008580994540F28280AEF1020E6344A3EBE0
:101E08000909A4B2B9FBF0F300FB139944EA0944A9
:101E180003FB06F6A64208D91CEB040403F1FF30C5
:101E280068D2A64266D9023B644443EA0E40A41B2A
:101E3800A0FB02E6B4427346B14652D34FD05DB11F
:101E4800B8EB030264EB090404FA07F722FA01F37A
:101E58001F43CC40C5E9007400214CE7C2F12001C2
:101E680020FA01F30CFA02FC26FA01F196403343FA
:101E78004FEA1C471FFA8CFEB1FBF7F007FB101660
:101E8800190C41EA064100FB0EF68E4204FA02F4F0
:101E980008D91CEB010100F1FF382DD28E422BD955
:101EA80002386144891B9BB2B1FBF7F607FB161198
:101EB80043EA014306FB0EF1994208D91CEB0303E0
:101EC80006F1FF3814D2994212D9023E63445B1AD4
:101ED80046EA004136E73946EDE6184602E7F0459E
:101EE800ADD2BEEB020366EB0C060138B146A6E79D
:101EF8004646ECE7034698E74046D3E7D6467EE7F2
:101F08006444023847E708460DE7023E63442DE77C
:101F1800704700BF000610160006101600000000EB
:101F28000000000001020304060708091000000071
:101F380000000000017A5200027C0E011B0C0D000B
:101F48001000000018000000000000001000000051
:101F5800000000001000000000000000017A52009C
:101F6800027C0E011B0C0D00380000001800000058
:101F7800000000009E00000000510E10840485033C
:101F8800860287015BC7C6C5C40E004C0A420B0A0D
:101F9800420B0E10840485038602870151C7C6C50B
:041FA800C40E000063
:081FAC00B0FCFF7F0100000002
:081FB400100000000024F400FD
:0400000508000245A8
:00000001FF
