:020000040800F2
:1000000000000820C9020008CD020008CF02000845
:10001000E5020008E7020008FD02000800000000F9
:1000200000000000000000000000000013030008B2
:10003000150300080000000017030008E53700085A
:100040002D0300082D0300082D0300082D030008D0
:100050002D0300082D0300082D0300082D030008C0
:100060002D0300082D0300082D0300082D030008B0
:100070002D0300082D0300082D0300082D030008A0
:100080002D0300082D0300082D0300082D03000890
:100090002D0300082D0300082D0300082D03000880
:1000A0002D0300082D0300082D0300082D03000870
:1000B0002D0300082D0300082D0300082D03000860
:1000C0002D0300082D0300082D0300082D03000850
:1000D0002D0300082D0300082D0300082D03000840
:1000E0002D0300082D0300082D0300082D03000830
:1000F0002D0300082D0300082D0300082D03000820
:100100002D0300082D0300082D0300082D0300080F
:100110002D0300082D0300082D0300082D030008FF
:100120002D0300082D030008253800080D380008AD
:100130002D0300082D0300082D0300082D030008DF
:100140002D0300082D0300082D0300082D030008CF
:100150002D0300082D030008013800082D030008B6
:100160002D0300082D0300082D0300082D030008AF
:100170002D0300082D0300082D03000800000000D7
:100180002D0300082D0300082D0300082D0300088F
:100190002D0300082D0300082D0300082D0300087F
:1001A0002D0300082D0300082D0300082D0300086F
:1001B000F53700082D0300082D0300082D03000863
:1001C0002D0300082D030008000000002D03000887
:1001D0002D0300082D0300082D0300082D0300083F
:1001E0002D0300082D0300082D0300082D0300082F
:1001F0002D0300082D03000807B501F0CBFE284BA6
:100200002848834226D3284A002028498A422ED3F0
:10021000274D0026274C01F0CFFE01A96846641B3C
:1002200001F0B0FEA410B4422ADC234D0026234C7A
:10023000641BA410B44228DC214E224CA41BDDE92F
:10024000000103F013FB0546A410002C22DC284615
:1002500001F076FED3E900120C33891A53F8044CEE
:100260009442CED95558043242F8045CF8E752F86B
:10027000083B52F8044C9C42C8D943F8040BFAE7F7
:1002800055F8043B01369847CDE755F8043B013655
:100290009847CFE7013C56F824309847D5E700BF90
:1002A000300300084803000848030008580300080A
:1002B00058030008580300085803000858030008B2
:1002C000580300085803000814480047FEE71EF0D2
:1002D000040F0CBFEFF30880EFF309807146104A5A
:1002E0001047FEE7FEE71EF0040F0CBFEFF3088097
:1002F000EFF3098071460B4A1047FEE71EF0040F2A
:100300000CBFEFF30880EFF309807146064A1047EF
:10031000FEE7FEE7FEE7FEE770470000F901000890
:0E032000E3020008FB02000811030008FEE7DC
:10033000F05100080000002064000020F051000887
:10034000000000100000001064000020A8A6022099
:08035000000000100000001085
:1003600038B50E4B05461A784FF47A73B3FBF2F3A7
:100370000B4A1068B0FBF3F000F0B4F8044658B92B
:100380000F2D09D8024629464FF0FF3000F058F8EB
:10039000044B20461D6038BD0120FCE70000002012
:1003A000100000200400002008B5094B03201A6843
:1003B00042F400721A601A6842F480721A6000F007
:1003C0002DF80F20FFF7CCFF03F010FB002008BD35
:1003D000003C0240034A044B11681B780B44136035
:1003E000704700BF6400002000000020014B186827
:1003F000704700BF6400002038B50446FFF7F6FFE1
:100400000546631C1EBF044B1B78E418FFF7EEFF84
:10041000431BA342FAD338BD000000200749030262
:10042000CA6803F4E06322F4E0621204120C13437E
:1004300043F0BF6343F40033CB60704700ED00E04E
:10044000164B30B5DC68C4F30224C4F10703251D44
:10045000042B28BF0423062D4FF0FF358CBF033C2F
:10046000002405FA03F3002805FA04F521EA030342
:1004700022EA050203FA04F343EA02034FEA0313F4
:10048000DBB206DB00F1604000F5614080F800332C
:1004900030BD00F00F00024A1354F9E700ED00E010
:1004A00014ED00E0002807DB4109012300F01F00E4
:1004B000024A834042F82130704700BF00E100E06B
:1004C00000280CDB4309012200F01F0004492033FF
:1004D000824041F82320BFF34F8FBFF36F8F7047E7
:1004E00000E100E00138B0F1807F0BD24FF0E02353
:1004F000054AF0215861002082F8231007229861F4
:100500001A6170470120704700ED00E04FF0E023D2
:1005100004281A690CBF42F0040222F004021A6196
:100520007047000010B5044608B9012010BD437F94
:1005300003F0FF0213B9027701F0CEFE02236377C6
:100540002379E3B92368134A5A619A6822F01802A2
:100550009A6062792368D2B94FF0FF321A610020A5
:100560009A68616922F060020A43A1699A609A68F8
:1005700022F080020A439A6001236377D6E7D4E928
:100580000212204600F008F80028E2D0CDE72269E8
:10059000E4E700BFB71DC1041F2310B5013B1DD305
:1005A00021FA03F4E407F9D5102A13D0102A04D84D
:1005B0003AB1082A10D001200BE0182AFBD1062BF3
:1005C000F9D800684161836823F0180313438360FE
:1005D000002010BD072BF3E70F2BF1E7102AE5D120
:1005E000E9E70000036802461820D9B21039B1FBD0
:1005F000F0F010B5054C5F29205CD06523F47F70C6
:1006000020F0030088BF0430906510BD90460008BC
:1006100070B50446FFF7EAFE0546002C60D00023C3
:10062000226884F83430022384F83530136823F0CC
:100630000103136022681368D8072ED41368324868
:10064000A1691840D4E901352B43E5682B4325699E
:100650002B4365692B43E5690B432B43256A2B43E9
:100660000343606A042802BFD4E90B5635432B4389
:1006700004281360536923F0070343EA000335D1CC
:10068000A06AE56A03438DB391B9012820D030F008
:1006900002012BD1E90129D51DE0FFF7A7FE401B80
:1006A0000528C7D920230320636584F8350070BD71
:1006B000B1F5005F16D1032818D801A151F820F038
:1006C000D706000895060008D7060008D1060008DE
:1006D000B5F1C07F0AD140236365012384F835302A
:1006E0000120E4E70228F6D90328D3D0536120463D
:1006F000FFF778FFE26D3F239340836000200123E2
:10070000606584F83530D2E73F8010E038B50546A3
:1007100020B390F83530022BDCB21DD003680024E2
:100720001A6822F001021A6021221C605C609C6041
:10073000DC601C615A61FFF755FFEA6D3F2393406F
:1007400083606C6585F8344085F83540C5E90F4411
:10075000C5E91144C5E91344204638BD0124FBE72F
:1007600070B590F83440866D012C34D0012480F8A7
:10077000344090F83540012C4FF0000429D1022577
:1007800080F8355044650468256825F48025256087
:1007900063608368402B19D1A260E160C26D3F2382
:1007A0009340B360236843F016032360636943F00A
:1007B00080036361036C1BB1236843F0080323606B
:1007C0002368002043F00103236070BDA160E26054
:1007D000E4E780F834400220F7E790F83530022B48
:1007E00003D080234365012070470268052380F809
:1007F00035300020136823F00103136070470000B8
:100800000023F7B5019308225B4B0446856D1F68F2
:10081000C36D2E689A4032420CD0016808684007C8
:1008200008D5086820F004000860AA60626D42F0F4
:100830000102626501229A40324208D0216849696A
:10084000090604D5AA60626D42F0020262650422C4
:100850009A40324208D021680968880704D5AA6006
:10086000626D42F00402626510229A40324210D05A
:100870002368196809070CD5AA601A68500337D590
:100880001B68190301D4236C00E0A36C0BB1204654
:100890009847E16D20228A4032423AD02368186896
:1008A000C60636D5AA6094F83520052A1A6827D1DD
:1008B00022F016021A605A6922F080025A61226CF4
:1008C0000AB9A26C1AB11A6822F008021A603F2312
:1008D0008B40AB60002384F83430012384F835303A
:1008E000236D002B45D0204603B0BDE8F0401847EB
:1008F0001A68D205C7D41A6822F008021A60C2E743
:10090000500327D51B68190331D4636C0BB1204603
:100910009847636D6BB3636DDA0719D54FF41653BF
:100920002268B7FBF3F7052384F83530136823F00A
:1009300001031360019B0133BB42019302D813688A
:10094000DB07F7D4002384F83430012384F83530F2
:10095000E36CC6E71A6812F4807208D1196821F0B6
:1009600010011960012384F8342084F83530E36BDA
:10097000CCE703B0F0BD00BF100000202DE9F74F19
:100980000023DFF8B0814FF00F09684A01240E6898
:100990009C4004EA0605B44340F0AF804C684FEA3F
:1009A000430C032624F0100E06FA0CF60EF1FF3766
:1009B000F643012F10D8876807EA060ACF6807FABE
:1009C0000CF747EA0A078760476827EA050A2709FC
:1009D0009F4047EA0A074760C768BEF1020F07EA6F
:1009E000060A8F6807FA0CF747EA0A07C76014D1AE
:1009F0004FEAD30E03F0070A00EB8E0E4FEA8A0A85
:100A0000DEF8207009FA0AFB27EA0B0B0F6907FAD8
:100A10000AF747EA0B07CEF820700768374004F062
:100A2000030606FA0CF63E430660E60065D5D8F8E4
:100A3000446023F0030703F0030C46F4804607F1FB
:100A400080474FEA8C0CC8F8446007F59C37D8F80B
:100A5000446009FA0CFE06F480460196019EBE68C9
:100A600026EA0E0E324EB0424ED006F58066B042F7
:100A70004CD006F58066B0424AD006F58066B0429A
:100A800048D006F58066B04246D006F58066B04292
:100A900044D006F58066B04242D006F58066B0428A
:100AA00040D006F58066B0423ED006F58066B04282
:100AB00014BF0A26092606FA0CF614F4803F46EA0B
:100AC0000E06BE606FEA050716680CBF3E402E4357
:100AD00014F4003F166056680CBF3E402E4314F4D9
:100AE000801F566096680CBF3E402E43A40296605D
:100AF000D66854BF3E402E43D6600133102B7FF49E
:100B000045AF03B0BDE8F08F0026D4E70126D2E759
:100B10000226D0E70326CEE70426CCE70526CAE75F
:100B20000626C8E70726C6E70826C4E7003C0140BA
:100B300000000240003802402DE9F04F00224FF043
:100B4000010A4FF00F084FF0030B464C0AFA02FC63
:100B50003CEA01030CEA01066CD122F0030502F025
:100B6000030705F18045BF0005F59C3508FA07F934
:100B7000AB6809EA030E3C4B984260D003F58063F2
:100B800098425ED003F5806398425CD003F58063A1
:100B900098425AD003F58063984258D003F5806399
:100BA000984256D003F58063984254D003F5806391
:100BB000984252D003F58063984250D003F5806389
:100BC000984214BF0A230923BB40734513D12368FD
:100BD00023EA06032360636823EA06036360A368CD
:100BE00023EA0603A360E36823EA0603E360AB6835
:100BF00023EA0903AB6053000568D6080BFA03F338
:100C000000EB860625EA0305056002F00705376A52
:100C1000AD0008FA05F527EA05073762C56825EA39
:100C20000305C560456825EA0C054560856825EA29
:100C3000030383600132102A88D1BDE8F08F0023BE
:100C4000C2E70123C0E70223BEE70323BCE7042376
:100C5000BAE70523B8E70623B6E70723B4E7082376
:100C6000B2E700BF003C01400000024003691942A6
:100C700014BF0120002070470AB181617047090448
:100C8000FBE70000194B37B51A6C194C42F0805243
:100C90001A641B6C03F080530193019B236843F497
:100CA00080332360FFF7A2FB05466368DA030CD5A7
:100CB00023680F4D43F400332360FFF797FB04468E
:100CC0006B689B030AD5002006E0FFF78FFB401BF3
:100CD000B0F57A7FE9D9032003B030BDFFF786FB7A
:100CE000001BB0F57A7FEBD9F5E700BF0038024072
:100CF000007000402DE9F0474F6A37B1B2F1406F04
:100D000003D08B6A0468013B2361D1F818A0D1E9B4
:100D100007C5BAF1000F50D04E6947EA0A0A0468C5
:100D2000B6040B68D1F834E04AEA020AD1E90B981C
:100D30003DB38F684AEA0500E7610F69BCF1000F17
:100D400013D043EA0C03CD6843EA090343EA0803DE
:100D500043EA0E033B432B4333430343B2F1406F5B
:100D600063610CD04B68A36109E043EA090343EADD
:100D7000080343EA0E033B43334303436361BDE887
:100D8000F087BCF1000F0DD043EA0C03C86843EABA
:100D9000090343EA080343EA0E030343334343EAE8
:100DA0000A03DBE743EA090343EA080343EA0E00C8
:100DB00040EA060343EA0A03E0E70DB38B683D43CC
:100DC00004684E691543E361B6040B694F6BD1E9C2
:100DD0000B8EBCF1000F0BD043EA0C03C86843EA4A
:100DE000080343EA0E033B43034333432B43B5E776
:100DF00043EA080343EA0E033B4333432B43BDE777
:100E0000BCF1000F1AD047EA0C03CC6A0068B2F1BB
:100E1000406F43EA020343EA04030C6B43EA040312
:100E20004C6B43EA0403CC6843EA04034C6943EA8D
:100E300084434361A3D04B688361A0E7002F9ED019
:100E4000CB6A00683B4313430A6B13434A6B13435B
:100E50004A6943EA8243436191E72DE9F041DDF8B5
:100E6000188004460E4615461F4622689368334292
:100E700014BF01230023AB4201D100200FE0B8F1E1
:100E8000FF3FF3D0FFF7B2FAC01B404509D9042356
:100E9000012084F84130636C43F001036364BDE8D2
:100EA000F081B8F1000FE0D1F1E7000037B504465A
:100EB000FFF79CFA0546002C46D094F8413003F029
:100EC000FF023BB9204684F8402001F02FF941F29F
:100ED0008833A36421682046A3680A68013B22F492
:100EE000F85242EA0322A36C0A60002200932021F8
:100EF0002B46FFF7B2FF10BB2268E569E368116873
:100F00002B43256A21F07F412B43656821F0D001F6
:100F100043EA05630B4313605568D4E905310B437D
:100F2000216943EA0143094929400B43536013688F
:100F300043F0010313600123606484F8413000230F
:100F400084F8403003B030BD0120FBE7FEF8E0FF3D
:100F500010B5044668B10268136823F001031360FA
:100F600001F07AF90020606484F8410084F84000C0
:100F700010BD0120FCE7F7B504460F46FFF736FA2F
:100F8000034694F84020012A35D00122002684F837
:100F9000402094F84120012A2BD1022266642021AE
:100FA000204684F84120A26C00923246FFF755FF9C
:100FB0000546D8B97E6A16B923680322DA60002292
:100FC00039462046FFF796FE4EB9226884F8406005
:100FD000136843F440331360284603B0F0BD012387
:100FE00084F84130002384F84030F5E784F840600D
:100FF000F2E784F840600225EEE7704708B5806BA1
:1010000000238363C36290F84130082B0BD103683F
:101010000222DA601A6842F400321A601A6842F05A
:1010200002021A6008BD012380F84130FFF7E5FF96
:10103000F8E77047704770477047704770477047D0
:1010400038B50368044699681A68480734D55503CB
:1010500032D594F84120122A14D1226891684807A9
:1010600003D42046FFF7E9FF38BDE16AF9B1626AAF
:10107000127883F82020626A01326262E26A013AE1
:10108000E262EAE794F84120222AEAD122689168D4
:101090004907E6D5A16B51B193F82010226B11706E
:1010A000226B01322263A26B013AA263EEE713685E
:1010B00023F480231360D4E78D0768D5900366D5A9
:1010C0000222DA601A6822F4E0221A6094F84120C1
:1010D000122A13D11A68510709D51A6822F004029E
:1010E0001A60E36B1A68136823F00103136001238D
:1010F000204684F84130FFF79FFFB5E794F8412080
:10110000222A26D11A6852071DD51A6822F0040235
:101110001A60E36B1A68136823F00103136001235C
:10112000204684F84130FFF786FF9DE7A26B002A36
:10113000F5D093F82010226B1170226B01322263DC
:10114000A26B013AA2632268926812F47C5FEDD12F
:10115000E5E794F84120022A06D10123204684F8CD
:101160004130FFF767FF7FE794F84120082A7FF4BA
:101170007BAF5A69204622F040625A61012384F80D
:101180004130636C002B3AD1FFF753FF6CE70D073A
:1011900011D510030FD50822DA601A68550206D55A
:1011A0001A6822F410221A60012384F84130204684
:1011B000FFF744FF58E7C80724D5D50322D50125FA
:1011C000DD601A6822F470221A60626C42F002023A
:1011D00062641A6850070FD51A68E06B22F00402A7
:1011E0001A600E4B0365FFF7F8FA00283FF43CAF96
:1011F000636C43F004036364204684F84150FFF7B6
:10120000FCFE31E7C9067FF52FAFD2027FF52CAF88
:1012100010222046DA60FFF712FF25E7FD0F0008D5
:101220002DE9F341044618B9012002B0BDE8F08170
:101230000368DE0710D423689D075ED4236819076E
:1012400000F1A38023685A0700F1C480A269002A34
:1012500040F02E810020E8E7934B9A6802F00C02E0
:10126000042A07D09A6802F00C02082A0AD15B68A7
:10127000590207D58C4B1B689A03DCD56368002B99
:10128000D9D1D1E76368884DB3F5803F11D12B6880
:1012900043F480332B60FFF7A9F8834E054633688B
:1012A0009B03C8D4FFF7A2F8401B6428F7D903209A
:1012B000BBE79BB92B6823F480332B602B6823F4A6
:1012C00080232B60FFF792F806462B689F03B2D568
:1012D000FFF78CF8801B6428F7D9E8E7B3F5A02F57
:1012E0002B6803D143F480232B60D0E723F48033B1
:1012F0002B602B6823F48023CCE76B4B9A6812F0A9
:101300000C0F07D09A6802F00C02082A11D15B6812
:101310005D020ED4644A1368990702D5E368012B75
:1013200082D11368216923F0F80343EAC1031360F3
:1013300084E7E3685C4DBBB12B6843F001032B608D
:10134000FFF754F806462B689B0707D52B682269E0
:1013500023F0F80343EAC2032B606FE7FFF746F878
:10136000801B0228EFD9A2E72B6823F001032B6032
:10137000FFF73CF806462B689F077FF55FAFFFF746
:1013800035F8801B0228F6D991E76369464D83B191
:101390006B6F43F001036B67FFF728F806466B6F2E
:1013A0009B073FF54FAFFFF721F8801B0228F6D9C6
:1013B0007DE76B6F23F001036B67FFF717F80646B5
:1013C0006B6F9F077FF53EAFFFF710F8801B022879
:1013D000F6D96CE7344B1A6CD50027D41A6C012768
:1013E00042F080521A641B6C03F080530193019BFE
:1013F0002E4D2B68D8051BD5A3682B4D012B27D16B
:101400002B6F43F001032B6741F28838FEF7EEFFA4
:10141000254E0546336F9A073FD5002F3FF416AF90
:10142000214A136C23F0805313640FE70027DFE792
:101430002B6843F480732B60FEF7D8FF06462B68B9
:10144000D905D9D4FEF7D2FF801B6428F7D92EE73F
:10145000ABB92B6F41F2883823F001032B672B6F58
:1014600023F004032B67FEF7C1FF06462B6F9B0793
:10147000D3D5FEF7BBFF801B4045F7D917E7052BF7
:101480002B6F03D143F004032B67B9E723F001036B
:101490002B672B6F23F00403B5E7FEF7A7FF401B74
:1014A0004045B7D903E700BF003802400070004054
:1014B0003C4DAB6803F00C03082B42D02B68022A8A
:1014C00023F080732B602FD1FEF790FF06462B6828
:1014D000990123D4D4E907321343626A43EA8213A1
:1014E000E26A43EA0263226B43EA0273A26A520889
:1014F000013A43EA02436B602B6843F080732B6030
:10150000FEF774FF274D04462B689A013FF5A2AE03
:10151000FEF76CFF001B0228F6D9C8E6FEF766FF4F
:10152000801B0228D3D9C2E6FEF760FF04462B6871
:101530009B017FF58FAEFEF759FF001B0228F6D9FD
:10154000B5E6012A6B683FF46FAE03F48002E169EF
:101550008A427FF469AE03F03F02216A8A427FF437
:1015600063AE47F6C072616A1A40B2EB811F7FF426
:101570005BAEA26A03F440315208013AB1EB024F6C
:101580007FF452AE03F07062E16AB2EB016F7FF458
:101590004BAE226B03F0E043B3EB027F14BF01209C
:1015A000002042E600380240134908B58B6803F07A
:1015B0000C03042B1BD0082B1BD14A684B684968CD
:1015C00002F03F0213F48003C1F388111ABF0B48E5
:1015D00000230B48A1FB000102F00AFA064B5B68EE
:1015E000C3F3014301335B00B0FBF3F008BD0348D4
:1015F000FCE70348FAE700BF0038024000127A0017
:101600000024F4002DE9F0410D46044610B90120F4
:10161000BDE8F081454A136803F00F038B4228D3DD
:1016200021688F0730D4C80743D4404A136803F0B9
:101630000F03AB4266D8226851076FD4130707D552
:101640003B4A2169936823F4604343EAC1039360F2
:10165000FFF7AAFF364B374A9B68C3F30313D35CEB
:10166000D840354B1860354B1868FEF779FE0020DE
:10167000CEE7136823F00F030B431360136803F0E6
:101680000F038B42C3D1CBE711F0040F284B03D0DB
:101690009A6842F4E0529A600E0703D59A6842F4C1
:1016A00060429A609A68A06822F0F00202439A6051
:1016B000B9E761681E4B01291A681BD112F4003F7B
:1016C000A5D09A6841F28838194F22F003020A43E4
:1016D0009A60FEF78BFE0646BB68626803F00C0357
:1016E000B3EB820FA1D0FEF781FE801B4045F3D9FA
:1016F00003208DE7022902D112F0007FE0E712F00B
:10170000020FDDE7136823F00F032B431360136808
:1017100003F00F03AB427FF47AAF8CE70449E06833
:101720008B6823F4E05303438B6087E7003C02405F
:1017300000380240984600081000002004000020F5
:10174000014B1868704700BF1000002003685A68FA
:1017500022F0E0025A604268B2F5827F0AD18268C4
:10176000B2F5004F02D0B2F5806F03D11A6822F0B3
:1017700040021A60826AB2F5005F07D11A6822F44B
:1017800000521A601A6842F400521A60012380F86D
:101790005D30002380F85C30032070472DE9F04174
:1017A000DDF8188004460F4616461D4622689368E9
:1017B00037EA03030CBF01230023B34202D1002008
:1017C000BDE8F0816B1CF2D0FEF710FEA0EB080024
:1017D000A842EBD32046BDE8F041FFF7B7BF2DE9A3
:1017E000F041DDF8188006460D4614461F46326863
:1017F00093682B40A34202D10020BDE8F081B5F5EB
:10180000C06F01D104B9137B7B1CF1D0FEF7EEFD54
:10181000A0EB0800B842EAD33046BDE8F041FFF73C
:1018200095BF73B50B4600920D4616464FF4C05156
:1018300000220446FFF7D3FF024630B1236E032097
:1018400043F02003236602B070BD2B468021204662
:101850000096FFF7A3FF02460028EFD12B464FF476
:10186000C06120460096FFF7BAFF0028EBD0E5E7FD
:10187000F8B5044600285CD090F85D3003F0FF0214
:101880001BB980F85C2000F0AFFD02232168E268FC
:1018900084F85D300B68B2F5E06F23F040030B6015
:1018A0004FF0000342D91D46B2F5706F18BFA36216
:1018B000236B2BB9B2F5E06F8CBF022301232363A6
:1018C000A669A06AD4E901373B4327693B436769AE
:1018D0003B43E7693B43276A3B4306F400770343F6
:1018E0003B430B60236B022B03D10B6843F4006373
:1018F0000B60636A360CB0F5005F42EA0302636B6B
:1019000006F0040642EA030242EA060242EA05023F
:101910004A6001D1E36A0B61CB69002023F40063C4
:10192000CB610123206684F85D30F8BD4FF480550B
:10193000BCE70120F9E7000038B590F85C300446B8
:10194000012B7ED0012380F85C3090F85D30012BB4
:10195000DDB274D1002953D0002A51D003238287ED
:10196000816380F85D30002303660364C287A0F8BA
:101970004430A0F846300268C0E913338368B3F5F9
:10198000004F03D1136843F480431360A36AB3F597
:10199000005F07D1136823F400531360136843F406
:1019A00000531360606D284B0364284BC363284BBE
:1019B000C36400230365536823F480435360E368E2
:1019C000B3F5E06F0FD88369B3F5005F0BD1E38FF8
:1019D00013F0010F536818D123F480435360E38F51
:1019E000C3F34E03E387E38F0C329BB2FEF7B8FEDE
:1019F00098B1236E43F010032366012384F85D3011
:101A0000002384F85C30284638BD43F4804353609B
:101A1000E38FC3F34E030133E4E723681A685206E9
:101A200003D41A6842F040021A605A68002542F056
:101A300020025A605A6842F002025A60E0E702252A
:101A4000DEE70225DFE700BF591A0008871A000801
:101A5000651A000870477047806B08B5FFF7FBFFF9
:101A600008BD7047806B026808B5536823F0030314
:101A70005360036E43F010030366012380F85D306A
:101A8000FFF7EFFF08BD37B50546846BFEF7AEFCE8
:101A900002462B681B68DB0526D42368204659685C
:101AA00021F020015960596821F002015960642138
:101AB000FFF7B7FE18B1236E43F020032366A36837
:101AC00033B901932368DA6801929B680193019B03
:101AD0000023E387012384F85D30236E23B1204681
:101AE000FFF7BFFF03B030BD2046FFF7B3FFF9E7B4
:101AF00090F85D0070470000036A23F0010370B5A1
:101B00000362036A4268846923F002030D6824F4C7
:101B1000803424F073042C438D682B430C4DA84271
:101B200003D005F58065A8420BD1CD6823F00803EA
:101B300022F440722B43D1E9055623F004033543C8
:101B40002A4342604A6884614263036270BD00BFF9
:101B500000000140036A23F4807370B50362036AD6
:101B60004268C46923F400730D6824F4803424F0BF
:101B700073042C438D6843EA05230D4DA84203D01E
:101B800005F58065A8420DD1CD6823F4006322F4E9
:101B9000405243EA0523D1E9055623F480633543D7
:101BA00042EA051242604A68C461C263036270BDC2
:101BB00000000140036A23F4805330B50362026AD7
:101BC0004468C36922F400520D6823F0807323F443
:101BD000E64343EA05238D6842EA0532084DA842F0
:101BE00003D005F58065A84204D124F480444D69F2
:101BF00044EA85144460C3614B680364026230BDEB
:101C000000000140036A23F4803330B50362026AA6
:101C10004468436D22F400320D6823F4803323F0CE
:101C200070032B438D6842EA0542094DA84203D058
:101C300005F58065A84204D124F480344D6944EA56
:101C40000524446043654B688365026230BD00BF74
:101C500000000140036A23F4801330B50362026A76
:101C60004468436D22F400120D6823F0807323F45E
:101C7000E04343EA05238D6842EA0552084DA84235
:101C800003D005F58065A84204D124F480244D6971
:101C900044EA8524446043654B68C365026230BDF5
:101CA00000000140254A0368904212D0B0F1804FF5
:101CB0000FD0A2F57C4290420BD002F58062904298
:101CC00007D002F58062904203D002F5784290423C
:101CD00008D123F070034A68134323F44073CA68A1
:101CE000134316E0164A9042F7D002F58062904204
:101CF000F3D002F580629042EFD0A2F59832904284
:101D0000EBD002F580629042E7D002F5806290420B
:101D1000E3D04A6923F08003134303608B68C362F6
:101D20000B688362054B984203D003F580639842A9
:101D300001D10B6903630123436170470000014037
:101D40000040014010B50446A0B190F83D3003F0CA
:101D5000FF021BB980F83C2000F0F4FA022320684F
:101D6000211D84F83D30FFF79DFF0123002084F8FA
:101D70003D3010BD0120FCE7036A23F0100370B56D
:101D80000362036A4268846923F020030D6824F02B
:101D9000807424F4E64444EA05248D6843EA05137C
:101DA0000D4DA84203D005F58065A8420DD1CD6840
:101DB00023F0800322F4406243EA0513D1E905567B
:101DC00023F04003354342EA850242604A68846159
:101DD0008263036270BD00BF0000014038B590F817
:101DE0003C3004460220012B12D001230C2A84F837
:101DF0003D0084F83C3050D00BD8042A2DD0082A5E
:101E00003BD0D2B10123002084F83D3084F83C005F
:101E100038BD102A51D0142AF4D12068FFF71AFFD8
:101E20000A69436D43F400634365436D23F48063A3
:101E30004365436D43EA02234DE02068FFF75CFEF3
:101E40000A69836943F008038361836923F004030B
:101E50008361836913438361D4E72068FFF78CFFB4
:101E60000A69836943F400638361836923F48063AF
:101E70008361836943EA0223EDE72068FFF76AFE86
:101E80000A69C36943F00803C361C36923F004030B
:101E9000C361C3691343C361B4E72068FFF78AFED7
:101EA0000A69C36943F40063C361C36923F48063AF
:101EB000C361C36943EA0223EDE72068FFF7A2FE8E
:101EC0000A69436D43F008034365436D23F004033F
:101ED0004365436D1343436594E701F01F01036AB3
:101EE00010B501248A408C4023EA04030362036A8C
:101EF0001A43026210BD00000068012208B5FFF716
:101F0000ECFF0C4B984203D003F58063984203D159
:101F1000436C43F4004343648268074B1340062B31
:101F200006D0B3F5803F03D0036843F0010303609C
:101F3000002008BD0000014007000100FFF7DCBFE2
:101F400008B500F03BF800000B4A116808B50346DD
:101F500009B90A49116003331068094923F00303E2
:101F600003448B4206D901F0CFFF0C2303604FF0EE
:101F7000FF3008BD1360FCE768000020A8A602201F
:101F800000FC072001230360014B0B60704700BF7A
:101F90000800002008B500F023F8054B054A9A60B8
:101FA000D3F8882042F47002C3F8882008BD00BF2F
:101FB00000ED00E00000000800F020B8BFF34F8FF4
:101FC0000549064BCA6802F4E0621343CB60BFF3D5
:101FD0004F8F00BFFDE700BF00ED00E00400FA05F1
:101FE000054BD3F8882042F47002C3F888204FF0E4
:101FF00000629A60704700BF00ED00E0164B9A68DF
:1020000002F00C02042A22D0082A22D159685A6808
:1020100049025B6802F03F0248BF1049C3F38813CE
:1020200058BF0F49B1FBF2F253430B4A5268C2F357
:10203000014201325200B3FBF2F3074A09499268A8
:10204000C2F303128A5CD340074A13607047034B04
:10205000F3E7034BF1E700BF0038024000127A00BB
:102060000024F4009846000810000020284B4FF48C
:10207000C0701A6C42F0805210B51A6494B01B6C98
:10208000012403F080530093009B224B1A6842F412
:1020900040421A6008221B6803F440430193019BED
:1020A0004FF48033CDE907434FF48003CDE90E327E
:1020B0000223CDE9100307A80D93CDE91223FFF702
:1020C000AFF810B1204600F02DFAFEF7DBFD022339
:1020D0000F22002102A8CDE902234FF4A053CDE93D
:1020E00004134FF4805306210693FFF78BFA10B1C7
:1020F000012000F017FAFFF723FB4FF47A73B0FBCF
:10210000F3F0FEF7EFF90420FEF700FA14B010BD6B
:10211000003802400070004008B5FFF7A7FF00F04C
:1021200023FABDE8084000F057B90000454B9A6B10
:1021300042F002022DE9F04F9A6389B09A6B06468D
:10214000414C4FF0400B02F00202404D20464FF050
:102150000A0801924FF00309019A09271A6B4FF4FC
:10216000806A42F480021A631A6B02F480020292BF
:10217000029A9A6942F002029A619A6922F0020276
:102180009A6100F01BFA284600F018FA022303A90E
:1021900020460024CDF81C80CDE903B30123CDE90E
:1021A0000539FEF7EBFB03A92846CDF80CA00594F2
:1021B0000797FEF7E3FB4FF4807303A92846CDF899
:1021C0001C800393FEF7DAFB4FF4007303A9284643
:1021D000CDF81C800393FEF7D1FB802303A928468A
:1021E00007970393FEF7CAFB03A92846CDF80CB066
:1021F0000797FEF7C3FB16484FF0C063154AF0631C
:102200008663C0E90023C0E9034AC0E90544C0E988
:102210000744C0E90949C0E90B44FEF7F9F9224631
:102220000F215C20FEF70CF95C20FEF73BF92246FB
:1022300021464620FEF704F94620FEF733F909B09F
:10224000BDE8F08F00380240000402400014024054
:10225000ACA50220B864024010B54620194CFEF728
:102260002FF95C20FEF72CF9174B18480360FEF796
:102270004DFA40211648FEF75FFC4FF4806120467E
:10228000FEF75AFC4FF480712046FEF755FC4FF4E0
:1022900000712046FEF750FC80212046FEF74CFCE2
:1022A00040212046FEF748FC0A4B9A6942F00202A0
:1022B0009A619A6922F002029A619A6B22F00202F4
:1022C0009A6310BD00140240B8640240ACA502201D
:1022D0000004024000380240064B82B01A6B42F400
:1022E00080521A631B6B03F480530193019B02B06D
:1022F000704700BF0038024008B50E480E4B0F4A29
:1023000003600F4B1B68B3FBF2F3013B4FF4FA720F
:1023100043600023C0E903238360C0E90533FFF76E
:1023200011FD10B1012000F0FDF80020BDE80840CB
:1023300001F030BA48A50220004001400024F4001A
:10234000100000207FB50268104B9A421AD103F5A5
:1023500078430F485A6C42F480325A645B6C03F441
:1023600080330093009B00F029F90023022201A989
:102370000748CDE902230323CDE904330823019361
:10238000FEF7FCFA07B05DF804FB00BF0040014017
:102390000000024008B50E484FF482730D4AC0E9B0
:1023A000002300234FF4E062C3618362C0E902327C
:1023B000C0E90433C0E908334FF400738361FFF7C9
:1023C00057FA20B10120BDE8084000F0ABB808BDC5
:1023D000C0A402200030014008B5FFF7DBFFBDE8D4
:1023E0000840FFF789BF00000268454B9A42F0B5EC
:1023F000064689B040F0818003F58433002505242A
:1024000003271A6B03A93F4842F001021A631A6BB3
:1024100002F001020092009A5A6C42F480525A640F
:102420005A6C02F480520192019A1A6B42F48002B3
:102430001A631B6B079403F4800306970293029BB5
:102440000223CDE9043520230393FEF797FA802376
:1024500003A92C4803930794FEF790FA2A4C4FF0F7
:10246000C0632A4920462563C4E900134023C4E918
:1024700002354FF48063C4E904354FF44033C4E9B6
:102480000655C4E90835C4E90A75FEF7C1F810B16C
:10249000012000F047F8012200213B207465A6636B
:1024A000FDF7CEFF3B201A4CFDF7FCFF194A4FF019
:1024B000C0632046C4E9002300234FF48062C4E9CE
:1024C00004234FF440322363C4E908230322C4E900
:1024D0000233C4E90633C4E90A23FEF799F810B1C0
:1024E000012000F01FF83A2001220021B465A66304
:1024F000FDF7A6FF3A20FDF7D5FF09B0F0BD00BFFC
:10250000003001400000024060A4022058640240F4
:1025100000A4022040640240014800F0D7BA00BF86
:10252000DC0000207FB50E4B0125802401A91A6B29
:102530000C4842F002021A631B6B019403F0020381
:102540000093009B0023CDE9025302230493FEF77E
:1025500015FA2A4621460348FEF78EFBFEE700BF28
:102560000038024000040240014B00221A807047EC
:1025700058A6022038B5074C054623880F2B02D9F0
:102580000120FFF7CFFF238804EB8302013355605E
:10259000238038BD58A6022038B50024064D2A886D
:1025A000A3B29A4200D838BDA3B2013405EB83032D
:1025B0005B689847F3E700BF58A60220554B8CB0E4
:1025C00098420CD103F560531A6B42F001021A6372
:1025D0001B6B03F001030193019B0CB070474E4B42
:1025E00098420BD103F550531A6B42F002021A6362
:1025F0001B6B03F002030293029BEEE7474B9842EA
:102600000BD103F540531A6B42F004021A631B6BA3
:1026100003F004030393039BDFE7414B98420BD184
:1026200003F530531A6B42F008021A631B6B03F078
:1026300008030493049BD0E73A4B98420BD103F56F
:1026400020531A6B42F010021A631B6B03F0100345
:102650000593059BC1E7344B98420BD103F510530A
:102660001A6B42F020021A631B6B03F020030693DF
:10267000069BB2E72D4B98420BD103F500531A6B22
:1026800042F040021A631B6B03F040030793079B61
:10269000A3E7274B98420BD103F5E0531A6B42F0A6
:1026A00080021A631B6B03F080030893089B94E776
:1026B000204B98420BD103F5C0531A6B42F4807241
:1026C0001A631B6B03F480730993099B85E71A4B0C
:1026D00098420BD103F5A0531A6B42F400721A63AF
:1026E0001B6B03F400730A930A9B76E7134B984223
:1026F0000BD103F580531A6B42F480621A631B6B93
:1027000003F480630B930B9B67E701200CB0FFF78A
:1027100009BF00BF00000240000402400008024060
:10272000000C024000100240001402400018024059
:10273000001C024000200240002402400028024009
:10274000F0B5044687B040680025FFF737FFE06822
:10275000FFF734FF6069FFF731FFE069FFF72EFFF5
:1027600001262389032701A9606801930395059534
:1027700002960497FEF702F9324621896068FEF757
:102780007BFA238A01A9E068CDE90136CDE9035738
:10279000FEF7F4F82A46218AE068FEF76DFA238BEB
:1027A00001A96069CDE90136CDE90357FEF7E6F8E6
:1027B0002A46218B6069FEF75FFA238C01A9E06944
:1027C000CDE90135CDE90367FEF7D8F807B0F0BDD4
:1027D0000A4608B50346406819893AB10022FEF757
:1027E0004BFA0120BDE80840FDF706BE0122F6E7DE
:1027F00003460A46C068198A02B10122FEF73CBAB4
:1028000003460A464069198B02B10122FEF734BA29
:10281000018CC069FEF72ABAF8B505460E460827AE
:10282000002400212846FFF7E3FF0120FDF7E4FD27
:102830002846F109013FFFF7E3FF0120FDF7DCFD2A
:102840000122298A6400E8687600FEF715FA012063
:10285000FDF7D2FD2846FFF7DBFF0128E4B24FF079
:102860000100F6B208BF44F00104FDF7C5FD17F002
:10287000FF07D6D12046F8BD0068162310224FF47A
:10288000E06110B50124C0E903230023C0E901443D
:10289000C0E90513C0E90733FEF708FB20B1204665
:1028A000BDE81040FFF73EBE10BD10B58EB0044627
:1028B0000021342201A801F00FFB4FF44073694658
:1028C00020680693F52300934FF400530393FEF71B
:1028D00052FB10B10120FFF725FE0EB010BD70B500
:1028E0000446BDF81460BDF81C502381049BBDF85C
:1028F0002400E360069B26826361089B2583E361D5
:1029000020846420C4E90012FDF776FD2068FEF7FC
:102910001FFB2046FFF7B0FF2046FFF7C6FF2068E9
:10292000FEF716FB2046FFF70BFF01212046FFF7BD
:102930004FFF66212046FFF76FFF00212046FFF77B
:1029400047FF01212046FFF743FF99212046FFF76B
:1029500063FF00212046FFF73BFF01212046FFF7E0
:1029600037FF9F212046FFF757FF00212046FFF742
:1029700053FF00212046FFF74FFF00212046FFF7BD
:102980004BFF00212046FFF747FF00210646204667
:10299000FFF742FF002105462046FFF719FF0D2EE5
:1029A00001D15D2D02D00120FFF7BCFD20460121A1
:1029B000FFF70EFF35212046FFF72EFF20460021AE
:1029C000FFF706FF6420FDF717FD2046BDE87040C5
:1029D000FFF752BF70B58AB006461C22002102A83C
:1029E000012401F079FA0A4B01A809940193FDF73B
:1029F00099FD10B12046FFF795FD01AC35460FCC8F
:102A00000FC50FCC0FC5236830462B600AB070BDD0
:102A10000030024003460A464069198B12B1002279
:102A2000FEF72AB90122FBE710B500210446FFF7A3
:102A3000F1FF0520FDF7E0FC218900226068FEF728
:102A40001BF90A20FDF7D8FC606821890122FEF7F6
:102A500013F97820BDE81040FDF7CEBCF020704798
:102A6000F02070474FF4347301EB410103FB021176
:102A7000837E01444B77C37E8B77037FCB77704790
:102A80004FF4347301EB410182B003FB0211431890
:102A900000205A7F62F307009A7FDB7F62F30F20EA
:102AA00063F3174002B0704782B00191BDF8042073
:102AB0009DF806304283037702B07047024A002136
:102AC0001D3001F009BA00BF00A3020000F5283054
:102AD000002380F81D33704710B500F528320446F6
:102AE00092F81D33002BFBD12068FFF701F8012875
:102AF000FAD110BD37B500F5283301250446002270
:102B00008DF8071083F81D53018AC068FEF7B4F8EA
:102B10000022218B6069FEF7AFF82A460DF107010C
:102B20002068FEF709FF10B12846FFF7FBFC20469E
:102B3000FFF7D2FF00212046FFF76CFF03B030BD46
:102B4000F8B500F52833012504460E461746018ADC
:102B50002A46C06883F81D53FEF78EF80022218BA9
:102B60006069FEF789F83A4631462068FEF7E4FED0
:102B700010B12846FFF7D6FC2046FFF7ADFF2046F0
:102B80000021BDE8F840FFF745BF07B501228DF8E9
:102B900007100DF10701FFF7D3FF03B05DF804FB49
:102BA00073B50D462A2106461446FFF7A3FF0422FB
:102BB0006DBA64BA0DEB02013046ADF80450ADF8C1
:102BC0000640FFF7BDFF02B070BD73B50D462B2167
:102BD00006461446FFF78EFF04226DBA64BA0DEB69
:102BE00002013046ADF80450ADF80640FFF7A8FFEB
:102BF00002B070BDF8B5044600F11D060025AFB265
:102C0000EF2200212046FFF7CBFF3A463946204607
:102C1000FFF7DBFF01352C212046FFF76BFF314624
:102C20004FF434722046FFF78BFFF02D06F5347613
:102C3000E5D1F8BD10B50446FFF740FF2046BDE8DA
:102C40001040FFF7D7BFF8B503810446069BBDF8D7
:102C50002450C360089B05830125436100F5283398
:102C6000BDF81C709DF828600782C0E900120B9A1D
:102C700083F81D53C3F82023FFF7D6FE2046EF212B
:102C8000FFF738FF2046EB21FFF734FF20461421E1
:102C9000FFF77BFF2046FE21FFF72CFF2046EF21A8
:102CA000FFF728FF2046EB21FFF724FF20461421E1
:102CB000FFF76BFF20468421FFF71CFF20464021D1
:102CC000FFF763FF20468521FFF714FF2046FF2111
:102CD000FFF75BFF20468621FFF70CFF2046FF2110
:102CE000FFF753FF20468721FFF704FF2046FF210F
:102CF000FFF74BFF20468821FFF7FCFE20460A2104
:102D0000FFF743FF20468921FFF7F4FE20462121EB
:102D1000FFF73BFF20468A21FFF7ECFE204600210B
:102D2000FFF733FF20468B21FFF7E4FE204680218A
:102D3000FFF72BFF20468C21FFF7DCFE29462046BB
:102D4000FFF723FF20468D21FFF7D4FE29462046BA
:102D5000FFF71BFF20468E21FFF7CCFE2046FF2108
:102D6000FFF713FF20468F21FFF7C4FE2046FF2107
:102D7000FFF70BFF2046B621FFF7BCFE20460021DF
:102D8000FFF703FF20460021FFF7FFFE3621204614
:102D9000FFF7B0FE032E00F26E82DFE816F00400AB
:102DA000660268026A0218212046FFF7EEFE2046FE
:102DB0003A21FFF79FFE20466621FFF7E6FE2046F8
:102DC0009021FFF797FE20460821FFF7DEFE204600
:102DD0000821FFF7DAFE20460821FFF7D6FE20463D
:102DE0000821FFF7D2FE2046BD21FFF783FE2046D3
:102DF0000621FFF7CAFE2046BC21FFF77BFE2046D6
:102E00000021FFF7C2FE2046FF21FFF773FE204698
:102E10006021FFF7BAFE20460121FFF7B6FE2046EB
:102E20000421FFF7B2FE2046C321FFF763FE2046D0
:102E30001321FFF7AAFE2046C421FFF75BFE2046C0
:102E40001321FFF7A2FE2046C921FFF753FE2046BB
:102E50002221FFF79AFE2046BE21FFF74BFE2046B7
:102E60001121FFF792FE2046E121FFF743FE2046A5
:102E70001021FFF78AFE20460E21FFF786FE20462E
:102E8000DF21FFF737FE20462121FFF77EFE204697
:102E90000C21FFF77AFE20460221FFF776FE20463E
:102EA000F021FFF727FE20464521FFF76EFE204662
:102EB0000921FFF76AFE20460821FFF766FE20463B
:102EC0000821FFF762FE20462621FFF75EFE20461E
:102ED0002A21FFF75AFE2046F121FFF70BFE20467C
:102EE0004321FFF752FE20467021FFF74EFE204699
:102EF0007221FFF74AFE20463621FFF746FE2046A4
:102F00003721FFF742FE20466F21FFF73EFE2046A5
:102F1000F221FFF7EFFD20464521FFF736FE204660
:102F20000921FFF732FE20460821FFF72EFE20463A
:102F30000821FFF72AFE20462621FFF726FE20461D
:102F40002A21FFF722FE2046F321FFF7D3FD20467A
:102F50004321FFF71AFE20467021FFF716FE204698
:102F60007221FFF712FE20463621FFF70EFE2046A3
:102F70003721FFF70AFE20466F21FFF706FE2046A5
:102F8000ED21FFF7B7FD20461B21FFF7FEFD204690
:102F90000B21FFF7FAFD2046AE21FFF7ABFD2046DF
:102FA0007721FFF7F2FD2046CD21FFF7A3FD204654
:102FB0006321FFF7EAFD20467021FFF79BFD2046C5
:102FC0000721FFF7E2FD20460721FFF7DEFD20463F
:102FD0000421FFF7DAFD20460E21FFF7D6FD20463B
:102FE0000F21FFF7D2FD20460921FFF7CEFD204635
:102FF0000721FFF7CAFD20460821FFF7C6FD20463E
:103000000321FFF7C2FD2046E821FFF773FD2046AC
:103010003421FFF7BAFD20466221FFF76BFD204601
:103020001821FFF7B2FD20460D21FFF7AEFD204627
:103030007121FFF7AAFD2046ED21FFF7A6FD2046EE
:103040007021FFF7A2FD20467021FFF79EFD20466C
:103050001821FFF79AFD20460F21FFF796FD204625
:103060007121FFF792FD2046EF21FFF78EFD2046EC
:103070007021FFF78AFD20467021FFF786FD20466C
:103080006321FFF737FD20461821FFF77EFD20461C
:103090001121FFF77AFD20467121FFF776FD2046CA
:1030A000F121FFF772FD20467021FFF76EFD2046EB
:1030B0007021FFF76AFD20461821FFF766FD2046C4
:1030C0001321FFF762FD20467121FFF75EFD2046C8
:1030D000F321FFF75AFD20467021FFF756FD2046E9
:1030E0007021FFF752FD20466421FFF703FD2046C3
:1030F0002821FFF74AFD20462921FFF746FD2046FB
:10310000F121FFF742FD20460121FFF73EFD204659
:10311000F121FFF73AFD20460021FFF736FD20465A
:103120000721FFF732FD20466621FFF7E3FC20462A
:103130003C21FFF72AFD20460021FFF726FD20460F
:10314000CD21FFF722FD20466721FFF71EFD204617
:103150004521FFF71AFD20464521FFF716FD2046C1
:103160001021FFF712FD20460021FFF70EFD20463B
:103170000021FFF70AFD20460021FFF706FD20464B
:103180006721FFF7B7FC20460021FFF7FEFC204631
:103190003C21FFF7FAFC20460021FFF7F6FC204611
:1031A0000021FFF7F2FC20460021FFF7EEFC20464D
:1031B0000121FFF7EAFC20465421FFF7E6FC2046F8
:1031C0001021FFF7E2FC20463221FFF7DEFC20460B
:1031D0009821FFF7DAFC20467421FFF78BFC20468C
:1031E0001021FFF7D2FC20468521FFF7CEFC2046B8
:1031F0008021FFF7CAFC20460021FFF7C6FC2046CD
:103200000021FFF7C2FC20464E21FFF7BEFC2046FE
:103210000021FFF7BAFC20469821FFF76BFC2046FF
:103220003E21FFF7B2FC20460721FFF7AEFC204607
:103230003521FFF75FFC20462121FFF75BFC1121C0
:103240002046FFF757FC7820FDF7D6F820462921C5
:10325000FFF750FC1420FDF7CFF8002320466383CE
:103260002377BDE8F840FFF7E5BC28219CE548211D
:103270009AE5682198E50120FFF754F997E52DE9D3
:10328000F0411E4604461746884690470546B0471B
:103290009DF82A30BDF82820013D84F825300138FA
:1032A000069BE0832046E360079BA4F8232023616C
:1032B000089BA6606361099BA583A361C4E900879D
:1032C000BDE8F0810184090C82B0C36880F8221047
:1032D000016A006802B018470369006818478369EB
:1032E000006818472DE9F04F89B004460E46BDF836
:1032F0004890BDF84CA09DF858B0CDE90023838BD1
:10330000934237D3C38B019A934233D30B88BBF1DB
:10331000020FBDF854204FF0000509FB03F3ADF890
:103320001B2002934B880AFB03F30393149BADF815
:1033300018304FEA13438DF81A309DF856308DF847
:103340001D3002D10125AB4512D005EB4503002706
:10335000204620336B4413F8082D597842EA0122A5
:10336000997842EA0141FFF7ADFF039B9F4204D1E8
:10337000002DE7D009B0BDE8F08FB7FBFAF39BB2A0
:103380004FF000080493019BDA1993B20593029B56
:10339000984501D10137E8E7B8FBF9F1049A89B201
:1033A000304600F0A4F81DB920B908F10108EEE795
:1033B0000028FAD1009B2046059A03EB080189B248
:1033C000FFF78AFFF1E72DE9F74F9A46CD888B8802
:1033D00081460E9C0F4615FB03F590469DF834B0D0
:1033E000013CADB2164614F9013F23B30A2B02D1BA
:1033F0000220FFF797F8B9F81C30B3421BD3BBF19A
:10340000000F08D194F900303246394648460093FF
:10341000534600F088F83B6820785B689847BB8883
:103420000C9A00FB036080B2A0EB08032844013B28
:1034300086B21380D7E703B0BDE8F08F2DE9F04FD7
:1034400089B04FF0000917468B46129A0646DDF800
:103450005480A2F80090139A4046ADF81E301380B5
:103460009DF850A000F066FDDBF800300446BBF884
:1034700008201B78BBF8045013444A4615FB03F59B
:103480004B46ADB2A34218D3A31A12990DF11E00F8
:103490009BB2CDE90251CDE9007059463046CDE9E5
:1034A00004A800F074F8139ABDF81E3012889B1A15
:1034B000139A138009B0BDE8F08F18F9030003F1E7
:1034C00001090A281FFA89F90FD112999B1A30466F
:1034D0009BB2CDE902510DF11E01CDE904A8CDE961
:1034E0000071594600F053F84A464B46CAE7038834
:1034F0008B4230B515D94488944212D9DC085B0759
:1035000043684FEAD10518BF013401F0070104FBFD
:1035100002320123525D8B401A4214BF0120002069
:1035200030BD0020FCE72DE9F0411F4688B00B6854
:1035300016469DF838800C461A7805465B6840466A
:10354000ADF81A2098472368ADF8180040469B68EC
:1035500098476269079028461278A38804922269E6
:1035600011889278ADF80C108DF80E20E268118861
:103570009278ADF8081006A98DF80A203246CDE9F8
:1035800000333B46FFF7AEFE08B0BDE8F0812DE901
:10359000F0473F2B96B006460F4690461C461F9DAF
:1035A000DDF8849002D90120FEF7BCFF0DF1180A66
:1035B000239922464144504600F0AEFC04F15803E2
:1035C000BDF8782039460DEB03040023304604F89B
:1035D000403CADF816309DF88830CDF808A0019336
:1035E0000DF1160300932B88FFF7EDFEB9F80020CC
:1035F000BDF816309A4238BFA9F80030BDF88030C7
:103600002A8813442B8016B0BDE8F0870620704747
:103610001F2881BF20380C22024B02FB003098BFCC
:1036200001487047B4460008A84600080C22027002
:10363000024A4260024A8260704700BF0D360008AD
:10364000113600082DE9F043DFF8449187B04F4E62
:1036500000244846012503274FF04008FEF7AEFF3F
:103660003046FEF7ABFF01A94846CDE90185CDE91B
:103670000347FDF783F92A46414648464FF48079CF
:10368000FDF7FAFA01A93046CDE90195CDE90347E6
:10369000FDF774F92246494630464FF40079FDF7AC
:1036A000EBFA01A93046CDE90195CDE90347FDF7D5
:1036B00065F92246494630464FF08009FDF7DCFAAD
:1036C00001A93046CDE90195CDE90347FDF756F94B
:1036D000224649463046FDF7CFFA01A93046CDE9EA
:1036E0000185CDE90347FDF749F9224641463046B9
:1036F0004FF48068FDF7C0FA01A93046CDE9018595
:10370000CDE90347FDF73AF93046A6F5A056224623
:1037100041464FF00208FDF7AFFA3046FEF74EFF84
:1037200001A93046CDE90185CDE90347FDF726F92A
:103730002246414630464FF00408FDF79DFA3046D8
:10374000FEF73CFF0DEB08013046CDE90185CDE9E0
:103750000347FDF713F9224641463046FDF78CFA40
:103760004FF010083046FEF729FF01A93046CDE999
:103770000185CDE90347FDF701F92A464146304668
:10378000FDF77AFA07B0BDE8F08300BF00140240ED
:103790000004024010B588B004461422002103A89A
:1037A00000F09AFBB4F5FA7F4FF004024FF060038B
:1037B00028BF4FF4FA740A480DEB020101930294FA
:1037C000FEF70CFB10B10120FEF7ACFE042104480B
:1037D000FEF7B4FB10B10120FEF7A4FE08B010BD47
:1037E00048A5022008B5FCF7F5FDBDE80840FEF746
:1037F000D3BE00000148FDF723BC00BF0CA6022089
:10380000014BD86BFCF7FCBF0CA6022010B5044C92
:10381000606DFCF7F5FF606DBDE81040FEF77CBE03
:10382000C0A40220014B986DFCF7EABFC0A402209F
:1038300009490B8801339BB2B3F57A7F0B800AD11B
:103840000648074B02881A80002303800B80054836
:10385000054900F021BB7047960000209800002029
:1038600094000020740000203451000880B5A2B0FC
:103870004A4EFCF799FD4FF00408FEF74DFC10ACE2
:10388000FFF7E0FE4649474B4FF400724648354685
:103890000B600027454BCDE904324FF48072CDE92F
:1038A00002324FF48062CDE9003202F180424023BF
:1038B00002F50032FFF713F810A8FFF78BF80FCCD2
:1038C0000FC50FCC0FC523684FF4FA70384C2B602E
:1038D000FFF760FF374A022310213748059606ADEF
:1038E0000292364ECDE90313CDE900283449FFF7A3
:1038F000AAF9ADF874708DF8767006A81D9B314A50
:10390000ADF810301B0C2C498DF812302E4B039360
:103910002E4B02932E4B01932E4B00932E4BFFF711
:10392000AEFC0FCD0FC40FCD0FC495E803001FAD43
:1039300084E803002846203CFFF778FE4FF6FF732B
:103940008DF86F70ADF878308DF87A301EAB378116
:10395000F3601DAB214833610DF16F03C6E90058D8
:1039600073611F4D1F4B2F801F80FEF703FE1E4FFC
:10397000002320223146204602930DF17203039763
:1039800001931CAB00937023FFF758FD2046FFF70F
:10399000A6FC2B8801332B80EAE700BF24A5022078
:1039A0000CA60220001000A088A5022000140240EE
:1039B000B400002000000240DC0000209C00002039
:1039C000C0A402205D2A0008F52B0008812A000807
:1039D000652A0008A92A0008612A00083138000871
:1039E000980000209600002074000020704700001E
:1039F00053B94AB9002908BF00281CBF4FF0FF3156
:103A00004FF0FF3000F06AB9ADF1080C6DE904CE5B
:103A100000F006F8DDF804E0DDE9022304B07047A9
:103A20002DE9F047089D0E4604460F46002B4AD16B
:103A300094468C45B2FA82F260D942B1C2F12003B9
:103A4000974020FA03F30CFA02FC1F4394404FEA1C
:103A50001C4E1FFA8CF6B7FBFEF1230C0EFB117700
:103A600043EA074301FB06F098420AD91CEB030323
:103A700001F1FF3780F01581984240F2128102393E
:103A800063441B1AA4B2B3FBFEF00EFB103344EAEE
:103A9000034400FB06F6A6420AD91CEB040400F11D
:103AA000FF3380F00081A64240F2FD80644402387A
:103AB00040EA0140A41B00211DB1D4400023C5E908
:103AC0000043BDE8F0878B4205D90DB1C5E900017F
:103AD00000210846F5E7B3FA83F1002946D1B34245
:103AE00002D3824200F2F580841A66EB03020120C1
:103AF0001746002DE5D0C5E90047E2E7002A40F06F
:103B00009380A1EB0C034FEA1C471FFA8CFE0121A6
:103B1000B3FBF7F607FB1630230C43EA00430EFB1A
:103B200006F0984208D91CEB030306F1FF3802D2D5
:103B3000984200F2D08046461B1AA4B2B3FBF7F0BD
:103B400007FB103344EA03440EFB00FEA64508D9E8
:103B50001CEB040400F1FF3302D2A64500F2B6804C
:103B60001846A4EB0E0440EA0640A5E7C1F1200781
:103B70008B4022FA07FC4CEA030C06FA01FE20FAFD
:103B800007F426FA07F344EA0E0400FA01F84FEAB4
:103B90001C404FEA1449B3FBF0FE1FFA8CF600FB01
:103BA0001E3349EA03430EFB06F9994502FA01F276
:103BB0000BD91CEB03030EF1FF3A80F08580994589
:103BC00040F28280AEF1020E6344A3EB0909A4B275
:103BD000B9FBF0F300FB139944EA094403FB06F632
:103BE000A64208D91CEB040403F1FF3068D2A642B8
:103BF00066D9023B644443EA0E40A41BA0FB02E6E4
:103C0000B4427346B14652D34FD05DB1B8EB030214
:103C100064EB090404FA07F722FA01F31F43CC40CE
:103C2000C5E9007400214CE7C2F1200120FA01F33C
:103C30000CFA02FC26FA01F1964033434FEA1C4786
:103C40001FFA8CFEB1FBF7F007FB1016190C41EAC6
:103C5000064100FB0EF68E4204FA02F408D91CEB72
:103C6000010100F1FF382DD28E422BD90238614478
:103C7000891B9BB2B1FBF7F607FB161143EA014320
:103C800006FB0EF1994208D91CEB030306F1FF383D
:103C900014D2994212D9023E63445B1A46EA0041AB
:103CA00036E73946EDE6184602E7F045ADD2BEEB01
:103CB000020366EB0C060138B146A6E74646ECE780
:103CC000034698E74046D3E7D6467EE76444023889
:103CD00047E708460DE7023E63442DE7704700BF03
:103CE00070B50F4E0C463168054611B900F0FCF86E
:103CF00030602146284600F0F7F8431C03D14FF00E
:103D0000FF34204670BDC41C24F00304A042F8D048
:103D1000211A284600F0E8F80130F2D1EFE700BFA1
:103D20009CA602202DE9F843CD1C25F0030508359B
:103D30000C2D38BF0C25002D064601DBA94204D905
:103D40000C2333600020BDE8F883DFF8D48000F056
:103D500069F8D8F800301C4644BB29463046FFF7C6
:103D6000BFFF431C044658D1D8F800402746002F17
:103D700043D1002C4BD023683946304604EB03096D
:103D800000F0B2F8814542D121686D1A29463046CB
:103D9000FFF7A6FF01303AD023682B442360D8F800
:103DA00000305A6862BBC8F800700FE02268521BEE
:103DB00020D40B2A17D96119A342256018BF596076
:103DC000636808BFC8F8001062514B60304600F0CD
:103DD0002FF804F10B00231D20F00700C21A1CBFAE
:103DE0001B1AA350AFE76268A3420CBFC8F80020BB
:103DF0005A60EBE723466468AEE73C467F68B6E767
:103E00001A465B68A342FBD100235360DEE70C2314
:103E10003360304600F00CF894E70560D6E700BF49
:103E2000A0A60220014800F075B800BFA4A6022099
:103E3000014800F070B800BFA4A602202DE9F041AF
:103E4000074614460D4621B9BDE8F0411146FFF77B
:103E500069BF2AB900F076F825462846BDE8F0810A
:103E600000F0BAF88442064602D8B4EB500FF4D8FA
:103E700021463846FFF756FF804608B94546ECE72D
:103E8000B4422246294628BF324600F045F829466A
:103E9000384600F057F8F1E70EB400B59CB01DAB02
:103EA000029006906FF0004109480791049109497A
:103EB00053F8042B05910068019302A900F0F0F873
:103EC000029B00221A701CB05DF804EB03B070472F
:103ED000140000200802FFFF02440346934200D171
:103EE000704703F8011BF9E738B5064D0023044677
:103EF00008462B60FEF728F8431C02D12B6803B15B
:103F0000236038BD70000020014B1868704700BF67
:103F100014000020704770470A44914200F1FF33BB
:103F200000D1704710B511F8014B03F8014F9142D1
:103F3000F9D110BD034613F8012B002AFBD1181A42
:103F40000138704738B50546002941D051F8043C86
:103F50000C1F002BB8BFE418FFF764FF1D4A13685D
:103F600033B9636014602846BDE83840FFF760BF8E
:103F7000A34208D9206821188B4201BF19685B68E9
:103F800009182160EDE71A465B680BB1A342FAD924
:103F900011685018A0420BD1206801445018834288
:103FA0001160E0D118685B68536008441060DAE77C
:103FB00002D90C232B60D6E7206821188B4204BF5E
:103FC00019685B68636004BF091821605460CAE720
:103FD00038BD00BFA0A6022051F8043C181F002BDA
:103FE000BCBF0B58C01870472DE9F0478E681F46BC
:103FF000BE420B6882460C4690462DD8B1F90C2083
:1040000012F4906F26D06569096905EB4505A3EBAD
:10401000010905EBD5757B1C4B446D109D4238BFE3
:104020001D46530527D52946FFF77CFE064660B39B
:1040300021694A46FFF770FFA38923F4906343F098
:104040008003A381266165614E44A5EB09052660C6
:10405000A5603E46BE4200D93E46206832464146F3
:1040600000F0A6FAA3689B1BA36023683344236077
:104070000020BDE8F0872A46FFF7E0FE064600284C
:10408000E0D121695046FFF75DFF0C23CAF80030EC
:10409000A38943F04003A3814FF0FF30E9E700001C
:1040A0002DE9F04F98468B891B069DB007460D46BB
:1040B000144610D50B6973B94021FFF733FE286011
:1040C000286130B90C233B604FF0FF301DB0BDE8D4
:1040D000F08F40236B610023099320238DF8293052
:1040E000CDF80C803023DFF89C818DF82A304FF01A
:1040F000010923469A4613F8012B0AB1252AF9D162
:10410000BAEB040B0BD05B46224629463846FFF734
:104110006BFF013000F0A780099A5A4409929AF87F
:104120000030002B00F09F8000234FF0FF32CDE9DC
:1041300005230AF1010A049307938DF853301A936B
:104140005446052214F8011B4E4800F051FA049A17
:10415000D8B9D00644BF20238DF85330110744BF8F
:104160002B238DF853309AF800302A2B15D0079A5C
:10417000544600204FF00A0C214611F8013B303B19
:10418000092B4BD9B0B1079214E0A0EB080309FA50
:1041900003F313430493A246D2E7039B191D1B6844
:1041A0000391002BBBBF5B4242F0020207930793CF
:1041B000B8BF049223782E2B0AD163782A2B32D1F0
:1041C000039B1A1D1B68039243EAE37302340593B1
:1041D000DFF8C0A021780322504600F009FA38B178
:1041E000049BA0EB0A004022824013430134049355
:1041F00014F8011B24488DF82810062200F0F8F965
:10420000002836D0214B1BBB039B073323F0070349
:1042100008330393099B334409936AE70CFB02328A
:104220000C460120A8E700230134059319464FF0FE
:104230000A0C204610F8012B303A092A03D9002B2A
:10424000C6D00591C4E70CFB012104460123F0E729
:1042500003AB00932A460E4B04A93846AFF3008007
:10426000421C0646D6D1AB895B063FF52DAF0998B7
:104270002CE703AB00932A46054B04A9384600F00F
:1042800079F8EDE73C5100084651000800000000B5
:10429000E93F0008425100082DE9F04716469846CC
:1042A0008A680B69DDF820909342B8BF13463360EB
:1042B00091F8432007460C460AB101333360236866
:1042C000990642BF336802333360256815F006054E
:1042D00006D104F1190AE36832689B1AAB4226DC66
:1042E00094F843302268003B18BF012392062BD478
:1042F00004F1430241463846C84701301ED02368C6
:10430000226903F00603042B02BFE5683368ED1A47
:10431000A3680CBF25EAE57500259342C4BF9B1A2C
:10432000ED1800261A34B5421AD1002008E0012306
:10433000524641463846C847013003D14FF0FF305E
:10434000BDE8F0870135C6E7E1185A1C302081F836
:104350004300224494F8451082F843100233C7E723
:104360000123224641463846C8470130E6D001368F
:10437000D9E700002DE9FF470F7E0C9E782F91466C
:1043800080460C469A4601F1430207D8622F0AD8AC
:10439000002F00F0D180582F00F0B88004F14206C1
:1043A00084F842703AE0A7F16303152BF6D801A117
:1043B00051F823F00D440008214400089D430008F3
:1043C0009D4300089D4300089D43000821440008C8
:1043D0009D4300089D4300089D4300089D4300083D
:1043E0001F4500084B440008D94400089D430008BD
:1043F0009D430008414500089D4300084B440008C8
:104400009D4300089D430008E144000833681A1DDD
:104410001B68326004F1420684F8423001239CE0BC
:1044200033682068191D3160060601D51D6803E058
:104430004506FBD5B3F90050002D03DA2D236D425C
:1044400084F8433058480A2311E02168336808068D
:1044500053F8045B02D4490648BFADB26F2F5248EF
:10446000336014BF0A230823002184F843106668D0
:10447000A660002E05DB21682E4321F00401216097
:104480004BD01646B5FBF3F103FB1157C75D06F899
:10449000017D2F46BB420D46F4D9082B0BD1236872
:1044A000DF0708D5236961689942DEBF302306F82B
:1044B000013C06F1FF36921B2261CDF800A04B466D
:1044C00003AA21464046FFF7E7FE01304AD14FF0EC
:1044D000FF3004B0BDE8F087236843F02003236079
:1044E0003248782784F84570236831681F0651F8F0
:1044F000045B02D45F0648BFADB23160D90744BF48
:1045000043F0200323601DB11023ADE72648E9E7FF
:10451000236823F020032360F6E71646BDE73368DF
:1045200025686169181D30602E061B6801D5196069
:1045300002E06806FBD51980002323611646BCE71C
:1045400033681A1D32601E6862680021304600F030
:104550004FF808B1801B606063682361002384F812
:104560004330AAE72369324649464046D0470130E6
:10457000ADD023689B0713D4E068039B9842B8BF73
:104580001846A6E70123324649464046D047013047
:104590009DD00135E36803995B1AAB42F2DCEBE78F
:1045A000002504F11906F5E74D5100085E51000899
:1045B000884210B501EB020402D98442234607D891
:1045C000431EA14208D011F8012B03F8012FF8E790
:1045D000024401468A4200D110BD13F8014D02F891
:1045E000014DF7E70000000000000000000000009F
:1045F00001F0FF01102A2BDB10F0070F08D010F894
:10460000013B013A8B422DD010F0070F42B3F6D197
:10461000F0B441EA012141EA014122F007047FF0B0
:1046200000070023F0E80256083C85EA010586EA07
:10463000010685FA47F5A3FA87F586FA47F6A5FA43
:1046400087F68EB9EED1F0BC01F0FF0102F007024F
:1046500032B110F8013B013A83EA010313B1F8D1FA
:104660000020704701387047002D06BF35460338DB
:10467000073815F0010F07D1013015F4807F02BF14
:10468000013015F4C03F0130F0BC0138704700BF65
:1046900000061016000610160000000000000000C2
:1046A000010203040607080900003F2121212121FE
:1046B000213F00000000000000000000000000009A
:1046C000000004040404040004040000000A0A0AB0
:1046D000000000000000000000000A0A1F0A0A1F74
:1046E0000A0A00000000040E15050E14150E040041
:1046F000000012150A0804142A1200000000040A1F
:104700000A04160909160000000404040000000051
:104710000000000000000804020202020408000079
:10472000000002040808080804020000000000005D
:104730000A041F040A0000000000000004041F0413
:10474000040000000000000000000000040402005B
:104750000000000000001F0000000000000000003A
:104760000000000004040000000010100808040409
:104770000202000000000E1119151311110E0000A5
:104780000000040604040404040E000000000E11DE
:1047900011100804021F000000000E11100C101070
:1047A000110E0000000010181412111F101000004C
:1047B00000001F01010F1010110E000000000E017B
:1047C000010F1111110E000000001F101008080445
:1047D0000404000000000E11110E1111110E000052
:1047E00000000E1111111E10100E0000000000003C
:1047F00004040000040400000000000004040000A1
:104800000404020000000010080402040810000064
:10481000000000001F00001F000000000000000258
:10482000040810080402000000000E111108040022
:104830000404000000000E1119151519011E0000D6
:1048400000000E1111111F111111000000000F11B5
:10485000110F1111110F000000000E1101010101D3
:10486000110E0000000007091111111109070000C5
:1048700000001F01010F0101011F000000001F01C6
:10488000010F01010101000000000E1101011D11C5
:10489000110E000000001111111F11111111000063
:1048A00000000E0404040404040E000000001C08B0
:1048B000080808090906000000001109050303059E
:1048C000091100000000010101010101011F0000A8
:1048D0000000111B1515111111110000000011111C
:1048E000131519111111000000000E1111111111F1
:1048F000110E000000000F1111110F010101000045
:1049000000000E1111111111150E100000000F11F1
:1049100011110F050911000000000E11010E1010F9
:10492000110E000000001F0404040404040400002D
:104930000000111111111111110E000000001111D0
:10494000110A0A0A040400000000111111111515C2
:104950001B110000000011110A04040A11110000CB
:10496000000011110A0A04040404000000001F10D2
:1049700008040201011F000000000E0202020202F0
:10498000020E0000000002020404080810100000DB
:1049900000000E0808080808080E000000040A11AC
:1049A0000000000000000000000000000000000007
:1049B00000001F00020400000000000000000000D2
:1049C000000000000E101E11111E00000000010169
:1049D0000F111111110F0000000000000E11010154
:1049E000110E0000000010101E111111111E000008
:1049F000000000000E111F01011E0000000018043D
:104A00000E04040404040000000000001E11111133
:104A1000111E100E000001010F11111111110000E3
:104A20000004040006040404040E0000001010003A
:104A3000181010101010120C00000202120A0606C4
:104A40000A1200000000060404040404040E00001E
:104A5000000000000F1515151515000000000000DE
:104A60000F11111111110000000000000E111111A1
:104A7000110E0000000000000F111111110F0101B3
:104A8000000000001E111111111E10100000000086
:104A90001D03010101010000000000001E010E10B5
:104AA000100F0000000004040E04040404180000A9
:104AB0000000000011111111111E00000000000083
:104AC00011110A0A0404000000000000111115155C
:104AD000150E000000000000110A04040A11000075
:104AE0000000000011111111111E100E0000000035
:104AF0001F080402011F000000001804040204043F
:104B00000418000000000404040404040404000069
:104B10000000060808100808080600000012150921
:104B2000000000000000000000003F2121212121A1
:104B3000213F000000000000003F000000000000D6
:104B40000404040404040404040404040000000035
:104B5000003C0404040404040000000000070404F2
:104B60000404040404040404043C000000000000E5
:104B7000040404040407000000000000040404040A
:104B8000043C0404040404040404040404070404AA
:104B90000404040400000000003F040404040404AE
:104BA00004040404043F00000000000004040404A2
:104BB000043F0404040404043F3F3F3F3F3F000020
:104BC000000000000000000000003F3F3F3F3F3F6B
:104BD0003F3F3F3F3F3F3F3F3F3F3F3F07070707C5
:104BE00007070707070707073838383838383838CD
:104BF00038383838092409240924092409240924C7
:104C0000152A152A152A152A152A152A1B2D1B2D9A
:104C10001B2D1B2D1B2D1B2D000008141404040438
:104C2000040404040000001E1E1E1E1E00000000DE
:104C3000000000000C1E1E0C0000000000301010D0
:104C4000101111121418000000000000160D0016BB
:104C50000D0000000008040201020408001F00000B
:104C60000002040810080402001F000000000000F9
:104C70000000000000000000040404040404040513
:104C80000502000000040A0400000000000000000B
:104C9000000C1208041E00000000000000000000CC
:104CA00000040400000000000000000404001F00D5
:104CB00004040000000000003F003F00000000006E
:104CC0000A0A0A0A0A0A0A0A0A0A0A0A000000006C
:104CD0003C043C040404040400000A0A0E111F01F1
:104CE000011E000000000000003E0A0A0A0A0A0A2B
:104CF000000000003E023A0A0A0A0A0A0000000008
:104D0000070407040404040400000000000F0A0A5A
:104D10000A0A0A0A000000000F080B0A0A0A0A0A17
:104D2000040404043C043C00000000000A0A0A0ACF
:104D30000A3E0000000000000A0A0A0A3A023E0089
:104D40000000000004040404070407000000000041
:104D50000A0A0A0A0A0F0000000000000A0A0A0AEA
:104D60000B080F0000000000040404043C043C0491
:104D7000040404040A0A0A0A0A3A0A0A0A0A0A0A7B
:104D80000A0A0A0A3A023A0A0A0A0A0A0404040443
:104D900007040704040404040A0A1F01010F0101A7
:104DA000011F00000A0A0A0A0A0B0A0A0A0A0A0A6A
:104DB0000A0A0A0A0B080B0A0A0A0A0A000000007B
:104DC0003F003F040404040400000000003F0A0AFE
:104DD0000A0A0A0A000000003F003B0A0A0A0A0AFF
:104DE000040404043F003F00000000000A0A0A0A0D
:104DF0000A3F0000000000000A0A0A0A3B003F00C8
:104E000000000000040404043F043F0404040404FC
:104E10000A0A0A0A0A3F0A0A0A0A0A0A0A0A0A0ABD
:104E20003B003B0A0A0A0A0A00001E212D25252DF7
:104E3000211E0000000000000915151715090000CB
:104E4000000000000E101E11111E000000000E01D7
:104E50000F111111110F00000000000011111111AC
:104E6000113E2020000000001E111111111E100E15
:104E7000000000000E111F01011E000000000004D0
:104E80000E151515150E0400000000001F0101018C
:104E90000101000000000000110A04040A110000D2
:104EA0000000000011111111111E000000000A0481
:104EB00011111111111E000000000000120A060657
:104EC0000A120000000000001C1212121211000051
:104ED00000000000111B151111110000000000005E
:104EE00011111F1111110000000000000E1111110D
:104EF000110E0000000000001F111111111100001F
:104F0000000000001E11111E14120000000000001D
:104F10000F111111110F0101000000000E1101010C
:104F2000110E0000000000001F040404040400002F
:104F30000000000011111111111E100E00000000E0
:104F400015150E151515000000000709090F1111A0
:104F5000110F00000000000002020E12120E0000ED
:104F600000000000111113151513000000000000CF
:104F70000E110C10110E0000000000001515151583
:104F8000151E0000000000000E111C10110E000084
:104F90000000000015151515153E2020000000002A
:104FA0001111111E101000000000000003020E126B
:104FB000120E00000000091515151715150900003F
:104FC00000000E1111111F111111000000000F013E
:104FD000010F1111110F0000000011111111111119
:104FE000113E202000001C1212121212123F21004A
:104FF00000001F01010F0101011F000000040E1538
:1050000015151515150E040000001F010101010101
:1050100001010000000011110A04040A111100002E
:105020000000111119151311111100000A041111BA
:1050300019151311111100000000110905030305D2
:105040000911000000001C121212121212110000AD
:105050000000111B15151111111100000000111194
:10506000111F11111111000000000E111111111169
:10507000110E000000001F1111111111111100007B
:1050800000001E1111111E141211000000000F115A
:1050900011110F010101000000000E1101010101B9
:1050A000110E000000001F040404040404040000A6
:1050B0000000111111111E10100E00000000151536
:1050C000150E0E151515000000000F11110F11110E
:1050D000110F0000000002020E121212120E000048
:1050E00000001111131515151513000000000E1105
:1050F000100C1010110E00000000151515151515D7
:10510000151E000000000E11101C1010110E0000E2
:105110000000151515151515153E2020000011115C
:1051200011111E1010100000000003020E121212C6
:10513000120E00004650533A20256400232D302BD8
:105140002000686C4C006566674546470030313288
:1051500033343536373839414243444546003031DF
:10516000323334353637383961626364656600003E
:105170001000000000000000017A5200027C0E01C5
:105180001B0C0D001000000018000000A8EDFFFF30
:1051900010000000000000001000000000000000EF
:1051A000017A5200027C0E011B0C0D003800000039
:1051B000180000003CF4FFFF9E00000000510E109C
:1051C00084048503860287015BC7C6C5C40E004CF4
:1051D0000A420B0A420B0E108404850386028701E3
:0851E00051C7C6C5C40E000052
:0851E80038E8FF7F0100000020
:1051F00001FFFFFF100000006C0000200000000015
:105200000024F4001800002000000000000000004E
:1052100068000000D0000000000000000000000056
:10522000000000000000000000000000000000007E
:10523000000000000000000000000000000000006E
:10524000000000000000000000000000000000005E
:04525000000000005A
:04000005080001F9F5
:00000001FF
