:020000040800F2
:1000000000000820C9020008CD020008CF02000845
:10001000E5020008E7020008FD02000800000000F9
:1000200000000000000000000000000013030008B2
:10003000150300080000000017030008BD5C00085D
:100040002D0300082D0300082D0300082D030008D0
:100050002D0300082D0300082D0300082D030008C0
:100060002D0300082D0300082D0300082D030008B0
:100070002D0300082D0300082D0300082D030008A0
:100080002D0300082D0300082D0300082D03000890
:100090002D0300082D0300082D0300082D03000880
:1000A0002D0300082D0300082D0300082D03000870
:1000B0002D0300082D0300082D0300082D03000860
:1000C0002D0300082D0300082D0300082D03000850
:1000D0002D0300082D0300082D0300082D03000840
:1000E0002D0300082D0300082D0300082D03000830
:1000F0002D0300082D0300082D0300082D03000820
:100100002D0300082D0300082D0300082D0300080F
:100110002D0300082D0300082D0300082D030008FF
:10012000155D0008215D0008FD5C0008E55C000825
:100130002D0300082D0300082D0300082D030008DF
:100140002D0300082D0300082D0300082D030008CF
:100150002D0300082D030008D95C00082D030008BA
:100160002D0300082D0300082D0300082D030008AF
:100170002D0300082D0300082D03000800000000D7
:100180002D0300082D0300082D0300082D0300088F
:100190002D0300082D0300082D0300082D0300087F
:1001A0002D0300082D0300082D0300082D0300086F
:1001B000CD5C00082D0300082D0300082D03000866
:1001C0002D0300082D030008000000002D03000887
:1001D0002D0300082D0300082D0300082D0300083F
:1001E0002D0300082D0300082D0300082D0300082F
:1001F000095D00082D03000807B503F095FE284BA4
:100200002848834226D3284A002028498A422ED3F0
:10021000274D0026274C03F099FE01A96846641B70
:1002200003F07AFEA410B4422ADC234D0026234CAE
:10023000641BA410B44228DC214E224CA41BDDE92F
:10024000000105F0BBFD0546A410002C22DC284669
:1002500003F041FED3E900120C33891A53F8044C21
:100260009442CED95558043242F8045CF8E752F86B
:10027000083B52F8044C9C42C8D943F8040BFAE7F7
:1002800055F8043B01369847CDE755F8043B013655
:100290009847CFE7013C56F824309847D5E700BF90
:1002A000300300084803000848030008580300080A
:1002B00058030008580300085803000858030008B2
:1002C000580300085803000814480047FEE71EF0D2
:1002D000040F0CBFEFF30880EFF309807146104A5A
:1002E0001047FEE7FEE71EF0040F0CBFEFF3088097
:1002F000EFF3098071460B4A1047FEE71EF0040F2A
:100300000CBFEFF30880EFF309807146064A1047EF
:10031000FEE7FEE7FEE7FEE770470000F901000890
:0E032000E3020008FB02000811030008FEE7DC
:1003300094A30008000000206400002094A300089B
:1003400000000010000000106400002000C1022026
:08035000000000100000001085
:1003600038B50E4B05461A784FF47A73B3FBF2F3A7
:100370000B4A1068B0FBF3F000F0B4F8044658B92B
:100380000F2D09D8024629464FF0FF3000F058F8EB
:10039000044B20461D6038BD0120FCE70000002012
:1003A000100000200400002008B5094B03201A6843
:1003B00042F400721A601A6842F480721A6000F007
:1003C0002DF80F20FFF7CCFF05F028FE002008BD18
:1003D000003C0240034A044B11681B780B44136035
:1003E000704700BF6400002000000020014B186827
:1003F000704700BF6400002038B50446FFF7F6FFE1
:100400000546631C1EBF044B1B78E418FFF7EEFF84
:10041000431BA342FAD338BD000000200749030262
:10042000CA6803F4E06322F4E0621204120C13437E
:1004300043F0BF6343F40033CB60704700ED00E04E
:10044000164B30B5DC68C4F30224C4F10703251D44
:10045000042B28BF0423062D4FF0FF358CBF033C2F
:10046000002405FA03F3002805FA04F521EA030342
:1004700022EA050203FA04F343EA02034FEA0313F4
:10048000DBB206DB00F1604000F5614080F800332C
:1004900030BD00F00F00024A1354F9E700ED00E010
:1004A00014ED00E0002807DB4109012300F01F00E4
:1004B000024A834042F82130704700BF00E100E06B
:1004C00000280CDB4309012200F01F0004492033FF
:1004D000824041F82320BFF34F8FBFF36F8F7047E7
:1004E00000E100E00138B0F1807F0BD24FF0E02353
:1004F000054AF0215861002082F8231007229861F4
:100500001A6170470120704700ED00E04FF0E023D2
:1005100004281A690CBF42F0040222F004021A6196
:1005200070470000036802461820D9B21039B1FBA9
:10053000F0F010B5054C5F29205CD06523F47F7086
:1005400020F0030088BF0430906510BD508E000875
:1005500070B50446FFF74AFF0546002C60D0002323
:10056000226884F83430022384F83530136823F08D
:100570000103136022681368D8072ED41368324829
:10058000A1691840D4E901352B43E5682B4325695F
:100590002B4365692B43E5690B432B43256A2B43AA
:1005A0000343606A042802BFD4E90B5635432B434A
:1005B00004281360536923F0070343EA000335D18D
:1005C000A06AE56A03438DB391B9012820D030F0C9
:1005D00002012BD1E90129D51DE0FFF707FF401BE0
:1005E0000528C7D920230320636584F8350070BD32
:1005F000B1F5005F16D1032818D801A151F820F0F9
:1006000017060008D505000817060008110600089F
:10061000B5F1C07F0AD140236365012384F83530EA
:100620000120E4E70228F6D90328D3D053612046FD
:10063000FFF778FFE26D3F239340836000200123A2
:10064000606584F83530D2E73F8010E038B5054664
:1006500020B390F83530022BDCB21DD003680024A3
:100660001A6822F001021A6021221C605C609C6002
:10067000DC601C615A61FFF755FFEA6D3F23934030
:1006800083606C6585F8344085F83540C5E90F44D2
:10069000C5E91144C5E91344204638BD0124FBE7F0
:1006A00070B590F83440866D012C34D0012480F868
:1006B000344090F83540012C4FF0000429D1022538
:1006C00080F8355044650468256825F48025256048
:1006D00063608368402B19D1A260E160C26D3F2343
:1006E0009340B360236843F016032360636943F0CB
:1006F00080036361036C1BB1236843F0080323602C
:100700002368002043F00103236070BDA160E26014
:10071000E4E780F834400220F7E790F83530022B08
:1007200003D080234365012070470268052380F8C9
:1007300035300020136823F0010313607047000078
:100740000023F7B5019308225B4B0446856D1F68B3
:10075000C36D2E689A4032420CD001680868400789
:1007600008D5086820F004000860AA60626D42F0B5
:100770000102626501229A40324208D0216849692B
:10078000090604D5AA60626D42F002026265042285
:100790009A40324208D021680968880704D5AA60C7
:1007A000626D42F00402626510229A40324210D01B
:1007B0002368196809070CD5AA601A68500337D551
:1007C0001B68190301D4236C00E0A36C0BB1204615
:1007D0009847E16D20228A4032423AD02368186857
:1007E000C60636D5AA6094F83520052A1A6827D19E
:1007F00022F016021A605A6922F080025A61226CB5
:100800000AB9A26C1AB11A6822F008021A603F23D2
:100810008B40AB60002384F83430012384F83530FA
:10082000236D002B45D0204603B0BDE8F0401847AB
:100830001A68D205C7D41A6822F008021A60C2E703
:10084000500327D51B68190331D4636C0BB12046C4
:100850009847636D6BB3636DDA0719D54FF4165380
:100860002268B7FBF3F7052384F83530136823F0CB
:1008700001031360019B0133BB42019302D813684B
:10088000DB07F7D4002384F83430012384F83530B3
:10089000E36CC6E71A6812F4807208D1196821F077
:1008A00010011960012384F8342084F83530E36B9B
:1008B000CCE703B0F0BD00BF10000020406D7047D2
:1008C0002DE9F74F0023DFF8B0814FF00F09684A98
:1008D00001240E689C4004EA0605B44340F0AF8052
:1008E0004C684FEA430C032624F0100E06FA0CF66F
:1008F0000EF1FF37F643012F10D8876807EA060A82
:10090000CF6807FA0CF747EA0A078760476827EAC3
:10091000050A27099F4047EA0A074760C768BEF1F2
:10092000020F07EA060A8F6807FA0CF747EA0A0778
:10093000C76014D14FEAD30E03F0070A00EB8E0E06
:100940004FEA8A0ADEF8207009FA0AFB27EA0B0B45
:100950000F6907FA0AF747EA0B07CEF82070076815
:10096000374004F0030606FA0CF63E430660E60044
:1009700065D5D8F8446023F0030703F0030C46F470
:10098000804607F180474FEA8C0CC8F8446007F5B1
:100990009C37D8F8446009FA0CFE06F480460196AC
:1009A000019EBE6826EA0E0E324EB0424ED006F5CB
:1009B0008066B0424CD006F58066B0424AD006F55B
:1009C0008066B04248D006F58066B04246D006F553
:1009D0008066B04244D006F58066B04242D006F54B
:1009E0008066B04240D006F58066B0423ED006F543
:1009F0008066B04214BF0A26092606FA0CF614F4E3
:100A0000803F46EA0E06BE606FEA050716680CBF17
:100A10003E402E4314F4003F166056680CBF3E4023
:100A20002E4314F4801F566096680CBF3E402E4340
:100A3000A4029660D66854BF3E402E43D660013370
:100A4000102B7FF445AF03B0BDE8F08F0026D4E74C
:100A50000126D2E70226D0E70326CEE70426CCE71C
:100A60000526CAE70626C8E70726C6E70826C4E71C
:100A7000003C014000000240003802402DE9F04FE8
:100A800000224FF0010A4FF00F084FF0030B464CC5
:100A90000AFA02FC3CEA01030CEA01066CD122F0DE
:100AA000030502F0030705F18045BF0005F59C35FD
:100AB00008FA07F9AB6809EA030E3C4B984260D08C
:100AC00003F5806398425ED003F5806398425CD062
:100AD00003F5806398425AD003F58063984258D05A
:100AE00003F58063984256D003F58063984254D052
:100AF00003F58063984252D003F58063984250D04A
:100B000003F58063984214BF0A230923BB40734551
:100B100013D1236823EA06032360636823EA0603EC
:100B20006360A36823EA0603A360E36823EA06037D
:100B3000E360AB6823EA0903AB6053000568D6089D
:100B40000BFA03F300EB860625EA0305056002F0C5
:100B50000705376AAD0008FA05F527EA0507376289
:100B6000C56825EA0305C560456825EA0C054560AA
:100B7000856825EA030383600132102A88D1BDE825
:100B8000F08F0023C2E70123C0E70223BEE703235F
:100B9000BCE70423BAE70523B8E70623B6E7072333
:100BA000B4E70823B2E700BF003C01400000024068
:100BB0000369194214BF0120002070470AB1816106
:100BC00070470904FBE7F0B50124077800254E19AA
:100BD0003D444F19BE4212D1102C08D100240126E9
:100BE0004C551D6023460D78C85CD8B9F0BD075D33
:100BF00001347E19B6F5807FE9D90120F6E706F8C1
:100C0000014BE7E742F823400133C85CDC19A842F6
:100C1000F8D01F2DF1D806FA05F0A042EDD96400F6
:100C20000135E1E7E71AF0E7F0B5ADF2145D0D46E6
:100C3000044601AB43AA02A9FFF7C5FF40B9019ED4
:100C400013460A4604F10F010F363444A14202D183
:100C50000DF2145DF0BD11F8016F0B2E0AD805EBF3
:100C6000860753F804CBC7F80CC012F8017B013F8C
:100C7000AF55EBE70120EBE703460846F0B51C68EB
:100C800091B004F5F8639A4225D104F5FB6401A9FB
:100C9000FFF7CAFFE8B901AA6FF0F023A4F1180624
:100CA000154623606360D17A083D95F84030023ADA
:100CB000090295F83C7001F470611943137B1B0223
:100CC00003F470633B4343EA014344F8043DB442F8
:100CD000E9D111B0F0BD04F5FC639A4202D104F5EC
:100CE000FF64D4E70120F4E72DE9F0410468ADF694
:100CF000380D0E4604F5A0639A4249D104F24464CB
:100D00006B460DF2344201A93046FFF75CFF002824
:100D10003AD1009B0D4606F10F0C17460F334FF0EA
:100D20000A0EF11842AE614539D16FF0F02342A9A5
:100D3000A4F5A27623600D466360A36003F1D1336E
:100D400003F12E23E36003F10213236103F1021385
:100D5000636103F10213A36191F8A120083D95F8A6
:100D600030330239120295F82C7302F470621A4380
:100D700091F8A2301B0203F470633B4343EA024341
:100D800044F8043DB442E7D10DF6380DBDE8F081DA
:100D900004F5CC639A420FD104F2A474B0E71CF8B6
:100DA000013F5BB1F02B15D01A0903F00F03013B93
:100DB0000EFB0233A12B02D90120E5E7A02306EBAD
:100DC000830257F8048BC2F8A48015F8012B013A6E
:100DD000F254A8E7A123F2E7436D23F4405343659F
:100DE000426D036802F00302022A5A680CBF42F007
:100DF000080222F008025A601A6822F001021A6002
:100E00001A6B22F07E021A631A6B22F4C0521A6324
:100E10001A6B42F400521A631A6B42F480421A634E
:100E20009A6B42F060029A631A6842F001021A60FB
:100E3000426D02F00C02082A04D11A6B42F06E02D5
:100E40001A637047426D02F00C020C2AF9D11A6B3A
:100E500042F06002F4E70000F8B5836A0446032B11
:100E600027D9C16A032924D9426D23F003031A4DFF
:100E700021F0030122F40042184E194F4265026826
:100E8000106B403220F4C05042F8100C206BC56348
:100E9000656BC664EE64134EEF632E65A3629B0818
:100EA000E162A169FFF7FCFB28B1236D43F0040365
:100EB00023650120F8BDE36A21689B08E26944319B
:100EC000606BFFF7EDFB0028EFD12268136B43F452
:100ED000C0531363EEE700BF411400082913000854
:100EE0002D1800081D180008F8B50546002800F068
:100EF000F68090F84D3003F0FF021BB980F84C20CB
:100F000003F064FB2C680223884A85F84D3004F511
:100F10005B71236B04F5577043F00103236323686F
:100F200023F001032360236B23F07E032363236BF1
:100F300023F4C0532363236B43F400532363236BD5
:100F400043F480432363A36B43F06003A363784BB4
:100F5000EB63784B2B640023C5E91133937B043A90
:100F6000D67C1B0443EA0663167C3343567C43EA73
:100F7000062341F804398142F0D16F4B04F56271C8
:100F80006E4A04F55E77C4F87833A3F10433104653
:100F90000E46C4F87433A3F10433C4F87033837B72
:100FA000043890F813C01B0443EA0C6390F810C097
:100FB00043EA0C0390F811C043EA0C2346F80439C5
:100FC000BE42ECD1D4F82C3404F585606FF30F03E6
:100FD00043F47A4343F0F903C4F82C3492F8AE306A
:100FE000043A92F8B3601B0443EA066392F8B060D7
:100FF000334392F8B16043EA062340F80439814252
:10100000ECD1D4F82C3404F59F614D4A04F58B6083
:101010009BB243F04073C4F82C34D4F83C341340F2
:10102000C4F83C340123C4F838344FF00133C4F819
:101030003434C4F83034D4F83C349BB243F0807379
:10104000C4F83C34D4F84834134043F4306343F0DC
:101050000A03C4F848343B4BC4F84434A3F10433C6
:10106000C4F84034D4F848349BB243F00073C4F859
:101070004834D4F858341340334A43F4EE4343F031
:101080000203C4F85834314BC4F85434304BC4F81C
:101090005034304BC4F84C34D4F858349BB243F03D
:1010A0008073C4F8583492F8B030043A92F8B560BE
:1010B0001B0443EA066392F8B260334392F8B360CC
:1010C00043EA062341F804398142ECD104F5A062D9
:1010D0001A492846FFF708FE18B101232B650120A5
:1010E000F8BD04F5CC6218492846FFF7FDFD00283D
:1010F000F3D104F5F8620D492846FFF7BDFD00283D
:10110000EBD104F5FC6214492846FFF7B5FD002831
:10111000E3D1636843F480736360012328626862EB
:1011200085F84D3028656865DAE700BF98900008BB
:10113000988E0008588E000808090A0BCA8F00080C
:101140000000FFFF06070809188F000804040001CB
:1011500003040705010204047C9000082DE9F04F08
:1011600000286FD000296DD00468636803F0030382
:10117000022B47D0636813F0030305D0636803F0C4
:101180000303032B5ED1302362680B6023F020033E
:10119000120C102B8A60E2684FEA1242CA603CD1FE
:1011A00025696369C5F30315A2691B09012D4FEA7F
:1011B000121229D1134313F00F0F0CBF0123002388
:1011C0005B004B6000235034DFF87CC01D464FF0BD
:1011D000640E41F2883854F8059005EB0C070026A0
:1011E00029FA06F2D2B2012A19D16433083601373E
:1011F000202EF5D10435402DEDD19B0900200B6147
:10120000BDE8F08F1023BFE7032D06D1134313F081
:101210000F0F0CBF01230023D3E70023D1E70EFB00
:1012200002FB97F800A0C26B12F80AA0BBFBFAF20F
:10123000642A8BBFB8FBF2F2C2F1C8029B1803EB21
:101240005203D3E70120DBE7D88E000838B5044607
:1012500048B341B33BB390F84C50012D28D0012541
:1012600080F84C5090F84D50012D1ED1042582621B
:1012700080F84D50456D25F00F054565456D45F0ED
:101280000E05C0E9061345650025049B0562C3628F
:101290004562FFF7A1FDFFF7DFFD28B1062384F8C3
:1012A0004C5084F84D30012038BD002380F84C307C
:1012B0000220F9E7436D03F00C030C2B17D111F05A
:1012C000010305D0436D43F4805343654FF400633D
:1012D000890705D5426D43F4805342F400524265BC
:1012E00001680A6B22EA03030B6300207047436D19
:1012F00003F00C03082BF8D111F0010304D0436D67
:1013000043F48053436506238A07E9D5426D43F0D1
:10131000280342F400524265E2E78161826270472D
:10132000C161C2627047704710B5846BFFF7C6FA9F
:10133000022816D0236820461A6822F001021A609B
:101340001A6B22F07E021A631A6B22F4C0521A63DF
:10135000012384F84D30236D43F00403236505F029
:10136000B9FA10BD826AF8B504460D4622B90121CA
:10137000FFF7A0FF002204E0036A9A42036A24D91F
:10138000D21A636D13F480531ED1EAB1B5EB920FFC
:10139000A0694FEA9206216826D8276A0133C61948
:1013A000C75D9D42B27896F801C04FEA0242F678D6
:1013B00042EA0C2242EA070242EA06620A64226A10
:1013C00002F104022262E8D1F8BD9A42D2D1016A48
:1013D00005F028FAA36A042B84BF23F00303A36259
:1013E0000023A26A2362CCE7032A17D9276A0133B4
:1013F000C519C75D9E42AA7895F801C04FEA02421E
:10140000ED7842EA0C2242EA070242EA05620A64E7
:10141000226A02F104022262E8D8D5E71D46266A54
:10142000EF000135865DAA4206FA07F643EA060395
:10143000266A06F101062662F1D10B64C4E70000BA
:1014400010B5846B23681A6B22F07E021A63626DFA
:1014500022F4FF4222F073021204120C0C2A2CD147
:101460001A6B22F400621A63036820461B4A5B6809
:1014700002EA8302A36A9B1A2362216A05F0D2F969
:10148000A36A032B1AD923F00303A362636D2268B6
:10149000DB041CD4A36AD3B19B084032A169206B42
:1014A000FFF7FEF870B1236D204643F00403236577
:1014B000062384F84D3005F00DFA10BD002BE5D061
:1014C0000423E2E72268136B43F40063136322688A
:1014D000136B43F060031363EFE700BFFCFF0300EF
:1014E000426AF8B502EB8102C36A044693422AD3EA
:1014F000002223680132E5695B6C9142606A2B54DB
:10150000656AE06928444FEA13254570656AE06919
:1015100028444FEA13454FEA13638570656AE06912
:101520002844C370636A03F104036362E1D1636A10
:10153000E26A9A4206D1626AE169204605F086F9BC
:1015400000236362F8BD426A9342FBD9426A0020DD
:101550009B1A9A089042E16905D1E76A636A9F4243
:1015600019D1626AE9E7236801305B6C656A4B5503
:10157000656AE16929441D0A4D70656AE16929447B
:101580001D0C1B0E8D70656AE1692944CB70636A7E
:1015900004336362DEE7656A00222368781B5E6CB1
:1015A0008242E16914D1626A204605F04FF90023B6
:1015B00063622B1DDB1B032BC4D8DA00616AE06970
:1015C000013326FA02F24254626A01326262F2E7A1
:1015D00002F00303D4F824C00132DB0026FA03F33F
:1015E00001F80C30636A01336362D9E7436D03F09D
:1015F0000303022B10B5044614D103685B6B5B0632
:1016000010D5011DFFF7AAFD00232046636105F0F8
:10161000BDF823681A6B22F040021A639A6B42F0FD
:1016200040029A63636DD90407D423685A6B92070A
:1016300044D504212046FFF795FE636D990407D435
:1016400023685A6B12073ED504212046FFF748FF56
:1016500023685A6B02F03802202A3CD11A6822F023
:1016600001021A60626D02F00C02082A03D11A6BA3
:1016700022F07E021A639A6B42F060029A63636AF8
:1016800033B1626A2046E16905F0E0F80023636245
:10169000636D2046626D03F0030302F48242022B65
:1016A00062654FF0000284F84C204FF0010284F88C
:1016B0004D200DD105F0EAF8012010BD5B6B5807F5
:1016C000BBD50121B6E75B6BDB06C1D50121BCE7C9
:1016D000FFF729FEF0E70020EFE770B5044610267B
:1016E000656D236815F4005522D15A6BD0061FD5BD
:1016F0005B6CE169626A8B54616AE2690A44190AA7
:101700005170616AE2690A44190C1B0E9170616A9A
:10171000E2690A44D370636A04336362E36A626A0B
:101720009A4205D1626A2046E16905F08FF8656248
:10173000013ED5D12368626D596BC90601D592046B
:1017400020D41A6822F001021A60636A33B1626A17
:101750002046E16905F07AF800236362636D204654
:10176000626D03F0030302F48242022B62654FF0C4
:10177000000284F84C204FF0010284F84D2002D181
:1017800005F084F870BDFFF7CEFDFBE738B5436B7D
:101790000446C26A1B6859681F4B03EA8103D31AC7
:1017A0004362436A9A4205D1426AC16905F04EF824
:1017B0000023636223685D6B15F0100524D1636A12
:1017C0002BB1626A2046E16905F040F86562226843
:1017D0002046136823F001031360636D626D03F00C
:1017E000030302F48242022B62654FF0000284F888
:1017F0004C204FF0010284F84D2002D105F046F84C
:1018000038BDFFF790FDFBE7636D9B04F8D42046DD
:10181000BDE83840FFF761BFFCFF0300806B436DFC
:101820001B0401D5FFF7B2BF7047000010B5846BF1
:1018300023681A6B22F07E021A63626D22F4FF4263
:1018400022F073021204120C0C2A29D15A6B920650
:101850002CD41A6BE16922F480521A630368204683
:10186000154A5B6802EA8302E36A9B1A6362626A52
:1018700004F0ECFF636D9B0418D4E36A21689B08B5
:10188000E2694431606BFEF70BFF50B1236D2046D7
:1018900043F004032365062384F84D3005F01AF85D
:1018A00010BD2268136B43F4805313632268136BDB
:1018B00043F060031363F3E7FCFF030010B590F8F7
:1018C0004D300446033B012B54D8436D03F00C0309
:1018D000082B03D1BDE81040FFF788BE436D03F02D
:1018E0000C030C2B46D1436D03F00303022B14D1E0
:1018F00003685B6B590610D5011DFFF72FFC002311
:101900002046636104F042FF23681A6B22F0400214
:101910001A639A6B42F040029A6323685A6B9206EC
:1019200028D51A6B206B22F4C0521A63626D42F400
:10193000004262651A6822F001021A601A6B22F0F6
:101940007E021A639A6B42F060029A6390F8353017
:10195000022B01D1FEF7E1FE606B90F83530022BCF
:1019600003D1BDE81040FEF7D8BE2046BDE81040C8
:10197000FFF70CBF10BD0000194B37B51A6C194C9E
:1019800042F080521A641B6C03F080530193019B58
:10199000236843F480332360FEF728FD054663681F
:1019A000DA030CD523680F4D43F400332360FEF7B0
:1019B0001DFD04466B689B030AD5002006E0FEF778
:1019C00015FD401BB0F57A7FE9D9032003B030BD87
:1019D000FEF70CFD001BB0F57A7FEBD9F5E700BFF1
:1019E0000038024000700040836B00229A631A683E
:1019F000136843F4003313607047836B0022DA628C
:101A00001A68136843F40033136070472DE9F047F8
:101A10004F6A37B1B2F1406F03D08B6A0468013B63
:101A20002361D1F818A0D1E907C5BAF1000F50D051
:101A30004E6947EA0A0A0468B6040B68D1F834E034
:101A40004AEA020AD1E90B983DB38F684AEA0500D9
:101A5000E7610F69BCF1000F13D043EA0C03CD68B6
:101A600043EA090343EA080343EA0E033B432B43DB
:101A700033430343B2F1406F63610CD04B68A36101
:101A800009E043EA090343EA080343EA0E033B4340
:101A9000334303436361BDE8F087BCF1000F0DD011
:101AA00043EA0C03C86843EA090343EA080343EA2C
:101AB0000E030343334343EA0A03DBE743EA090324
:101AC00043EA080343EA0E0040EA060343EA0A0336
:101AD000E0E70DB38B683D4304684E691543E3614D
:101AE000B6040B694F6BD1E90B8EBCF1000F0BD024
:101AF00043EA0C03C86843EA080343EA0E033B4386
:101B0000034333432B43B5E743EA080343EA0E0399
:101B10003B4333432B43BDE7BCF1000F1AD047EAE8
:101B20000C03CC6A0068B2F1406F43EA020343EA57
:101B300004030C6B43EA04034C6B43EA0403CC68D4
:101B400043EA04034C6943EA84434361A3D04B68EE
:101B50008361A0E7002F9ED0CB6A00683B4313430C
:101B60000A6B13434A6B13434A6943EA8243436156
:101B700091E72DE9F041DDF8188004460E46154640
:101B80001F4622689368334214BF01230023AB42EF
:101B900001D100200FE0B8F1FF3FF3D0FEF726FCA3
:101BA000C01B404509D90423012084F84130636CEF
:101BB00043F001036364BDE8F081B8F1000FE0D1A8
:101BC000F1E7000037B50446FEF710FC0546002C8F
:101BD00046D094F8413003F0FF023BB9204684F828
:101BE000402002F06DFA41F28833A3642168204658
:101BF000A3680A68013B22F4F85242EA0322A36C6C
:101C00000A600022009320212B46FFF7B2FF10BB91
:101C10002268E569E36811682B43256A21F07F415A
:101C20002B43656821F0D00143EA05630B43136041
:101C30005568D4E905310B43216943EA0143094959
:101C400029400B435360136843F0010313600123E1
:101C5000606484F84130002384F8403003B030BD24
:101C60000120FBE7FEF8E0FF10B5044668B102680A
:101C7000136823F00103136002F0B8FA00206064D7
:101C800084F8410084F8400010BD0120FCE7F7B55E
:101C900004460F46FEF7AAFB034694F84020012AAB
:101CA00035D00122002684F8402094F84120012AF2
:101CB0002BD1022266642021204684F84120A26CA8
:101CC00000923246FFF755FF0546D8B97E6A16B92D
:101CD00023680322DA60002239462046FFF796FE89
:101CE0004EB9226884F84060136843F440331360AF
:101CF000284603B0F0BD012384F84130002384F866
:101D00004030F5E784F84060F2E784F8406002254F
:101D1000EEE70000026870B51369044690F84000D1
:101D2000012872D0012084F8400094F84100012875
:101D30004FF0000067D1606400295DD0E06B013393
:101D40004569002D31D1E36212230025203284F849
:101D500041300323066842F8143CE36A6162A362DF
:101D600052F80C3C23F0406342F80C3C284B0565CC
:101D7000C363284B0364284BC364402383603368E8
:101D800023F0C00343F040033360A36AFEF788FCEE
:101D900040BB236884F840001A6842F480321A601D
:101DA0001A6842F004021A600FE0B5F5006F0FD117
:101DB000DE0702D4A568ED0708D5636C43F008037D
:101DC0006364002384F84030012070BD5B08BAE7EB
:101DD000B5F5805FB8D19E07EFD1A568AD07ECD10E
:101DE0009B08B0E7636C43F004036364012384F849
:101DF000413084F84050E7E7636C43F008036364C4
:101E000084F84010E0E784F840000220DDE700BFDE
:101E1000FB190008731F0008CD2100080A4601685D
:101E2000F8B58D6904460B6990F84000012870D020
:101E3000012084F8400094F8410001284FF0000090
:101E400065D16064002A5BD0E06B01334669002EE7
:101E50002FD1A36322230026203184F841300323AD
:101E6000076841F8143CA36B226363632A4B066541
:101E7000C3632A4B86600364294BC3643B6823F029
:101E8000C0033B60636BFEF70BFC78BB23685A69A9
:101E900022F0406242F080625A619D6184F8400005
:101EA0001A6842F480321A601A6842F004021A601A
:101EB0000FE0B6F5006F0FD1DF0702D4A668F60772
:101EC00008D5636C43F008036364002384F8403052
:101ED0000120F8BD5B08BCE7B6F5805FBAD19F076B
:101EE000EFD1A668B607ECD19B08B2E7636C43F06C
:101EF00004036364012384F8413084F84060E7E719
:101F0000636C43F00803636484F84020E0E784F8DE
:101F100040000220DDE700BFE9190008671F000844
:101F2000CD210008704708B5806B00238363C3622E
:101F300090F84130082B0BD103680222DA601A684E
:101F400042F400321A601A6842F002021A6008BDB8
:101F5000012380F84130FFF7E5FFF8E7704770474D
:101F6000704770477047806B08B5FFF7FBFF08BDEF
:101F70007047806B08B5FFF7FBFF08BD70477047DF
:101F80007047000038B50368044699681A68480726
:101F900034D5550332D594F84120122A14D1226841
:101FA0009168480703D42046FFF7E8FF38BDE16A8F
:101FB000F9B1626A127883F82020626A01326262A3
:101FC000E26A013AE262EAE794F84120222AEAD181
:101FD000226891684907E6D5A16B51B193F82010AA
:101FE000226B1170226B01322263A26B013AA26351
:101FF000EEE7136823F480231360D4E78D0768D5D8
:10200000900366D50222DA601A6822F4E0221A6090
:1020100094F84120122A13D11A68510709D51A6879
:1020200022F004021A60E36B1A68136823F00103BC
:1020300013600123204684F84130FFF792FFB5E793
:1020400094F84120222A26D11A6852071DD51A6811
:1020500022F004021A60E36B1A68136823F001038C
:1020600013600123204684F84130FFF779FF9DE794
:10207000A26B002AF5D093F82010226B1170226B0E
:1020800001322263A26B013AA2632268926812F4C1
:102090007C5FEDD1E5E794F84120022A06D10123C7
:1020A000204684F84130FFF75AFF7FE794F841203B
:1020B000082A7FF47BAF5A69204622F040625A61B9
:1020C000012384F84130636C002B3AD1FFF746FFBF
:1020D0006CE70D0711D510030FD50822DA601A68D6
:1020E000550206D51A6822F410221A60012384F8DA
:1020F00041302046FFF743FF58E7C80724D5D503F2
:1021000022D50125DD601A6822F470221A60626C03
:1021100042F0020262641A6850070FD51A68E06B39
:1021200022F004021A600E4B0365FEF7F6FA00284F
:102130003FF43CAF636C43F004036364204684F8CF
:102140004150FFF7EFFE31E7C9067FF52FAFD2020E
:102150007FF52CAF10222046DA60FFF711FF25E74C
:10216000271F000810B590F84130044699071DD587
:10217000002380F84030082380F8413003681A6853
:1021800022F4F8121A601A68520711D51A68C06B47
:1021900022F004021A600C4B0365FEF7BEFA28B168
:1021A0000123204684F84130FFF7D8FE002010BDFF
:1021B0000222DA601A6842F400321A601A6842F0A9
:1021C00002021A60F2E700BF271F000810B5846BF7
:1021D000FEF774FB022810D0002322682046A36378
:1021E000E362636C43F004036364136823F0040345
:1021F000BDE810401360FFF7B5BF10BD2DE9F341F6
:10220000044618B9012002B0BDE8F0810368DE077A
:1022100010D423689D075ED42368190700F1A380BA
:1022200023685A0700F1C480A269002A40F02E8179
:102230000020E8E7934B9A6802F00C02042A07D0CA
:102240009A6802F00C02082A0AD15B68590207D585
:102250008C4B1B689A03DCD56368002BD9D1D1E77E
:102260006368884DB3F5803F11D12B6843F4803308
:102270002B60FEF7BBF8834E054633689B03C8D43A
:10228000FEF7B4F8401B6428F7D90320BBE79BB9DD
:102290002B6823F480332B602B6823F480232B607E
:1022A000FEF7A4F806462B689F03B2D5FEF79EF80A
:1022B000801B6428F7D9E8E7B3F5A02F2B6803D17A
:1022C00043F480232B60D0E723F480332B602B680A
:1022D00023F48023CCE76B4B9A6812F00C0F07D0E5
:1022E0009A6802F00C02082A11D15B685D020ED4D4
:1022F000644A1368990702D5E368012B82D11368F9
:10230000216923F0F80343EAC103136084E7E3681B
:102310005C4DBBB12B6843F001032B60FEF766F800
:1023200006462B689B0707D52B68226923F0F80324
:1023300043EAC2032B606FE7FEF758F8801B0228C0
:10234000EFD9A2E72B6823F001032B60FEF74EF8CC
:1023500006462B689F077FF55FAFFEF747F8801BA7
:102360000228F6D991E76369464D83B16B6F43F05C
:1023700001036B67FEF73AF806466B6F9B073FF564
:102380004FAFFEF733F8801B0228F6D97DE76B6F5D
:1023900023F001036B67FEF729F806466B6F9F0772
:1023A0007FF53EAFFEF722F8801B0228F6D96CE7D6
:1023B000344B1A6CD50027D41A6C012742F0805296
:1023C0001A641B6C03F080530193019B2E4D2B6804
:1023D000D8051BD5A3682B4D012B27D12B6F43F0BC
:1023E00001032B6741F28838FEF700F8254E0546B9
:1023F000336F9A073FD5002F3FF416AF214A136C75
:1024000023F0805313640FE70027DFE72B6843F4C2
:1024100080732B60FDF7EAFF06462B68D905D9D4F7
:10242000FDF7E4FF801B6428F7D92EE7ABB92B6FCB
:1024300041F2883823F001032B672B6F23F004034C
:102440002B67FDF7D3FF06462B6F9B07D3D5FDF710
:10245000CDFF801B4045F7D917E7052B2B6F03D124
:1024600043F004032B67B9E723F001032B672B6FBD
:1024700023F00403B5E7FDF7B9FF401B4045B7D98A
:1024800003E700BF00380240007000403C4DAB68DD
:1024900003F00C03082B42D02B68022A23F0807330
:1024A0002B602FD1FDF7A2FF06462B68990123D49C
:1024B000D4E907321343626A43EA8213E26A43EAC9
:1024C0000263226B43EA0273A26A5208013A43EAAA
:1024D00002436B602B6843F080732B60FDF786FF2F
:1024E000274D04462B689A013FF5A2AEFDF77EFF0B
:1024F000001B0228F6D9C8E6FDF778FF801B0228EA
:10250000D3D9C2E6FDF772FF04462B689B017FF525
:102510008FAEFDF76BFF001B0228F6D9B5E6012A46
:102520006B683FF46FAE03F48002E1698A427FF486
:1025300069AE03F03F02216A8A427FF463AE47F638
:10254000C072616A1A40B2EB811F7FF45BAEA26A6F
:1025500003F440315208013AB1EB024F7FF452AE1E
:1025600003F07062E16AB2EB016F7FF44BAE226B55
:1025700003F0E043B3EB027F14BF0120002042E6EA
:1025800000380240134908B58B6803F00C03042B94
:102590001BD0082B1BD14A684B68496802F03F02E8
:1025A00013F48003C1F388111ABF0B4800230B48B2
:1025B000A1FB000105F0CEFD064B5B68C3F30143B0
:1025C00001335B00B0FBF3F008BD0348FCE70348B0
:1025D000FAE700BF0038024000127A000024F4003D
:1025E0002DE9F0410D46044610B90120BDE8F08107
:1025F000454A136803F00F038B4228D321688F07E5
:1026000030D4C80743D4404A136803F00F03AB42E9
:1026100066D8226851076FD4130707D53B4A216952
:10262000936823F4604343EAC1039360FFF7AAFF72
:10263000364B374A9B68C3F30313D35CD840354B02
:102640001860354B1868FDF78BFE0020CEE7136845
:1026500023F00F030B431360136803F00F038B4247
:10266000C3D1CBE711F0040F284B03D09A6842F492
:10267000E0529A600E0703D59A6842F460429A606D
:102680009A68A06822F0F00202439A60B9E7616894
:102690001E4B01291A681BD112F4003FA5D09A687D
:1026A00041F28838194F22F003020A439A60FDF77D
:1026B0009DFE0646BB68626803F00C03B3EB820F15
:1026C000A1D0FDF793FE801B4045F3D903208DE791
:1026D000022902D112F0007FE0E712F0020FDDE7DD
:1026E000136823F00F032B431360136803F00F03E9
:1026F000AB427FF47AAF8CE70449E0688B6823F43F
:10270000E05303438B6087E7003C024000380240FF
:10271000B49000081000002004000020014B18684D
:10272000704700BF100000202DE9F041054688B039
:102730000E46FDF75BFE0023074608212868CDE919
:10274000003301F0B8F9044640BB296D286809043C
:1027500001F0C6FA044608BB4FF0FF3008234FF0E3
:10276000300C02A90694CDE9020302232868CDE9C2
:1027700004C30123079301F08BF9286801F0FCFAE8
:10278000044658B940F22A482868436B13EA080FF8
:10279000436B07D01A0717D508248463204608B076
:1027A000BDE8F081990207D501F04AF908AB03EBC7
:1027B0008403013443F8200CFDF718FEC01B0130E0
:1027C000E2D14FF00044E9E7436B9B0701D50224B7
:1027D000E3E7446B14F0200401D02024DDE740F24D
:1027E0003A538363019B1BBA3360009B1BBA73602F
:1027F000D4E700002DE9F04F0D4687B00446164699
:102800009946DDF84080FDF7F1FD07463DB9A36B21
:1028100043F00063A363012007B0BDE8F08F94F894
:102820003430012B40F0E78006EB0903E16D002214
:102830008B42A26303D9A36B43F00073EAE703233F
:1028400020684FF4007184F83430636CC262012B4D
:1028500018BF760201F02FF948B12368684A9A63DD
:10286000A36B0343A363012384F83430D3E74FF011
:10287000FF334FF0010A4FF0020B049000934FEA30
:1028800049236946206801939023CDF814A0CDE92F
:10289000023B01F0FDF8D14512D931462068C4F859
:1028A00030B001F03AF9236888B1554A9A63A36BB6
:1028B0000343A363012384F8343000232363AAE78E
:1028C00031462068C4F830A001F00EF9EBE7019E14
:1028D0002068436B13F4957F436B0CD0DB0538D530
:1028E000B9F1010F35D9636C032B32D001F060F9D7
:1028F00078B32368D9E71A0418D5BEB105F1040AE4
:1029000005F1240B20680AF1040A01F099F80AF88D
:10291000080C030A0AF8073C030C000E0AF8063CF0
:102920000AF8050CDA45EDD12035203EFDF75EFDB5
:10293000C01B4045CCD323680320314A9A63A36B64
:1029400043F00043A363012384F83430002323635E
:1029500062E72368596B11F0080105D0284A9A6391
:10296000A36B43F00803A4E75A6B12F002020AD0EB
:10297000234A9A63A36B43F00203A363012384F801
:102980003430216347E7596B890625D51C49996383
:10299000A36B43F02003A363012384F83430226344
:1029A00039E701F04DF805F8040C030A043E04353C
:1029B00005F8073C030C05F8063C030E05F8053C3A
:1029C000FDF714FDC01B404507D323680C4A9A63EA
:1029D000A36B43F000436CE704352068436B9B0214
:1029E00001D5002EDDD140F23A538363012300204C
:1029F00084F8343010E7A36B43F000530AE700BFBC
:102A0000FF0540002DE9F0470D4688B00446914689
:102A10001F46FDF7EBFC80463DB9A36B43F0006316
:102A2000A363012008B0BDE8F08794F83430012B8F
:102A300040F0B48009EB0703E16D00228B42A263F2
:102A400003D9A36B43F00073EAE7032320684FF434
:102A5000007184F83430636CC262012B18BF4FEAF6
:102A6000492901F028F848B123684E4A9A63A36BBC
:102A70000343A363012384F83430D2E74FF0FF33DC
:102A8000069002A902937B0203939023CDE90430C0
:102A900001232068079300F0FBFF012F12D92023A8
:102AA00049462068236301F06AF8236888B13D4AEB
:102AB0009A63A36B0343A363012384F83430002398
:102AC0002363AEE7102349462068236301F03EF8F4
:102AD000EBE7039E2068436B13F48D7F436B0BD0B1
:102AE000DB052BD5012F29D9636C032B26D001F0F0
:102AF0005FF818B32368DAE75A040CD55EB105F124
:102B0000200A55F8043B01A92068019300F09BFFBF
:102B1000AA45F6D1203EFDF769FC109BA0EB08000A
:102B20009842D7D3236803201E4A9A63A36BA363FA
:102B3000012384F834300023236373E72368596B3F
:102B400011F0080105D0174A9A63A36B43F00803FC
:102B5000B1E75A6B12F002020AD0124A9A63A36BD1
:102B600043F00203A363012384F83430216358E760
:102B7000586B10F010000AD00A499963A36B43F018
:102B80001003A363012384F83430226349E740F241
:102B90003A529A63012384F8343043E7A36B43F03D
:102BA00000533DE7FF054000426E0346900F10B50D
:102BB0000870C2F383604870C2F301608870C2F38A
:102BC0000740C870C2F30720D2B208714A719A6EEA
:102BD000100DC880C2F303400872C2F3C0304872BF
:102BE000C2F380308872C2F34030C872C2F3003042
:102BF000087300204873586C00286BD140F6FC74B1
:102C0000D86E04EA820242EA90720A61C0F3C2629C
:102C10000A75C0F302624A75C0F342528A75C0F366
:102C20008242C0F3C230CA75087608690A7E013054
:102C300002F0070202329040012258650C7A04F03B
:102C40000F04A2409A65520A4243DA654FF40072BB
:102C50001A66DA6EC2F380304876C2F3C61002F00C
:102C60007F0288760020CA761B6FDA0F0A77C3F3DB
:102C700041724A77C3F382628A77C3F38352CA7779
:102C8000C3F3405281F82020C3F3004281F82100B1
:102C900081F82220C3F3C03281F82320C3F38032AD
:102CA00081F82420C3F3403281F82520C3F3003299
:102CB00081F82620C3F3812281F82720C3F3012263
:102CC000C3F3460381F8282081F82930012381F8D5
:102CD0002A301BE001280FD11204B3F86E0002F471
:102CE0007C1202430A610A69013292025A65DA656E
:102CF0004FF400729A65A9E71A68012004499163AC
:102D00009A6B42F080529A6383F8340010BD00BF82
:102D1000FF054000F0B5002399B004460B93CDE9C0
:102D20000933CDE9073376230C930AAB93E8070008
:102D300007AB8DE807000ECB206800F065FE054666
:102D400050BB2068436823F48073436000F080FE2A
:102D50002068436843F480734360069500F05CFF8D
:102D6000054698B9206800F07DFF30B12068A56461
:102D700000F052FFA0B1054608E00123A364002142
:102D8000206800F0ADFF70B14FF08055012384F84A
:102D90003430A36B2B43A3630125284619B0F0BD43
:102DA000A36C012BEBD000214FF6FE764F4F14E0C1
:102DB000206800F095FF05460028E7D139462068D5
:102DC00000F0A7FF0028DFD12946206800F05DFE53
:102DD000069B0546C10F01330693069BB34201D8FB
:102DE0000029E5D0069BB34211D8C5F380750123B5
:102DF00020686564ADF8163000F032FE50B94FF02F
:102E00008061012384F83430A36B0B43C3E74FF098
:102E10008075BBE7636C2068032B43D000F0C5FFCF
:102E200001460028EDD1206800F02FFE04216067E4
:102E3000206800F02AFE0821A067206800F025FE27
:102E40000C21E067206800F020FE636CC4F880006D
:102E5000032B27D00DF11601206800F0D3FF0146A7
:102E60000028CED1636C2068032B1BD0BDF8161050
:102E70002165090400F0AFFF01460028C1D1206898
:102E800000F003FE04216066206800F0FEFD0821CA
:102E9000A066206800F0F9FD0C21E066206800F0D3
:102EA000F4FD20670421206800F0EFFD0DA9000D5E
:102EB000E0642046FFF778FE0546A0B9226D034680
:102EC0002068120400F08EFE0146002899D104F11A
:102ED000100393E80700231D8DE807000ECB206840
:102EE00000F092FD59E74FF080518AE7000010C1D1
:102EF00010B5044608B9012010BD90F8343003F035
:102F0000FF0213B9027701F0BFFA0323204684F8C9
:102F10003430FFF7FFFE0028EDD10123A0632063CA
:102F200084F83430E8E7436C0B60836C4B60C36C0F
:102F30008B60036DCB60436D0B61836D4B61C36D23
:102F40008B61036E0020CB6170470000F0B5032356
:102F500004468BB00D4680F83430636C0068032B58
:102F600002D0B1F5805F03D1A36B43F080531DE025
:102F7000B1F5006F25D10021CDE9041100F085FDE8
:102F8000800137D404A92046FFF7CEFB60B9059B2A
:102F9000590332D5216D2068090400F0A1FE18B94B
:102FA0000221206800F0CFFEA36B0343A363A66B4E
:102FB00027684EB3214B0120BB6384F834000BB06B
:102FC000F0BDE9B9CDE9041100F05FFD820111D433
:102FD00004A92046FFF7A8FB0028E5D1059BDB03E9
:102FE0000BD5216D2068090400F07AFE0028DBD1A2
:102FF0000146D6E74FF40060D6E74FF08060D3E794
:10300000A36B43F00063D1E763680493A36805935F
:10301000E368CDE9063563690893A36909930AABB0
:1030200013E9070004AB8DE8070038460ECB00F02B
:10303000EBFC0123304684F83430C0E7FF05400044
:10304000016D10B509040446006800F02BFF01462D
:1030500028B9206800F019FDC0F3432010BDA36B10
:1030600003430020A363F7E703685A6822F0E002F5
:103070005A604268B2F5827F0AD18268B2F5004F89
:1030800002D0B2F5806F03D11A6822F040021A60B4
:10309000826AB2F5005F07D11A6822F400521A6002
:1030A0001A6842F400521A60012380F85D30002350
:1030B00080F85C30032070472DE9F041DDF818807E
:1030C00004460F4616461D462268936837EA0303F6
:1030D0000CBF01230023B34202D10020BDE8F081E0
:1030E0006B1CF2D0FDF782F9A0EB0800A842EBD3ED
:1030F0002046BDE8F041FFF7B7BF2DE9F041DDF80C
:10310000188006460D4614461F46326893682B40C9
:10311000A34202D10020BDE8F081B5F5C06F01D116
:1031200004B9137B7B1CF1D0FDF760F9A0EB08001C
:10313000B842EAD33046BDE8F041FFF795BF73B51A
:103140000B4600920D4616464FF4C051002204462D
:10315000FFF7D3FF024630B1236E032043F0200374
:10316000236602B070BD2B46802120460096FFF7F3
:10317000A3FF02460028EFD12B464FF4C061204642
:103180000096FFF7BAFF0028EBD0E5E7F8B5044654
:1031900000285CD090F85D3003F0FF021BB980F886
:1031A0005C2001F0D3F802232168E26884F85D30E6
:1031B0000B68B2F5E06F23F040030B604FF00003A3
:1031C00042D91D46B2F5706F18BFA362236B2BB9AD
:1031D000B2F5E06F8CBF022301232363A669A06AC6
:1031E000D4E901373B4327693B4367693B43E769C0
:1031F0003B43276A3B4306F4007703433B430B60A2
:10320000236B022B03D10B6843F400630B60636AEA
:10321000360CB0F5005F42EA0302636B06F0040669
:1032200042EA030242EA060242EA05024A6001D18A
:10323000E36A0B61CB69002023F40063CB610123B7
:10324000206684F85D30F8BD4FF48055BCE701205E
:10325000F9E7000038B590F85C300446012B7ED0C9
:10326000012380F85C3090F85D30012BDDB274D121
:10327000002953D0002A51D003238287816380F82C
:103280005D30002303660364C287A0F84430A0F8D1
:1032900046300268C0E913338368B3F5004F03D1A9
:1032A000136843F480431360A36AB3F5005F07D14A
:1032B000136823F400531360136843F4005313603E
:1032C000606D284B0364284BC363284BC364002301
:1032D0000365536823F480435360E368B3F5E06FFC
:1032E0000FD88369B3F5005F0BD1E38F13F0010FA3
:1032F000536818D123F480435360E38FC3F34E0324
:10330000E387E38F0C329BB2FDF7CAF998B1236EC5
:1033100043F010032366012384F85D30002384F812
:103320005C30284638BD43F480435360E38FC3F3D9
:103330004E030133E4E723681A68520603D41A687F
:1033400042F040021A605A68002542F020025A609A
:103350005A6842F002025A60E0E70225DEE70225E1
:10336000DFE700BF75330008A3330008813300088E
:1033700070477047806B08B5FFF7FBFF08BD7047CB
:10338000806B026808B5536823F003035360036E33
:1033900043F010030366012380F85D30FFF7EFFF71
:1033A00008BD37B50546846BFDF720F802462B684B
:1033B0001B68DB0526D423682046596821F02001CC
:1033C0005960596821F0020159606421FFF7B7FE86
:1033D00018B1236E43F020032366A36833B9019329
:1033E0002368DA6801929B680193019B0023E387BD
:1033F000012384F85D30236E23B12046FFF7BFFF21
:1034000003B030BD2046FFF7B3FFF9E790F85D0049
:1034100070470000036A23F0010370B50362036A7A
:103420004268846923F002030D6824F4803424F098
:1034300073042C438D682B430C4DA84203D005F533
:103440008065A8420BD1CD6823F0080322F44072B6
:103450002B43D1E9055623F0040335432A43426048
:103460004A6884614263036270BD00BF000001408E
:10347000036A23F4807370B50362036A4268C46907
:1034800023F400730D6824F4803424F073042C4377
:103490008D6843EA05230D4DA84203D005F58065EC
:1034A000A8420DD1CD6823F4006322F4405243EAD0
:1034B0000523D1E9055623F48063354342EA05121A
:1034C00042604A68C461C263036270BD000001408B
:1034D000036A23F4805330B50362026A4468C36907
:1034E00022F400520D6823F0807323F4E64343EA8C
:1034F00005238D6842EA0532084DA84203D005F540
:103500008065A84204D124F480444D6944EA8514BE
:103510004460C3614B680364026230BD0000014037
:10352000036A23F4803330B50362026A4468436D52
:1035300022F400320D6823F4803323F070032B4310
:103540008D6842EA0542094DA84203D005F5806521
:10355000A84204D124F480344D6944EA052444602F
:1035600043654B688365026230BD00BF00000140C7
:10357000036A23F4801330B50362026A4468436D22
:1035800022F400120D6823F0807323F4E04343EA31
:1035900005238D6842EA0552084DA84203D005F57F
:1035A0008065A84204D124F480244D6944EA85242E
:1035B000446043654B68C365026230BD0000014052
:1035C000254A0368904212D0B0F1804F0FD0A2F587
:1035D0007C4290420BD002F58062904207D002F507
:1035E0008062904203D002F57842904208D123F0E5
:1035F00070034A68134323F44073CA68134316E008
:10360000164A9042F7D002F580629042F3D002F55C
:1036100080629042EFD0A2F598329042EBD002F552
:1036200080629042E7D002F580629042E3D04A691E
:1036300023F08003134303608B68C3620B688362CB
:10364000054B984203D003F58063984201D10B6982
:1036500003630123436170470000014000400140C3
:1036600010B50446A0B190F83D3003F0FF021BB93D
:1036700080F83C2000F020FE02232068211D84F801
:103680003D30FFF79DFF0123002084F83D3010BD41
:103690000120FCE7036A23F0100370B50362036A9C
:1036A0004268846923F020030D6824F0807424F4B8
:1036B000E64444EA05248D6843EA05130D4DA8420B
:1036C00003D005F58065A8420DD1CD6823F08003B5
:1036D00022F4406243EA0513D1E9055623F0400382
:1036E000354342EA850242604A688461826303622C
:1036F00070BD00BF0000014038B590F83C30044672
:103700000220012B12D001230C2A84F83D0084F8FA
:103710003C3050D00BD8042A2DD0082A3BD0D2B14F
:103720000123002084F83D3084F83C0038BD102A85
:1037300051D0142AF4D12068FFF71AFF0A69436DAB
:1037400043F400634365436D23F480634365436D35
:1037500043EA02234DE02068FFF75CFE0A698369B3
:1037600043F008038361836923F004038361836961
:1037700013438361D4E72068FFF78CFF0A698369EC
:1037800043F400638361836923F480638361836905
:1037900043EA0223EDE72068FFF76AFE0A69C3697E
:1037A00043F00803C361C36923F00403C361C36921
:1037B0001343C361B4E72068FFF78AFE0A69C3694F
:1037C00043F40063C361C36923F48063C361C369C5
:1037D00043EA0223EDE72068FFF7A2FE0A69436D82
:1037E00043F008034365436D23F004034365436DD1
:1037F0001343436594E701F01F01036A10B50124E8
:103800008A408C4023EA04030362036A1A4302627B
:1038100010BD00000068012208B5FFF7ECFF0C4B5B
:10382000984203D003F58063984203D1436C43F47C
:10383000004343648268074B1340062B06D0B3F560
:10384000803F03D0036843F001030360002008BDFC
:103850000000014007000100FFF7DCBF114B4FF4EF
:10386000FA5102461B68B3FBF1F341F288314B4336
:10387000ABB1516B11F0450F07D0090505D4536B5F
:103880005B0704D5042090637047013BF0E7506B61
:1038900010F0010014BF0123C523936370474FF05C
:1038A00000407047100000200F4B4FF4FA510246C1
:1038B0001B68B3FBF1F341F288314B438BB1516B81
:1038C00011F0450F08D0090506D4506B10F0040024
:1038D00004D0042090637047013BEFE7C523936356
:1038E00070474FF0004070471000002003464448E6
:1038F00010B500684FF4FA54B0FBF4F04243002ACC
:1039000049D0586B10F0450F07D0000505D45A6B0D
:10391000540704D50420986310BD013AEFE75A6BB1
:10392000D00703D501229A630120F5E7C5229A63E7
:103930001A69D2B29142F7D15B6932481840002827
:10394000EAD0002B2ADB5A002BD49C002BD4D900C0
:103950002BD41A012CD45C012DD4D9012ED41A02F7
:103960002FD45C0230D4990231D4DA0232D45C0311
:1039700033D4990334D4DA0335D41C0436D459042F
:1039800037D49A0438D413F0080F0CBF4FF48030AA
:103990004FF40000C0E74FF00040BDE74FF000706B
:1039A000BAE74020B8E78020B6E74FF48070B3E76D
:1039B0004FF40070B0E74FF48060ADE74FF4006063
:1039C000AAE74FF48050A7E74FF40050A4E74FF464
:1039D0008040A1E74FF400409EE74FF400309BE7A2
:1039E0004FF4802098E74FF4002095E74FF48010C3
:1039F00092E74FF400108FE74FF480008CE700BF90
:103A00001000002008E0FFFD84B010B503AC84E88E
:103A10000E000B46049942680B43059922F4FD42BF
:103A20000B43069922F07F020B4307990B43089939
:103A30000B43BDE81040134304B0436000207047BF
:103A4000D0F8800070470B68C0F8803000207047C5
:103A500008B5032303600220FCF7CEFC002008BD5C
:103A6000006800F0030070470B6810B58360C268FF
:103A7000D1E901346FF30B022343CC680969234376
:103A80000B431343C360002010BD143040587047EF
:103A90000B6810B543624B688362C26AD1E9023495
:103AA00022F0F70223430C69496923430B43134374
:103AB000C362002010BD30B5402387B010250446F6
:103AC0000022019101A9CDE902534FF48063CDE9B1
:103AD0000423FFF7C9FF41F288322946204607B088
:103AE000BDE83040FFF702BF30B5402387B0112555
:103AF00004460022019101A9CDE902534FF48063ED
:103B0000CDE90423FFF7B0FF41F288322946204671
:103B100007B0BDE83040FFF7E9BE30B5402387B0BD
:103B2000122504460022019101A9CDE902534FF468
:103B30008063CDE90423FFF797FF41F288322946DD
:103B4000204607B0BDE83040FFF7D0BE30B5402377
:103B500087B0182504460022019101A9CDE902533E
:103B60004FF48063CDE90423FFF77EFF41F28832F2
:103B70002946204607B0BDE83040FFF7B7BE30B554
:103B8000402387B0192504460022019101A9CDE9FF
:103B900002534FF48063CDE90423FFF765FF41F240
:103BA00088322946204607B0BDE83040FFF79EBE68
:103BB00030B5002387B00C254022044601A9CDE989
:103BC0000323CDE901354FF480630593FFF74CFFE4
:103BD000034A2946204607B0BDE83040FFF786BEBD
:103BE00000E1F50530B5402387B007250446019272
:103BF000002201A9CDE902534FF48063CDE90423EB
:103C0000FFF732FF41F288322946204607B0BDE86F
:103C10003040FFF76BBE000010B5002386B00446AD
:103C200001A9CDE90133CDE903334FF48063059356
:103C3000FFF71AFF0A4B4FF4FA521B68B3FBF2F37B
:103C400041F28832534343B1626B013B1206FAD50D
:103C5000C5230020A36306B010BD4FF00040FAE773
:103C60001000002010B54FF4D57C86B008234FF02B
:103C7000400E01A90446CDE901C30023CDE903E3C9
:103C80004FF480630593FFF7EFFE144B4FF4FA52A5
:103C90001B68B3FBF2F341F288325343D3B1626B3A
:103CA00012F0450F08D0110506D4636B5A0705D5ED
:103CB0000420A06306B010BD013BEFE7606B10F07D
:103CC000010002D00123A363F4E7636B5B06F1D527
:103CD0004023F8E74FF00040ECE700BF1000002061
:103CE00030B5402387B0372504460022019101A951
:103CF000CDE902534FF48063CDE90423FFF7B4FE0E
:103D000041F288322946204607B0BDE83040FFF72F
:103D1000EDBD41F000412922402341F4801110B54E
:103D200086B0044601910021CDE902234FF480635F
:103D3000CDE9041301A9FFF797FE204606B0BDE8C0
:103D40001040FFF7B1BD30B5402387B006250446CB
:103D50000022019101A9CDE902534FF48063CDE91E
:103D60000423FFF781FE41F288322946204607B03E
:103D7000BDE83040FFF7BABD30B5002387B033252A
:103D80004022044601A9CDE90323CDE901354FF4D2
:103D900080630593FFF768FE41F28832294620468A
:103DA00007B0BDE83040FFF7A1BD10B5002386B0D5
:103DB0000222044601A9CDE90132C022CDE9032344
:103DC0004FF480630593FFF74FFE204606B0BDE831
:103DD0001040FFF743BD10B5092286B0C02304464A
:103DE00001910021CDE902234FF48063CDE9041352
:103DF00001A9FFF739FE204606B0BDE81040FFF7E5
:103E00002DBD000030B5002387B003220D4601A967
:103E10000446CDE901324022CDE903234FF480630B
:103E20000593FFF721FE1E4B4FF4FA521B68B3FBBC
:103E3000F2F341F28832534363B3626B12F0450FE1
:103E400008D0120506D4636B580705D50420A0637B
:103E500007B030BD013BEFE7636BD90703D5012302
:103E6000A3630120F4E72369DBB2032BF9D1C52357
:103E7000A363636913F4604002D11B0C2B80E7E756
:103E80005A040AD413F4004F0CBF4FF480304FF49F
:103E90008050DDE74FF00040DAE74FF40050D7E7FD
:103EA0001000002030B5402387B00D2504460022C5
:103EB000019101A9CDE902534FF48063CDE90423B8
:103EC000FFF7D2FD41F288322946204607B0BDE80F
:103ED0003040FFF70BBD08B500F03AF80B4A116807
:103EE00008B5034609B90A49116003331068094946
:103EF00023F0030303448B4206D904F0E5FB0C23B3
:103F000003604FF0FF3008BD1360FCE7680000203D
:103F100000C1022000FC072001230360014B0B605D
:103F2000704700BF0800002008B500F023F8054BDB
:103F3000054A9A60D3F8882042F47002C3F88820BA
:103F400008BD00BF00ED00E00000000800F020B850
:103F5000BFF34F8F0549064BCA6802F4E062134372
:103F6000CB60BFF34F8F00BFFDE700BF00ED00E067
:103F70000400FA05054BD3F8882042F47002C3F818
:103F800088204FF000629A60704700BF00ED00E0AB
:103F9000164B9A6802F00C02042A22D0082A22D179
:103FA00059685A6849025B6802F03F0248BF1049ED
:103FB000C3F3881358BF0F49B1FBF2F253430B4AC6
:103FC0005268C2F3014201325200B3FBF2F3074AD6
:103FD00009499268C2F303128A5CD340074A13600E
:103FE0007047034BF3E7034BF1E700BF0038024093
:103FF00000127A000024F400B490000810000020A1
:10400000284B4FF4C0701A6C42F0805210B51A64FD
:1040100094B01B6C012403F080530093009B224B4F
:104020001A6842F440421A6008221B6803F44043B5
:104030000193019B4FF48033CDE907434FF4800394
:10404000CDE90E320223CDE9100307A80D93CDE987
:104050001223FEF7D3F810B1204600F041FBFDF724
:104060008BFC02230F22002102A8CDE902234FF48A
:10407000A053CDE904134FF4805306210693FEF7B5
:10408000AFFA10B1012000F02BFBFEF747FB4FF415
:104090007A73B0FBF3F0FCF725FA0420FCF736FA4C
:1040A00014B010BD003802400070004008B5FFF7A2
:1040B000A7FF00F037FBBDE8084000F07DBA000024
:1040C000454B9A6B42F002022DE9F04F9A6389B09A
:1040D0009A6B0646414C4FF0400B02F00202404DF5
:1040E00020464FF00A0801924FF00309019A092770
:1040F0001A6B4FF4806A42F480021A631A6B02F45E
:1041000080020292029A9A6942F002029A619A69C6
:1041100022F002029A6100F02FFB284600F02CFBEF
:10412000022303A920460024CDF81C80CDE903B367
:104130000123CDE90539FCF7C3FB03A92846CDF8D7
:104140000CA005940797FCF7BBFB4FF4807303A901
:104150002846CDF81C800393FCF7B2FB4FF40073A4
:1041600003A92846CDF81C800393FCF7A9FB802304
:1041700003A9284607970393FCF7A2FB03A9284647
:10418000CDF80CB00797FCF79BFB16484FF0C063C7
:10419000154AF0638663C0E90023C0E9034AC0E919
:1041A0000544C0E90744C0E90949C0E90B44FCF7EC
:1041B000CFF9224621465C20FCF742F95C20FCF74F
:1041C00071F9224621464620FCF73AF94620FCF7D1
:1041D00069F909B0BDE8F08F0038024000040240E0
:1041E0000014024064A70220B864024010B54620C3
:1041F000194CFCF765F95C20FCF762F9174B18487D
:104200000360FCF723FA40211648FCF737FC4FF413
:1042100080612046FCF732FC4FF480712046FCF7A9
:104220002DFC4FF400712046FCF728FC802120462D
:10423000FCF724FC40212046FCF720FC0A4B9A693D
:1042400042F002029A619A6922F002029A619A6B24
:1042500022F002029A6310BD00140240B8640240CA
:1042600064A70220000402400038024008B50E484E
:104270000E4B0F4A03600F4B1B68B3FBF2F3013B7D
:104280004FF4FA7243600023C0E903238360C0E95E
:104290000533FFF7E5F910B1012000F021FA002005
:1042A000BDE8084001F0E2BC00A702200040014048
:1042B0000024F400100000207FB50268104B9A42E1
:1042C0001AD103F578430F485A6C42F480325A648D
:1042D0005B6C03F480330093009B00F04DFA0023E5
:1042E000022201A90748CDE902230323CDE90433C3
:1042F00008230193FCF7E4FA07B05DF804FB00BF64
:10430000004001400000024008B50E484FF482739F
:104310000D4AC0E9002300234FF4E062C3618362C9
:10432000C0E90232C0E90433C0E908334FF4007336
:104330008361FEF72BFF20B10120BDE8084000F0AB
:10434000CFB908BD9CA60220003001400268454B51
:104350009A42F0B5064689B040F0818003F5843377
:104360000025052403271A6B03A93F4842F00102E8
:104370001A631A6B02F001020092009A5A6C42F41E
:1043800080525A645A6C02F480520192019A1A6B5C
:1043900042F480021A631B6B079403F480030697B0
:1043A0000293029B0223CDE9043520230393FCF7FB
:1043B00087FA802303A92C4803930794FCF780FA1B
:1043C0002A4C4FF0C0632A4920462563C4E90013F4
:1043D0004023C4E902354FF48063C4E904354FF447
:1043E0004033C4E90655C4E90835C4E90A75FCF749
:1043F000AFF810B1012000F073F900220E213B202C
:104400007465A663FCF71CF83B201A4CFCF74AF8CD
:10441000194A4FF0C0632046C4E9002300234FF43B
:104420008062C4E904234FF440322363C4E90823C3
:104430000322C4E90233C4E90633C4E90A23FCF7C2
:1044400087F810B1012000F04BF93A2000220E212C
:10445000B465A663FBF7F4FF3A20FCF723F809B034
:10446000F0BD00BF00300140000002403CA6022029
:1044700058640240DCA5022040640240014800F07C
:1044800096BC00BFA00200200268314B9A4210B5D2
:104490008AB05BD103F586330C2405A92D485A6CEC
:1044A00042F400625A645A6C02F400620192019A6A
:1044B0001A6B42F004021A631A6B02F004020292B1
:1044C000029A1A6B42F008021A631A6B02F0080291
:1044D0000392039A1A6B42F480021A6302221B6B46
:1044E00003F480030493049B0123CDE906230323F3
:1044F000CDE908344FF480730593FCF7E1F94FF4EC
:10450000007305A9134805930994FCF7D9F94FF4F2
:10451000806305A90F4805930994FCF7D1F94FF47E
:10452000006305A90B4805930994FCF7C9F94FF4FA
:10453000805305A9074805930994FCF7C1F90423A2
:1045400005A9054809940593FCF7BAF90AB010BD0E
:10455000002C014000080240000C024010B500236E
:10456000134C144A4FF480412046C4E90023C4E9A7
:1045700003334FF48673C4E90513FEF7B9FC10B199
:10458000012000F0ADF80A48FEF7C4FB10B101208D
:1045900000F0A6F803234FF400610548A361FEF77D
:1045A000D5FC20B10120BDE8104000F099B810BD45
:1045B000F4010020002C014008B5FFF7A5FEFFF72D
:1045C00055FEBDE80840FFF7C9BF00003F4B2DE98D
:1045D000F74F5A6B054608216C2042F002023C4C12
:1045E0004FF004084FF4806B5A634FF4805A5A6BB3
:1045F0004FF4804903274FF4000602F002020092B4
:10460000009A5A6942F002025A615A6922F0020283
:104610005A611A6B42F480021A6300221B6B03F486
:1046200080030193019BFBF70BFF6C20FBF73AFF24
:10463000284A4FF0905340213820C4E9002300223B
:104640004FF40013C4E902124FF4003123632C63CA
:10465000A563C4E908180821C4E90692C4E904BAAC
:10466000C4E90A76FBF7ECFE3820FBF71BFF204677
:10467000FBF7ECFF2046FBF76BFF174C17494FF099
:10468000905300226C633920A563C4E900134FF4F2
:1046900040330821C4E908384FF40013C4E902226A
:1046A000C4E906922363C4E904BAC4E90A76FBF7B5
:1046B000C7FE3920FBF7F6FE2046FBF7C7FF204672
:1046C00003B0BDE8F04FFBF743BF00BF0038024026
:1046D0003801002010640240D80000202864024005
:1046E0007FB50E4B0125802401A91A6B0C4842F0BE
:1046F00002021A631B6B019403F002030093009BF8
:104700000023CDE9025302230493FCF7D9F82A468B
:1047100021460348FCF752FAFEE700BF003802408A
:1047200000040240014B00221A80704710A80220AA
:1047300038B5074C054623880F2B02D90120FFF717
:10474000CFFF238804EB830201335560238038BDFB
:1047500010A8022038B50024064D2A88A3B29A4238
:1047600000D838BDA3B2013405EB83035B689847DA
:10477000F3E700BF10A80220554B8CB098420CD133
:1047800003F560531A6B42F001021A631B6B03F0CE
:1047900001030193019B0CB070474E4B98420BD123
:1047A00003F550531A6B42F002021A631B6B03F0BD
:1047B00002030293029BEEE7474B98420BD103F5AD
:1047C00040531A6B42F004021A631B6B03F004039C
:1047D0000393039BDFE7414B98420BD103F5305322
:1047E0001A6B42F008021A631B6B03F00803049370
:1047F000049BD0E73A4B98420BD103F520531A6B38
:1048000042F010021A631B6B03F010030593059B23
:10481000C1E7344B98420BD103F510531A6B42F0A9
:1048200020021A631B6B03F020030693069BB2E77A
:104830002D4B98420BD103F500531A6B42F0400206
:104840001A631B6B03F040030793079BA3E7274BF7
:1048500098420BD103F5E0531A6B42F080021A63C1
:104860001B6B03F080030893089B94E7204B98424E
:104870000BD103F5C0531A6B42F480721A631B6BA1
:1048800003F480730993099B85E71A4B98420BD177
:1048900003F5A0531A6B42F400721A631B6B03F406
:1048A00000730A930A9B76E7134B98420BD103F5EA
:1048B00080531A6B42F480621A631B6B03F48063AB
:1048C0000B930B9B67E701200CB0FFF709BF00BFFC
:1048D000000002400004024000080240000C0240B8
:1048E000001002400014024000180240001C024068
:1048F000002002400024024000280240F0B5044697
:1049000087B040680025FFF737FFE068FFF734FF06
:104910006069FFF731FFE069FFF72EFF0126238969
:10492000032701A9606801930395059502960497F2
:10493000FBF7C6FF324621896068FCF73FF9238AFE
:1049400001A9E068CDE90136CDE90357FBF7B8FFCF
:104950002A46218AE068FCF731F9238B01A96069B6
:10496000CDE90136CDE90357FBF7AAFF2A46218B93
:104970006069FCF723F9238C01A9E069CDE90135D1
:10498000CDE90367FBF79CFF07B0F0BD0A4608B509
:104990000346406819893AB10022FCF70FF901205B
:1049A000BDE80840FBF728BD0122F6E703460A46AA
:1049B000C068198A02B10122FCF700B903460A4611
:1049C0004069198B02B10122FCF7F8B8018CC0696B
:1049D000FCF7EEB8F8B505460E460827002400217E
:1049E0002846FFF7E3FF0120FBF706FD2846F10903
:1049F000013FFFF7E3FF0120FBF7FEFC0122298ABC
:104A00006400E8687600FCF7D9F80120FBF7F4FCB5
:104A10002846FFF7DBFF0128E4B24FF00100F6B2B1
:104A200008BF44F00104FBF7E7FC17F0FF07D6D1FD
:104A30002046F8BD402AF0B505468FB00E46144614
:104A40001F4602D90120FFF74BFEA319B3F5000F53
:104A500002D90120FFF744FE0021302202A803F012
:104A60000DFE4FF44073694628680693EB230196C8
:104A700000934FF4406307934FF4005303934FF0B8
:104A80004073CDE9093406230593FDF700F910B111
:104A90000120FFF725FE39462868FDF7BFF910B160
:104AA0000120FFF71DFE0FB0F0BDF0B51F465318F3
:104AB0008FB00446B3F5000F0E46154602D901200B
:104AC000FFF70EFE0021302202A803F0D7FD4FF4BD
:104AD00040736946206806933823019600934FF48B
:104AE000406307934FF4005303934FF04073CDE9B5
:104AF0000935FDF7CCF810B10120FFF7F1FD39467B
:104B00002068FDF707F910B10120FFF7E9FD0FB0AC
:104B1000F0BD2DE9F84399468B1880460D46B3F554
:104B2000000F144602D90120FFF7DAFD00270CB967
:104B3000BDE8F883402C264609EB0703294628BF29
:104B400040264046F2B237443544A41BFFF772FFBB
:104B5000EDE72DE9F84399468B1880460D46B3F5ED
:104B6000000F144602D90120FFF7BAFD00270CB947
:104B7000BDE8F883FF2C264609EB0703294628BF2A
:104B8000FF264046F2B237443544A41BFFF78DFFA1
:104B9000EDE700681623102210B50124C0E90323B5
:104BA0000023C0E90144C0E90533C0E90733FDF73C
:104BB00009F820B12046BDE81040FFF791BD10BDB7
:104BC00010B58EB004460021342201A803F056FD32
:104BD0004FF44073694620680693F52300934FF421
:104BE00000530393FDF753F810B10120FFF778FD50
:104BF0000EB010BD70B50446BDF81460BDF81C5071
:104C00002381049BBDF82400E360069B2682636138
:104C1000089B2583E36120846420C4E90012FBF72C
:104C2000EBFB2068FDF720F82046FFF7B2FF204697
:104C3000FFF7C6FF2068FDF717F82046FFF75EFE76
:104C400001212046FFF7A2FE66212046FFF7C2FEA3
:104C500000212046FFF79AFE01212046FFF796FE2D
:104C600099212046FFF7B6FE00212046FFF78EFE71
:104C700001212046FFF78AFE9F212046FFF7AAFE6A
:104C800000212046FFF7A6FE00212046FFF7A2FEE6
:104C900000212046FFF79EFE00212046FFF79AFEE6
:104CA000002106462046FFF795FE002105462046D6
:104CB000FFF76CFE0D2E01D15D2D02D00120FFF714
:104CC0000FFD20460121FFF761FE35212046FFF749
:104CD00081FE20460021FFF759FE6420FBF78CFB84
:104CE0002046BDE87040FFF754BF03460A464069BE
:104CF000198B12B10022FBF761BF0122FBE710B54F
:104D000000210446FFF7F1FF0520FBF775FB218921
:104D100000226068FBF752FF0A20FBF76DFB60681A
:104D200021890122FBF74AFF7820BDE81040FBF7FC
:104D300063BBF0207047F02070474FF4347301EBF1
:104D4000410103FB0211837E01444B77C37E8B77C5
:104D5000037FCB77C2F3C70302F007021844012395
:104D600000F52830934090F81D23134380F81D333D
:104D700070474FF4347301EB410182B003FB021121
:104D8000431800205A7F62F307009A7FDB7F62F3AB
:104D90000F2063F3174002B0704782B00191BDF855
:104DA00004209DF806304283037702B0704700F577
:104DB0002830002380F83B33704710B500F52832C7
:104DC000044692F83B33002BFBD12068FEF71EFB14
:104DD0000128FAD110BD37B500F528330125044666
:104DE00000228DF8071083F83B53018AC068FBF757
:104DF000E5FE0022218B6069FBF7E0FE2A460DF1FB
:104E000007012068FEF726FA10B12846FFF768FC74
:104E10002046FFF7D2FF00212046FFF766FF03B0D0
:104E200030BDF8B500F52833012504460E46174677
:104E3000018A2A46C06883F83B53FBF7BFFE002275
:104E4000218B6069FBF7BAFE3A4631462068FEF7CF
:104E500001FA10B12846FFF743FC2046FFF7ADFFEB
:104E600020460021BDE8F840FFF73FBF07B501220B
:104E70008DF807100DF10701FFF7D3FF03B05DF8C0
:104E800004FB73B50D462A2106461446FFF7A3FF1F
:104E900004226DBA64BA0DEB02013046ADF804503D
:104EA000ADF80640FFF7BDFF02B070BD73B50D460B
:104EB0002B2106461446FFF78EFF04226DBA64BA12
:104EC0000DEB02013046ADF80450ADF80640FFF797
:104ED000A8FF02B070BD70B5044600F11D060025A4
:104EE000C5F3C403234403F5283393F81D33DB07CC
:104EF00013D5EF2200212046FFF7C3FF2046AAB2B8
:104F00001146FFF7D3FF2C212046FFF764FF4FF433
:104F1000347231462046FFF784FF013506F53476BA
:104F2000F02DDDD104F528301E22002100F21D30C5
:104F3000BDE8704003F0A2BB00F528301E22FF211F
:104F400000F21D3003F09ABB10B50446044A00215C
:104F50001D3003F093FB2046BDE81040FFF7ECBF87
:104F600000A3020010B50446FFF7EEFF2046BDE89F
:104F70001040FFF7B0BFF8B503810446069BBDF8AB
:104F80002450C360089B05830125436100F5283345
:104F9000BDF81C709DF828600782C0E9001283F8F4
:104FA0003B53FFF7ACFE2046EF21FFF714FF2046EE
:104FB000EB21FFF710FF20461421FFF757FF204693
:104FC000FE21FFF708FF2046EF21FFF704FF2046F0
:104FD000EB21FFF700FF20461421FFF747FF204693
:104FE0008421FFF7F8FE20464021FFF73FFF2046CF
:104FF0008521FFF7F0FE2046FF21FFF737FF20460F
:105000008621FFF7E8FE2046FF21FFF72FFF20460D
:105010008721FFF7E0FE2046FF21FFF727FF20460C
:105020008821FFF7D8FE20460A21FFF71FFF204600
:105030008921FFF7D0FE20462121FFF717FF2046E8
:105040008A21FFF7C8FE20460021FFF70FFF204608
:105050008B21FFF7C0FE20468021FFF707FF204687
:105060008C21FFF7B8FE29462046FFF7FFFE2046B9
:105070008D21FFF7B0FE29462046FFF7F7FE2046B8
:105080008E21FFF7A8FE2046FF21FFF7EFFE204606
:105090008F21FFF7A0FE2046FF21FFF7E7FE204605
:1050A000B621FFF798FE20460021FFF7DFFE2046DD
:1050B0000021FFF7DBFE36212046FFF78CFE032E92
:1050C00000F26E82DFE816F00400660268026A02EF
:1050D00018212046FFF7CAFE20463A21FFF77BFE43
:1050E00020466621FFF7C2FE20469021FFF773FE9F
:1050F00020460821FFF7BAFE20460821FFF7B6FE3A
:1051000020460821FFF7B2FE20460821FFF7AEFE39
:105110002046BD21FFF75FFE20460621FFF7A6FED1
:105120002046BC21FFF757FE20460021FFF79EFED8
:105130002046FF21FFF74FFE20466021FFF796FE35
:1051400020460121FFF792FE20460421FFF78EFE44
:105150002046C321FFF73FFE20461321FFF786FEBE
:105160002046C421FFF737FE20461321FFF77EFEBD
:105170002046C921FFF72FFE20462221FFF776FEA9
:105180002046BE21FFF727FE20461121FFF76EFEC5
:105190002046E121FFF71FFE20461021FFF766FEA3
:1051A00020460E21FFF762FE2046DF21FFF713FEA7
:1051B00020462121FFF75AFE20460C21FFF756FE1C
:1051C00020460221FFF752FE2046F021FFF703FEA2
:1051D00020464521FFF74AFE20460921FFF746FEFB
:1051E00020460821FFF742FE20460821FFF73EFE39
:1051F00020462621FFF73AFE20462A21FFF736FEF9
:105200002046F121FFF7E7FD20464321FFF72EFE60
:1052100020467021FFF72AFE20467221FFF726FE66
:1052200020463621FFF722FE20463721FFF71EFEDB
:1052300020466F21FFF71AFE2046F221FFF7CBFD33
:1052400020464521FFF712FE20460921FFF70EFEFA
:1052500020460821FFF70AFE20460821FFF706FE38
:1052600020462621FFF702FE20462A21FFF7FEFDF9
:105270002046F321FFF7AFFD20464321FFF7F6FD5F
:1052800020467021FFF7F2FD20467221FFF7EEFD68
:1052900020463621FFF7EAFD20463721FFF7E6FDDD
:1052A00020466F21FFF7E2FD2046ED21FFF793FD39
:1052B00020461B21FFF7DAFD20460B21FFF7D6FD24
:1052C0002046AE21FFF787FD20467721FFF7CEFD70
:1052D0002046CD21FFF77FFD20466321FFF7C6FD65
:1052E00020467021FFF777FD20460721FFF7BEFD1E
:1052F00020460721FFF7BAFD20460421FFF7B6FD3F
:1053000020460E21FFF7B2FD20460F21FFF7AEFD2C
:1053100020460921FFF7AAFD20460721FFF7A6FD39
:1053200020460821FFF7A2FD20460321FFF79EFD3E
:105330002046E821FFF74FFD20463421FFF796FD78
:1053400020466221FFF747FD20461821FFF78EFD1A
:1053500020460D21FFF78AFD20467121FFF786FDCB
:105360002046ED21FFF782FD20467021FFF77EFDEC
:1053700020467021FFF77AFD20461821FFF776FDC1
:1053800020460F21FFF772FD20467121FFF76EFDC9
:105390002046EF21FFF76AFD20467021FFF766FDEA
:1053A00020467021FFF762FD20466321FFF713FDC1
:1053B00020461821FFF75AFD20461121FFF756FD20
:1053C00020467121FFF752FD2046F121FFF74EFDE7
:1053D00020467021FFF74AFD20467021FFF746FD69
:1053E00020461821FFF742FD20461321FFF73EFD1E
:1053F00020467121FFF73AFD2046F321FFF736FDE5
:1054000020467021FFF732FD20467021FFF72EFD68
:1054100020466421FFF7DFFC20462821FFF726FD08
:1054200020462921FFF722FD2046F121FFF71EFD2E
:1054300020460121FFF71AFD2046F121FFF716FD56
:1054400020460021FFF712FD20460721FFF70EFD41
:1054500020466621FFF7BFFC20463C21FFF706FDF2
:1054600020460021FFF702FD2046CD21FFF7FEFC7C
:1054700020466721FFF7FAFC20464521FFF7F6FC9E
:1054800020464521FFF7F2FC20461021FFF7EEFCF5
:1054900020460021FFF7EAFC20460021FFF7E6FC4A
:1054A00020460021FFF7E2FC20466721FFF793FC2E
:1054B00020460021FFF7DAFC20463C21FFF7D6FC0E
:1054C00020460021FFF7D2FC20460021FFF7CEFC4A
:1054D00020460021FFF7CAFC20460121FFF7C6FC49
:1054E00020465421FFF7C2FC20461021FFF7BEFCE6
:1054F00020463221FFF7BAFC20469821FFF7B6FC80
:1055000020467421FFF767FC20461021FFF7AEFC10
:1055100020468521FFF7AAFC20468021FFF7A6FC44
:1055200020460021FFF7A2FC20460021FFF79EFC49
:1055300020464E21FFF79AFC20460021FFF796FCFB
:1055400020469821FFF747FC20463E21FFF78EFCBE
:1055500020460721FFF78AFC20463521FFF73BFC58
:1055600020462121FFF737FC11212046FFF733FCAD
:105570007820FAF741FF20462921FFF72CFC142060
:10558000FAF73AFF0023204663832377BDE8F8400B
:10559000FFF7E8BC28219CE548219AE5682198E5B9
:1055A0000120FFF79DF897E52DE9F0411E460446DE
:1055B0001746884690470546B0479DF82A30BDF803
:1055C0002820013D84F825300138069BE0832046E1
:1055D000E360079BA4F823202361089BA660636116
:1055E000099BA583A361C4E90087BDE8F08101841C
:1055F000090C82B0C36880F82210016A006802B00A
:1056000018470369006818478369006818472DE93F
:10561000F04F89B004460E46BDF84890BDF84CA046
:105620009DF858B0CDE90023838B934237D3C38BC9
:10563000019A934233D30B88BBF1020FBDF854207B
:105640004FF0000509FB03F3ADF81B2002934B88D4
:105650000AFB03F30393149BADF818304FEA13438E
:105660008DF81A309DF856308DF81D3002D1012585
:10567000AB4512D005EB45030027204620336B4491
:1056800013F8082D597842EA0122997842EA01413B
:10569000FFF7ADFF039B9F4204D1002DE7D009B077
:1056A000BDE8F08FB7FBFAF39BB24FF0000804930C
:1056B000019BDA1993B20593029B984501D10137FA
:1056C000E8E7B8FBF9F1049A89B2304600F062F9D4
:1056D0001DB920B908F10108EEE70028FAD1009BB6
:1056E0002046059A03EB080189B2FFF78AFFF1E72C
:1056F000F8B51F46C38B06461446BB420ED38A42FA
:105700001546838B28BF0D469D4207D88A4238BF75
:105710000C469C4228BF1C46AC4200D2F8BD29462C
:1057200001353A463046ADB2FFF76BFFF4E7F8B506
:105730000F46818B0646B9420FD393421D46C18B5B
:1057400028BF15468D4208D8934238BF13468B4276
:1057500028BF0B461C46AC4200D2F8BD2A46013594
:1057600039463046ADB2FFF74CFFF4E72DE9F04F74
:105770009846878B85B090F822508845C246068CA3
:10578000044628BF8A46BDF83830ADF80C6057454E
:105790008DF80E5067D393429B46C68B28BF934625
:1057A0005E4560D388450AF101090BF1010538BF58
:1057B000884693420F991FFA89F938BF1346474527
:1057C000ADB228BF47469E42019328BF1E46FFF751
:1057D0000EFF5B463A4651462046FFF789FF3346A7
:1057E0005A4651462046FFF7A2FFA38B434529D3D3
:1057F00007F1FF3833465A46394620461FFA88F8E3
:10580000FFF795FFE38B019A93420AD306F1FF3B22
:1058100033463A4651461FFA8BFB2046FFF768FF96
:105820005E46A38B4B4506D3E38BAB4203D3C845FF
:1058300001D3AE4208D20399204605B0BDE8F04F2F
:10584000FFF7D5BEB846DDE710992046FFF7CFFE3B
:105850002B46013542464946ADB22046FFF748FF88
:10586000AE42F5D2E7E705B0BDE8F08F2DE9F74F7E
:105870009A46CD888B8881460E9C0F4615FB03F512
:1058800090469DF834B0013CADB2164614F9013F84
:1058900023B30A2B02D10220FEF722FFB9F81C30F5
:1058A000B3421BD3BBF1000F08D194F9003032464C
:1058B000394648460093534600F088F83B68207804
:1058C0005B689847BB880C9A00FB036080B2A0EB32
:1058D00008032844013B86B21380D7E703B0BDE834
:1058E000F08F2DE9F04F89B04FF0000917468B4635
:1058F000129A0646DDF85480A2F80090139A4046AA
:10590000ADF81E3013809DF850A002F0F3FEDBF8D6
:1059100000300446BBF808201B78BBF80450134441
:105920004A4615FB03F54B46ADB2A34218D3A31A62
:1059300012990DF11E009BB2CDE90251CDE9007024
:1059400059463046CDE904A800F074F8139ABDF822
:105950001E3012889B1A139A138009B0BDE8F08F8D
:1059600018F9030003F101090A281FFA89F90FD178
:1059700012999B1A30469BB2CDE902510DF11E01DE
:10598000CDE904A8CDE90071594600F053F84A4624
:105990004B46CAE703888B4230B515D944889442F8
:1059A00012D9DC085B0743684FEAD10518BF013400
:1059B00001F0070104FB02320123525D8B401A42C1
:1059C00014BF0120002030BD0020FCE72DE9F0418C
:1059D0001F4688B00B6816469DF838800C461A782A
:1059E00005465B684046ADF81A2098472368ADF835
:1059F000180040469B6898476269079028461278CD
:105A0000A3880492226911889278ADF80C108DF861
:105A10000E20E26811889278ADF8081006A98DF87A
:105A20000A203246CDE900333B46FFF7F0FD08B0CF
:105A3000BDE8F0812DE9F0473F2B96B006460F46B2
:105A400090461C461F9DDDF8849002D90120FEF788
:105A500047FE0DF1180A239922464144504602F0B0
:105A60003BFE04F15803BDF8782039460DEB0304E2
:105A70000023304604F8403CADF816309DF88830DD
:105A8000CDF808A001930DF1160300932B88FFF7C2
:105A9000EDFEB9F80020BDF816309A4238BFA9F8DB
:105AA0000030BDF880302A8813442B8016B0BDE842
:105AB000F0870620704700001F2881BF20380C2285
:105AC000024B02FB003098BF01487047D09000089D
:105AD000C49000080C220270024A4260024A8260AE
