:020000040800F2
:1000000000000820F9010008FD010008FF010008B8
:100010001302000815020008290200080000000071
:100020000000000000000000000000003D02000889
:100030003F0200080000000041020008DD06000841
:10004000430200084302000843020008430200087C
:10005000430200084302000843020008430200086C
:10006000430200084302000843020008430200085C
:10007000430200084302000843020008430200084C
:10008000430200084302000843020008430200083C
:10009000430200084302000843020008430200082C
:1000A000430200084302000843020008430200081C
:1000B000430200084302000843020008430200080C
:1000C00043020008430200084302000843020008FC
:1000D00043020008430200084302000843020008EC
:1000E00043020008430200084302000843020008DC
:1000F00043020008430200084302000843020008CC
:1001000043020008430200084302000843020008BB
:1001100043020008430200084302000843020008AB
:10012000430200084302000843020008430200089B
:10013000430200084302000843020008430200088B
:10014000430200084302000843020008430200087B
:10015000430200084302000843020008430200086B
:10016000430200084302000843020008430200085B
:100170004302000843020008430200080000000098
:10018000430200084302000843020008430200083B
:10019000430200084302000843020008430200082B
:1001A000430200084302000843020008430200081B
:1001B000430200084302000843020008430200080B
:1001C0004302000843020008000000004302000848
:1001D00043020008430200084302000843020008EB
:1001E00043020008430200084302000843020008DB
:1001F000430200084302000859480047FEE71EF08A
:10020000040F0CBFEFF30880EFF309807146554AE5
:100210001047FEE71EF0040F0CBFEFF30880EFF36A
:1002200009807146504A10471EF0040F0CBFEFF3CF
:100230000880EFF3098071464C4A1047FEE7FEE75D
:10024000FEE7FEE708B54FF00062344B34489A6091
:10025000344A9A60344B83423CD3344A00203449B8
:100260008A4244D3334B9A6802F00C02042A47D0E6
:10027000082A47D159685A6849025B6802F03F0270
:1002800048BF2D49C3F3881358BF2C49B1FBF2F284
:100290005343284A5268C2F3014201325200B3FB71
:1002A000F2F3244A002626499268264DC2F303122F
:1002B000254C8A5C641BD340A410244A1360B442CA
:1002C00022DC234D0026234C641BA410B44220DC06
:1002D00000F022FDD3E900120C33891A53F8044CC4
:1002E0009442B8D95558043242F8045CF8E752F801
:1002F000083B52F8044C9C42B2D943F8040BFAE78D
:100300000D4BCEE70D4BCCE755F8043B0136984733
:10031000D5E755F8043B01369847D7E700ED00E0F4
:100320008803000800000008700300088803000824
:10033000980300080038024000127A000024F400FC
:10034000881800089803000898030008040000209B
:100350009803000898030008FEE7FEE7FEE70000A8
:1003600045020008590300085B0300085D0300080C
:1003700018190008000000200800002018190008C3
:10038000000000100000001008000020C000002045
:08039000000000100000001045
:10039800034A0130116813685B1A8342FBD3704724
:1003A800BC0000202DE9F74F0023DFF8A8814FF0AB
:1003B8000F09694A01240E689C4004EA0605B44303
:1003C80040F0AF804C684FEA430C032624F0100E2F
:1003D80006FA0CF60EF1FF37F643012F10D887689E
:1003E80007EA060ACF6807FA0CF747EA0A078760A0
:1003F800476827EA050A27099F4047EA0A0747602E
:10040800C768BEF1020F07EA060A8F6807FA0CF7F9
:1004180047EA0A07C76014D14FEAD30E03F0070A68
:1004280000EB8E0E4FEA8A0ADEF8207009FA0AFB02
:1004380027EA0B0B0F6907FA0AF747EA0B07CEF80A
:1004480020700768374004F0030606FA0CF63E43AE
:100458000660E60065D5D8F8446023F0030703F08A
:10046800030C46F4804607F180474FEA8C0CC8F825
:10047800446007F59C37D8F8446009FA0CFE06F486
:1004880080460196019EBE6826EA0E0E334EB042A3
:100498004ED006F58066B0424CD006F58066B04274
:1004A8004AD006F58066B04248D006F58066B0426C
:1004B80046D006F58066B04244D006F58066B04264
:1004C80042D006F58066B04240D006F58066B0425C
:1004D8003ED006F58066B04214BF0A26092606FA01
:1004E8000CF614F4803F46EA0E06BE606FEA050774
:1004F80016680CBF3E402E4314F4003F1660566841
:100508000CBF3E402E4314F4801F566096680CBF03
:100518003E402E43A4029660D66854BF3E402E4308
:10052800D6600133102B7FF445AF03B0BDE8F08FE0
:100538000026D4E70126D2E70226D0E70326CEE735
:100548000426CCE70526CAE70626C8E70726C6E735
:100558000826C4E700380240003C01400000024081
:100568002DE9F04F00224FF0010A4FF00F084FF02D
:10057800030B464C0AFA02FC3CEA01030CEA0106AA
:100588006CD122F0030502F0030705F18045BF0096
:1005980005F59C3508FA07F9AB6809EA030E3C4BE8
:1005A800984260D003F5806398425ED003F580637B
:1005B80098425CD003F5806398425AD003F5806373
:1005C800984258D003F58063984256D003F580636B
:1005D800984254D003F58063984252D003F5806363
:1005E800984250D003F58063984214BF0A23092328
:1005F800BB40734513D1236823EA0603236063686D
:1006080023EA06036360A36823EA0603A360E3689A
:1006180023EA0603E360AB6823EA0903AB605300EF
:100628000568D6080BFA03F300EB860625EA0305EE
:10063800056002F00705376AAD0008FA05F527EAF4
:1006480005073762C56825EA0305C560456825EAD8
:100658000C054560856825EA030383600132102A8A
:1006680088D1BDE8F08F0023C2E70123C0E7022349
:10067800BEE70323BCE70423BAE70523B8E706234C
:10068800B6E70723B4E70823B2E700BF003C014000
:100698000000024070B5049C0668B5680D4214BF9E
:1006A80001250025954201D1002010E0651CF4D0F9
:1006B800074D2D68ED1AA54201D8002CEDD1042371
:1006C80080F84130436C43F001034364012070BD5E
:1006D800BC000020094A38B513680024084D0133CE
:1006E80013602A88A3B29A4200D838BDA3B2013455
:1006F80005EB83035B689847F3E700BFBC00002065
:1007080078000020724B2DE9F04F1B6885B0054634
:100718000C46039390F84030012B00F0D78001235A
:1007280080F8403090F84130012B4FF0020340F040
:10073800CB8000222021426480F8413041F2883386
:100748000093039BFFF7A6FF002840F0A380676A89
:100758001FB1A36A2A68013B136104F118014AC951
:10076800002951D0626947EA010BD5F800C04FEA69
:10077800824E2168D4F83480D4E90B295EB3D4F8CA
:1007880008A04BEA0606CCF81CA0D4F810A0A3B128
:100798000B43134343EA090343EA080343EA0A0203
:1007A800E368134343EA0E033343CCF81430636819
:1007B800CCF81830002F7ED162E041EA020343EA08
:1007C800090343EA080343EA0A0343EA0E033343EF
:1007D800CCF81430EEE763B10B431343E26843EA05
:1007E800090343EA0803134343EA0E0343EA0B03EE
:1007F800DBE741EA020343EA090343EA080343EA61
:100808000E0343EA0B03E3E73EB3A2683E432968BD
:10081800D4F834E0CA616269D4E90B984FEA824C93
:1008280022697BB1134343EA090343EA080343EA15
:100838000E02E368134343EA0C0333434B616368D6
:100848008B61B7E742EA090242EA080242EA0E026D
:1008580042EA0C0216434E61ACE783B1E26A3B43BD
:100868001343226B1343626B1343E26813436269B9
:1008780043EA82432A685361636893619AE77FB9C0
:1008880041F288330122022128460093039BFFF797
:1008980001FFA0B1002385F8403005B0BDE8F08F16
:1008A800E36A226B3B431343626B1343626943EA77
:1008B80082432A685361012385F84130EAE72B68AF
:1008C800D96085F84120E5E71846E3E70220E4E728
:1008D800BC0000207FB50C4B80240C4801A91A6B82
:1008E80042F002021A6301221B6B019403F0020317
:1008F8000093009B0023CDE9022302230493FFF712
:1009080051FD8461FEE700BF003802400004024048
:100918003E4B984203F5405300B58BB00BD11A6B90
:1009280042F004021A631B6B03F004030193019B5A
:100938000BB05DF804FB364A904209D11A6B42F0BD
:1009480008021A631B6B03F008030293029BEFE78C
:10095800304A904209D11A6B42F010021A631B6B9D
:1009680003F010030393039BE2E72B4A904209D15B
:100978001A6B42F020021A631B6B03F020030493E6
:10098800049BD5E7254A904209D11A6B42F04002F0
:100998001A631B6B03F040030593059BC8E7204AC5
:1009A800904209D11A6B42F080021A631B6B03F064
:1009B80080030693069BBBE71A4A904209D11A6B3B
:1009C80042F480721A631B6B03F480730793079BCE
:1009D800AEE7154A904209D11A6B42F400721A63C5
:1009E8001B6B03F400730893089BA1E70F4A90421E
:1009F80009D11A6B42F480621A631B6B03F480639B
:100A08000993099B94E7FFF765FF00BF00080240C0
:100A1800000C02400010024000140240001802407E
:100A2800001C02400020024000240240002802402E
:100A3800104A82B090420BD10F4B1A6B42F0010260
:100A48001A631B6B03F001030093009B02B070470D
:100A58000A4A90420AD1084B1A6B42F002021A6302
:100A68001B6B03F002030193019BEFE702B0FFF752
:100A78004FBF00BF0000024000380240000402409F
:100A88004A4B2DE9F0411E6888B00446002800F062
:100A98008B8090F8413003F0FF05002B4AD1444A7F
:100AA800402780F840504FF00A08936B414843F0C4
:100AB80002039363936B03F002030293029B93690F
:100AC80043F002039361936923F002039361FFF7F4
:100AD800AFFF3948FFF71CFF0223012203A935485D
:100AE800CDF81C80CDE903730323CDE90523FFF777
:100AF80059FC4FF480630595092500F58050039350
:100B08000795FFF74FFC4FF48073CDF81C800393D3
:100B1800FFF748FC4FF400730393FFF743FC80236F
:100B280007950393FFF73EFC0397FFF73BFC41F261
:100B38008833A36425682046A1682A680139A36C14
:100B480022F4F85242EA012220212A60002200936E
:100B58003346FFF79FFD08BBE169E3682A680B434A
:100B6800216A22F07F420B43616822F0D00243EAF7
:100B7800016313432B606968D4E905321343226982
:100B880043EA02430D4A0A4013436B602B6843F063
:100B980001032B600123606484F84130002384F84A
:100BA800403008B0BDE8F0810120FAE7BC00002021
:100BB800003802400004024000140240FEF8E0FF42
:100BC80010B5044678B3026840211748136823F02B
:100BD80001031360FFF7C4FC00F580504FF48061F7
:100BE800FFF7BEFC4FF48071FFF7BAFC4FF40071B9
:100BF800FFF7B6FC8021FFF7B3FC4021FFF7B0FCFC
:100C08000A4B9A6942F002029A619A6922F002023A
:100C18009A619A6B22F002029A630023636484F853
:100C2800413084F8403010BD0004024000380240D2
:100C3800184B4FF47A721B68B3FBF2F3013BB3F124
:100C4800807F10B525D24FF0E021F02207240F282D
:100C58004B61114B83F823204FF000028A610C612D
:100C680017D8DB68C3F30223E11A1C1D042928BF27
:100C78000421062C88BFDA1E4FF0FF338B4020EA90
:100C880003039340044A1B01DBB282F82330034B71
:100C9800186010BD0400002000ED00E000000020F6
:100CA8002DE9F843054608270024184EB6F8109099
:100CB8000120D6F80C8064004FEA0943013FE4B2F2
:100CC800C8F81830FFF764FB338B290672694FF0B8
:100CD80001004FEA450558BF1B04EDB29361FFF7C9
:100CE80057FB0120C8F81890FFF752FBF369328CC4
:100CF80001201B691A4218BF44F00104FFF748FBA2
:100D080017F0FF07D2D12046BDE8F8835400002031
:100D1800564B0F2056491A6842F400722DE9804854
:100D28001A60ADF5802D1A68BBB042F480721A6063
:100D3800CA68504B22F4E0621204120C1343CB60D1
:100D4800FFF776FF4C4A136C43F080531364136C1F
:100D580003F080530993099B484B196841F44041BB
:100D680019601B6803F440430893089B936803F0D9
:100D78000C03042B424B07D0916801F00C010829A1
:100D88003FD1526855023CD53B4A12683A4A9168AD
:100D980001F00C0108294DD0116821F08071116013
:100DA8001868116889013BD436495160116841F0CF
:100DB80080711160304918680A68970135D52E4A44
:100DC800116C41F080511164126C02F080520A9249
:100DD8000A9A2A4A116841F48031116018685168EA
:100DE800CD0351D5116841F40031116023491868C9
:100DF8004A6894034DD41A68121AB2F57A7FF7D963
:100E080047E01D4A116841F4803111601868116883
:100E18008C03BBD41968091A6429F8D9FFF75AFD5D
:100E28001968091A0229BCD9F8E71A68121A022A9D
:100E3800C2D9F3E752685602F0D502F03F010829FB
:100E4800ECD147F6C0711140B1F5C04FE6D112F4AC
:100E5800403FE3D102F07061B1F1006FDED102F0E2
:100E6800E042B2F1005FAAD0D8E700BF003C0240E0
:100E780000ED00E00003FA05003802400070004071
:100E8800BC000020086040281968091AB1F57A7F6B
:100E9800A5D9DA490A6802F00F02052A40F2FA8158
:100EA800D74A916841F4E0519160916841F46041FA
:100EB8009160916821F0F001916011688901ADD5C8
:100EC800916841F2883421F0030141F002019160F8
:100ED8001868916801F00C01082940F0E881C74AB8
:100EE800136803F00F03062B00F2E781C4498B68EF
:100EF80023F4E05343F4A0538B608B6823F46043DE
:100F080043F400438B608B6803F00C03042B00F060
:100F1800FB81082B00F0DE81BA48B94BBA4A9B68BE
:100F2800C3F30313D35C20FA03F4B84B1C60B84B2B
:100F38001868FFF77DFE4FF47A73B4FBF3F00138BD
:100F4800B0F1807F0AD24FF0E023B24AF021586115
:100F580082F8231000229A6107221A614FF0E022DA
:100F6800AD4DDFF8B882002713690DF5003B284620
:100F78004FF0400943F004030BF1E80B01264FF052
:100F880080741361A64BDFF89CA21F80FFF750FD09
:100F98004046FFF7BDFC032359462846CBF80C30E2
:100FA800CBF80870CBE90096FFF7FCF94FF4807096
:100FB800C5F81890CBF800004046FFF7F3F94FF456
:100FC800007CC8F81840CBF800C0FFF7EBF94FF0E9
:100FD800800C4FF00073944CC8F81830CBF800C060
:100FE800FFF7E0F94FF40003C8F81830CBF8009089
:100FF800FFF7D8F94FF4806C4FF48003C8F8183025
:10100800CBF800C0FFF7CEF94FF080614FF4806055
:10101800864BC8F81810AAF810004FF480702360A7
:10102800AAF818004FF40070AAF80890AAF820004F
:101038006420CAF80C80CAF81480CAF81C80CAE96F
:101048000045FFF7A5F92046FFF7BAFD4FF0100C51
:101058001620C4E903C04FF48070C4E90507204690
:10106800C4E90166C4E90777FFF70AFD01460028CD
:101078007FF4D4AE342211A800F082FA4FF4407302
:101088003AAF20461693F523A7F1A80110934FF421
:1010980000531393FFF736FB074600287FF4BEAED4
:1010A8002046FFF78DFD2846FFF7C2FC4046FFF7B4
:1010B800BFFC4046FFF7BCFC4046FFF7B9FC0322E3
:1010C80059462846CBF80C20CBF80870CBF810709E
:1010D800CBE90096FFF766F94FF4806E4046C5F8F5
:1010E8001890CBF800E0FFF75DF94FF0806CC8F876
:1010F80018C04FF4807CCBF800C0FFF753F94FF0CD
:101108008072C8F818204FF40072CBF80860CBE959
:101118000027FFF747F94FF480033046AB61984644
:10112800FFF736F96620FFF7BBFD3046C5F8189083
:10113800FFF72EF93046C5F81880FFF729F99920EE
:10114800FFF7AEFD3046C5F81890FFF721F9304695
:10115800C5F81880FFF71CF99F20FFF7A1FD384656
:10116800FFF79EFD3846FFF79BFD3846FFF798FDD1
:101178003846FFF795FD83463846FFF791FDC5F8D9
:10118800189080463046FFF703F9BBF10D0F7FF446
:1011980045AEB8F15D0F7FF441AE4FF480033046A1
:1011A800AB61FFF7F5F83520FFF77AFD3046C5F853
:1011B8001890FFF7EDF86420FFF7EAF816231022DD
:1011C8002046C4E903234FF48073C4E90166C4E9E7
:1011D8000537C4E90777FFF753FC00287FF41EAEF4
:1011E800074B3AA91A6B42F002021A631B6B03F011
:1011F80002030793079B02231AE000BF003C02404A
:10120800003802400024F400881800080400002078
:101218000000002000ED00E000040240001402403D
:10122800780000205400002008000020001000A0D2
:101238000E938023CDE90C6041F8BC3D2846FFF7AA
:10124800B1F8A5233AA90022FF200293029CB2FB21
:10125800F0F3C3EB0323D31A01322344B2F5003F62
:1012680001F8013BF2D1DFF8E082B84BA8F5FF3670
:101278009845A6F5F07640F0258180234FF4FA7062
:10128800AB61FFF785F84FF40003AB61029B0133B4
:10129800DBB2D7E70A6822F00F0242F006020A60C2
:1012A8000A6802F00F02062A7FF4B8ADF8E519685B
:1012B800091AA1427FF60DAEB0E5136823F00F03BB
:1012C80043F006031360136803F00F03062B7FF443
:1012D800A5AD0BE64A684B68496802F03F0213F473
:1012E8008003C1F388111ABF994800239948A1FBCC
:1012F800000100F04DF9984B5B68C3F301430133DB
:101308005B00B0FBF3F008E6914806E6039B203348
:10131800039307F120034037B7F5000F3FF67EAD82
:101328001F460021302204984FF0407B00F028F936
:101338004FF44073DAF800401EA92493382320465E
:101348001F971E934FF4406325934FF40053219346
:101358002023CDE927B3FFF7D5F900287FF45EAD48
:101368007E4BD4F800901B6894F84020012A3FF483
:1013780055AD012284F8402094F84120012A40F01C
:10138800DF801222606441F2883B84F84120D9F85A
:1013980010200132E262D9F810200132A262039AC9
:1013A8006262D9F8142022F04062C9F81420E26A77
:1013B800002A40F08D80012202212046CDF800B09D
:1013C800FFF768F908B92368D960012384F8413028
:1013D800002384F8403000287FF420ADB84595D12B
:1013E8000DF500392EAB09F1E809039300213022ED
:1013F80003984FF0407400F0C3F84FF440732CA9E1
:101408002D963293EB232C934FF4406333934FF490
:1014180000532F932023CDE93543DAF80040062303
:1014280020463193FFF76EF900287FF4F7AC4B4B59
:1014380027681B68B96994F84020012A3FF4EEAC8C
:10144800012284F8402094F84120012A78D12222F0
:10145800606441F2883B84F841203A690132A26312
:101468003A69C4F83090013262637A6922F04062C6
:1014780042F080627A61B961A26B002A4AD10122E6
:1014880002212046CDF800B0FFF704F908B9236817
:10149800D960012384F84130002384F840300028C3
:1014A8007FF4BCAC46452AD10DF500314FF400322B
:1014B8003AA808F50038E83100F052F800283FF45F
:1014C800D4AEABE43AAB37460393683B049328E7C2
:1014D800012204212046CDF800B00593FFF7DAF881
:1014E80000287FF472AF626A059B127889F8202081
:1014F800626A01326262E26A013AE26257E706F121
:101508002003403609F12009B6F5000F3FF686ACF6
:101518001E466BE7012206212046CDF800B0049351
:10152800FFF7B8F80028B4D197F82010226B049B75
:101538001170226B01322263A26B013AA2639BE70E
:1015480084F840006AE400BFE0FF0100E0FF81008A
:1015580000127A000024F40000380240BC00002089
:1015680010B501390244904201D1002005E003780A
:1015780011F8014FA34201D0181B10BD0130F2E74A
:1015880002440346934200D1704703F8011BF9E770
:1015980053B94AB9002908BF00281CBF4FF0FF31D2
:1015A8004FF0FF3000F06AB9ADF1080C6DE904CED8
:1015B80000F006F8DDF804E0DDE9022304B0704726
:1015C8002DE9F047089D0E4604460F46002B4AD1E8
:1015D80094468C45B2FA82F260D942B1C2F1200336
:1015E800974020FA03F30CFA02FC1F4394404FEA99
:1015F8001C4E1FFA8CF6B7FBFEF1230C0EFB11777D
:1016080043EA074301FB06F098420AD91CEB03039F
:1016180001F1FF3780F01581984240F212810239BA
:1016280063441B1AA4B2B3FBFEF00EFB103344EA6A
:10163800034400FB06F6A6420AD91CEB040400F199
:10164800FF3380F00081A64240F2FD8064440238F6
:1016580040EA0140A41B00211DB1D4400023C5E984
:101668000043BDE8F0878B4205D90DB1C5E90001FB
:1016780000210846F5E7B3FA83F1002946D1B342C1
:1016880002D3824200F2F580841A66EB030201203D
:101698001746002DE5D0C5E90047E2E7002A40F0EB
:1016A8009380A1EB0C034FEA1C471FFA8CFE012123
:1016B800B3FBF7F607FB1630230C43EA00430EFB97
:1016C80006F0984208D91CEB030306F1FF3802D252
:1016D800984200F2D08046461B1AA4B2B3FBF7F03A
:1016E80007FB103344EA03440EFB00FEA64508D965
:1016F8001CEB040400F1FF3302D2A64500F2B680C9
:101708001846A4EB0E0440EA0640A5E7C1F12007FD
:101718008B4022FA07FC4CEA030C06FA01FE20FA79
:1017280007F426FA07F344EA0E0400FA01F84FEA30
:101738001C404FEA1449B3FBF0FE1FFA8CF600FB7D
:101748001E3349EA03430EFB06F9994502FA01F2F2
:101758000BD91CEB03030EF1FF3A80F08580994505
:1017680040F28280AEF1020E6344A3EB0909A4B2F1
:10177800B9FBF0F300FB139944EA094403FB06F6AE
:10178800A64208D91CEB040403F1FF3068D2A64234
:1017980066D9023B644443EA0E40A41BA0FB02E660
:1017A800B4427346B14652D34FD05DB1B8EB030291
:1017B80064EB090404FA07F722FA01F31F43CC404B
:1017C800C5E9007400214CE7C2F1200120FA01F3B9
:1017D8000CFA02FC26FA01F1964033434FEA1C4703
:1017E8001FFA8CFEB1FBF7F007FB1016190C41EA43
:1017F800064100FB0EF68E4204FA02F408D91CEBEF
:10180800010100F1FF382DD28E422BD902386144F4
:10181800891B9BB2B1FBF7F607FB161143EA01439C
:1018280006FB0EF1994208D91CEB030306F1FF38B9
:1018380014D2994212D9023E63445B1A46EA004127
:1018480036E73946EDE6184602E7F045ADD2BEEB7D
:10185800020366EB0C060138B146A6E74646ECE7FC
:10186800034698E74046D3E7D6467EE76444023805
:1018780047E708460DE7023E63442DE7704700BF7F
:101888000000000000000000010203040607080928
:101898001000000000000000017A5200027C0E01D6
:1018A8001B0C0D00100000001800000000000000D4
:1018B8001000000000000000100000000000000000
:1018C800017A5200027C0E011B0C0D00380000004A
:1018D80018000000000000009E00000000510E10DB
:1018E80084048503860287015BC7C6C5C40E004C05
:1018F8000A420B0A420B0E108404850386028701F4
:0819080051C7C6C5C40E000062
:08191000B8FCFF7F010000009C
:08191800100000000024F4009F
:0400000508000245A8
:00000001FF
