:020000040800F2
:1000000000000820F9010008FD010008FF010008B8
:100010001302000815020008290200080000000071
:100020000000000000000000000000003D02000889
:100030003F0200080000000041020008010800081B
:10004000430200084302000843020008430200087C
:10005000430200084302000843020008430200086C
:10006000430200084302000843020008430200085C
:10007000430200084302000843020008430200084C
:10008000430200084302000843020008430200083C
:10009000430200084302000843020008430200082C
:1000A000430200084302000843020008430200081C
:1000B000430200084302000843020008430200080C
:1000C00043020008430200084302000843020008FC
:1000D00043020008430200084302000843020008EC
:1000E00043020008430200084302000843020008DC
:1000F00043020008430200084302000843020008CC
:1001000043020008430200084302000843020008BB
:1001100043020008430200084302000843020008AB
:10012000430200084302000843020008430200089B
:10013000430200084302000843020008430200088B
:10014000430200084302000843020008430200087B
:100150004302000843020008DD09000843020008CA
:10016000430200084302000843020008430200085B
:100170004302000843020008430200080000000098
:10018000430200084302000843020008430200083B
:10019000430200084302000843020008430200082B
:1001A000430200084302000843020008430200081B
:1001B0003108000843020008430200084302000817
:1001C0004302000843020008000000004302000848
:1001D00043020008430200084302000843020008EB
:1001E00043020008430200084302000843020008DB
:1001F000430200084302000859480047FEE71EF08A
:10020000040F0CBFEFF30880EFF309807146554AE5
:100210001047FEE71EF0040F0CBFEFF30880EFF36A
:1002200009807146504A10471EF0040F0CBFEFF3CF
:100230000880EFF3098071464C4A1047FEE7FEE75D
:10024000FEE7FEE708B54FF00062344B34489A6091
:10025000344A9A60344B83423CD3344A00203449B8
:100260008A4244D3334B9A6802F00C02042A47D0E6
:10027000082A47D159685A6849025B6802F03F0270
:1002800048BF2D49C3F3881358BF2C49B1FBF2F284
:100290005343284A5268C2F3014201325200B3FB71
:1002A000F2F3244A002626499268264DC2F303122F
:1002B000254C8A5C641BD340A410244A1360B442CA
:1002C00022DC234D0026234C641BA410B44220DC06
:1002D00001F03EF8D3E900120C33891A53F8044CAC
:1002E0009442B8D95558043242F8045CF8E752F801
:1002F000083B52F8044C9C42B2D943F8040BFAE78D
:100300000D4BCEE70D4BCCE755F8043B0136984733
:10031000D5E755F8043B01369847D7E700ED00E0F4
:100320008803000800000008700300088803000824
:10033000980300080038024000127A000024F400FC
:100340003C1F0008980300089803000804000020E0
:100350009803000898030008FEE7FEE7FEE70000A8
:1003600045020008590300085B0300085D0300080C
:10037000CC1F00080000002008000020CC1F00084F
:1003800000000010000000100800002020010020E4
:08039000000000100000001045
:10039800034A0130116813685B1A8342FBD3704724
:1003A8001C01002070B590F83440866D012C34D0C3
:1003B800012480F8344090F83540012C4FF00004B7
:1003C80029D1022580F8355044650468256825F44C
:1003D8008025256063608368402B19D1A260E160A5
:1003E800C26D3F239340B360236843F01603236034
:1003F800636943F080036361036C1BB1236843F0B6
:10040800080323602368002043F00103236070BDC4
:10041800A160E260E4E780F834400220F7E70000DA
:100428002DE9F74F0023DFF8A8814FF00F09694A3B
:1004380001240E689C4004EA0605B44340F0AF80EE
:100448004C684FEA430C032624F0100E06FA0CF60B
:100458000EF1FF37F643012F10D8876807EA060A1E
:10046800CF6807FA0CF747EA0A078760476827EA60
:10047800050A27099F4047EA0A074760C768BEF18F
:10048800020F07EA060A8F6807FA0CF747EA0A0715
:10049800C76014D14FEAD30E03F0070A00EB8E0EA3
:1004A8004FEA8A0ADEF8207009FA0AFB27EA0B0BE2
:1004B8000F6907FA0AF747EA0B07CEF820700768B2
:1004C800374004F0030606FA0CF63E430660E600E1
:1004D80065D5D8F8446023F0030703F0030C46F40D
:1004E800804607F180474FEA8C0CC8F8446007F54E
:1004F8009C37D8F8446009FA0CFE06F48046019649
:10050800019EBE6826EA0E0E334EB0424ED006F566
:100518008066B0424CD006F58066B0424AD006F5F7
:100528008066B04248D006F58066B04246D006F5EF
:100538008066B04244D006F58066B04242D006F5E7
:100548008066B04240D006F58066B0423ED006F5DF
:100558008066B04214BF0A26092606FA0CF614F47F
:10056800803F46EA0E06BE606FEA050716680CBFB4
:100578003E402E4314F4003F166056680CBF3E40C0
:100588002E4314F4801F566096680CBF3E402E43DD
:10059800A4029660D66854BF3E402E43D66001330D
:1005A800102B7FF445AF03B0BDE8F08F0026D4E7E9
:1005B8000126D2E70226D0E70326CEE70426CCE7B9
:1005C8000526CAE70626C8E70726C6E70826C4E7B9
:1005D80000380240003C0140000002402DE9F04F85
:1005E80000224FF0010A4FF00F084FF0030B464C62
:1005F8000AFA02FC3CEA01030CEA01066CD122F07B
:10060800030502F0030705F18045BF0005F59C3599
:1006180008FA07F9AB6809EA030E3C4B984260D028
:1006280003F5806398425ED003F5806398425CD0FE
:1006380003F5806398425AD003F58063984258D0F6
:1006480003F58063984256D003F58063984254D0EE
:1006580003F58063984252D003F58063984250D0E6
:1006680003F58063984214BF0A230923BB407345EE
:1006780013D1236823EA06032360636823EA060389
:100688006360A36823EA0603A360E36823EA06031A
:10069800E360AB6823EA0903AB6053000568D6083A
:1006A8000BFA03F300EB860625EA0305056002F062
:1006B8000705376AAD0008FA05F527EA0507376226
:1006C800C56825EA0305C560456825EA0C05456047
:1006D800856825EA030383600132102A88D1BDE8C2
:1006E800F08F0023C2E70123C0E70223BEE70323FC
:1006F800BCE70423BAE70523B8E70623B6E70723D0
:10070800B4E70823B2E700BF003C01400000024004
:10071800836B00229A631A68136843F400331360EA
:100728007047836B0022DA621A68136843F4003357
:100738001360704770477047436D826B022B3FD040
:1007480000219163D162536C43F00403536413682E
:10075800186820F00400186092F8410080072FD52F
:1007680082F84010082182F84110196821F4F81124
:1007780019601968490719D5196821F00401196029
:10078800D36B1049196593F83510022905D08021DB
:100798005965012382F841307047052283F83520D6
:1007A8001A68136823F00103136070470222DA60A5
:1007B8001A6842F400321A601A6842F002021A609B
:1007C800704700BFD1070008836B00229A63DA6282
:1007D80093F84120082A0BD11B680222DA601A68B4
:1007E80042F400321A601A6842F002021A60704736
:1007F800012283F841207047094A38B5136800245C
:10080800084D013313602A88A3B29A4200D838BD34
:10081800A3B2013405EB83035B689847F3E700BF95
:100828001C010020D8000020684B1A6890681168E5
:1008380010F0040F38D011F4802F35D093F8411000
:10084800122915D19168490700D47047D96A51B166
:10085800596A097882F82010596A01315962D96AAF
:100868000139D962EEE7136823F4802313607047D7
:1008780093F84110222940F0A88019688868400739
:1008880000D47047986B50B192F82000196B08702B
:10089800196B01311963996B01399963EDE70B689D
:1008A80023F480230B60704710F0020F48D011F436
:1008B800003F45D00221D160116821F4E021116088
:1008C80093F84110122910D11168480709D5116809
:1008D80021F004011160DA6B11680A6822F0010244
:1008E8000A60012283F84120704793F841102229B9
:1008F80015D111684907EAD41968896811F47C5F31
:10090800EFD0996B0029ECD092F82000196B087091
:10091800196B01311963996B01399963ECE793F805
:1009280041100229DDD093F8411008294DD15169B1
:1009380021F040615161012283F841205B6C7047CE
:1009480010F0080F0CD011F4002F09D00821D16045
:100958001168490239D5116821F410211160C0E7E6
:1009680010F0010F2BD011F4803F28D00121D16065
:10097800106820F470201060586C40F00200586431
:100988001068400710D5106820F004001060DA6B7A
:100998000F48106592F83500022808D0802050656D
:1009A8005A6C42F004025A6483F8411070470523D8
:1009B80082F835301268136823F0010356E7C00641
:1009C80003D5CB0201D51023D36070478C000020DB
:1009D800D10700085D4BF7B5DC6B002308220193B3
:1009E8005B4BA56D1F68E36D2E689A4016420CD0CC
:1009F80021680868400708D5086820F004000860E6
:100A0800AA60626D42F00102626501229A401642B4
:100A180008D021684969090604D5AA60626D42F0C8
:100A28000202626504229A40164208D021680968C9
:100A3800880704D5AA60626D42F00402626510223C
:100A48009A40164210D02368196809070CD5AA6085
:100A58001A68500337D51B68190301D4236C00E0CA
:100A6800A36C0BB120469847E16D20228A401642BC
:100A78003AD023681868C60636D5AA6094F8352097
:100A8800052A1A6827D122F016021A605A6922F03C
:100A980080025A61226C0AB9A26C1AB11A6822F053
:100AA80008021A603F238B40AB60002384F834307F
:100AB800012384F83530236D002B45D0204603B040
:100AC800BDE8F04018471A68D205C7D41A6822F062
:100AD80008021A60C2E7500327D51B68190331D4EE
:100AE800636C0BB120469847636D6BB3636DDA078F
:100AF80019D54FF416532268B7FBF3F7052384F88A
:100B08003530136823F001031360019B01339F42C2
:100B1800019302D31368DB07F7D4002384F8343039
:100B2800012384F83530E36CC6E71A6812F4807242
:100B380008D1196821F010011960012384F83420C4
:100B480084F83530E36BCCE703B0F0BD8C000020AF
:100B5800040000202DE9F0476D4E0546376890F8EF
:100B68004030012B00F0D280012380F8403090F80B
:100B78004130012BD8B24FF0000340F0C5806B64C0
:100B880002232C6885F84130AB6CA26892062AD4FF
:100B9800486A00283BD10323E3608B69D1E907C683
:100BA800002B63D04A6940EA030AD1F834E0920482
:100BB8000B68D1E90B98002E37D08F684AEA0606F1
:100BC800E7610F69BCF1000F25D043EA0C0343EA43
:100BD800090343EA080343EA0E033B43CF683B4358
:100BE8001343334331E05A1CCFD03268D21B9342AF
:100BF80001D3002BC9D1042385F841306B6C43F035
:100C080001036B64002385F84030BDE8F0878B6AE8
:100C1800013B2361C1E743EA090343EA080343EAC6
:100C28000E033B43134333431CE0BCF1000F10D0C9
:100C380043EA0C03CE6843EA090343EA080343EA9C
:100C48000E03334343EA0A03134363614B68A3610A
:100C580009E043EA090343EA080343EA0E0343EAC7
:100C68000A0313436361002834D046E006B38B6857
:100C780006434F69E361BF040B69D1F834E0D1E959
:100C88000B98BCF1000F0BD043EA0C03CA6843EA87
:100C9800090343EA080343EA0E0313433B43A0E76F
:100CA80043EA090343EA080343EA0E033B43BAE76E
:100CB800BCF1000F0DD0CA6A40EA0C0313430A6B5B
:100CC80013434A6B1343CA6813434A6943EA82438E
:100CD800BBE740B9002385F84030236843F440332C
:100CE8002360002091E7CB6A0A6B034313434A6BE6
:100CF80013434A6943EA82436361012385F841301B
:100D0800002385F84030ECE785F8403002207CE786
:100D18001C0100207FB50C4B80240C4801A91A6BDC
:100D280042F002021A6301221B6B019403F00203D2
:100D38000093009B0023CDE9022302230493FFF7CD
:100D48006FFB8461FEE700BF0038024000040240E8
:100D58003E4B984203F5405300B58BB00BD11A6B4C
:100D680042F004021A631B6B03F004030193019B16
:100D78000BB05DF804FB364A904209D11A6B42F079
:100D880008021A631B6B03F008030293029BEFE748
:100D9800304A904209D11A6B42F010021A631B6B59
:100DA80003F010030393039BE2E72B4A904209D117
:100DB8001A6B42F020021A631B6B03F020030493A2
:100DC800049BD5E7254A904209D11A6B42F04002AC
:100DD8001A631B6B03F040030593059BC8E7204A81
:100DE800904209D11A6B42F080021A631B6B03F020
:100DF80080030693069BBBE71A4A904209D11A6BF7
:100E080042F480721A631B6B03F480730793079B89
:100E1800AEE7154A904209D11A6B42F400721A6380
:100E28001B6B03F400730893089BA1E70F4A9042D9
:100E380009D11A6B42F480621A631B6B03F4806356
:100E48000993099B94E7FFF765FF00BF000802407C
:100E5800000C02400010024000140240001802403A
:100E6800001C0240002002400024024000280240EA
:100E7800104A82B090420BD10F4B1A6B42F001021C
:100E88001A631B6B03F001030093009B02B07047C9
:100E98000A4A90420AD1084B1A6B42F002021A63BE
:100EA8001B6B03F002030193019BEFE702B0FFF70E
:100EB8004FBF00BF0000024000380240000402405B
:100EC800084A18211068C3B26FF30900103BB3FB3E
:100ED800F1F110B55F2B044C88BF0430615C90655C
:100EE800D16510BD08000020341F0008124BDB68D4
:100EF800C3F3022310B5C3F107041A1D042C28BF3D
:100F08000424062A88BFDA1E4FF0FF3398BF002258
:100F1800A34021EA03039340421C4FEA0313DBB2C8
:100F280006D000F1604000F5614080F8003310BD44
:100F3800014A82F82330FAE700ED00E0884B4FF4CD
:100F480080722DE9F04F1C6810251623854E8BB052
:100F58004FF00108C4E903530023C4E90523C4E999
:100F680007333368019394F84130C4E9018803F0EA
:100F7800FF05002B40F0B5807B4B4FF0400A84F80A
:100F880040500227996B4FF4806978484FF0090B5D
:100F980041F002019963996B01F0020104910499EF
:100FA800196B41F480011963196B01F480010391F5
:100FB8000399996941F002019961996921F0020147
:100FC8009961FFF755FF6A48FFF7C2FE0A23674891
:100FD80005A9CDF81C804FF00308CDE905A7CDE998
:100FE8000883FFF71DFA00F58050CDF81490079597
:100FF800CDF824B0FFF714FA4FF480720A23059253
:101008000993FFF70DFA4FF400730593FFF708FAF9
:101018008023CDF824B00593FFF702FACDF814A089
:10102800FFF7FEF9DFF84CA14FF0C063524A53486E
:1010380031688AF834508AF83570C4F83CA0CAF888
:101048003840CAE90003CAE90359CAE90555CAE99B
:101058000755CAE90958CAE90B55D2F8B83023F040
:101068000103C2F8B830D2F8B85015F001051DD107
:10107800D2F8B810424B0B40DAF808100B4343F093
:10108800C06343F48063C2F8B830D2F8CC3023F0A0
:101098000703C2F8CC30FFF713FFDAF85C203F23D0
:1010A800934083600123CAF8545007E033685B1A01
:1010B800052BD8D92023CAF8543003230F215C20EC
:1010C8008AF83530FFF712FF2E4D4FF0805300217C
:1010D8004620AB60FFF70AFF4023AB6041F288333C
:1010E800A36423681A6822F4F8521A60A26C9968FB
:1010F80011F020011ED11A6822F07F4222F0D0029E
:1011080042F0807242F010021A601F4A586802408A
:1011180042F4B01242F480725A601A6842F0010236
:101128001A600123616484F8413084F840100BB0E0
:10113800BDE8F08F511CDAD031680198091A8A424B
:1011480001D3002AD3D1042384F84130636C43F0DF
:1011580001036364002384F84030FFF7DBFD00BF20
:10116800680000201C0100200038024000040240F2
:10117800001402400800002000640240B8640240E5
:101188003F8010E000E100E0FEF8E0FF70B50646A1
:1011980000286CD00268136823F001031360402212
:1011A800334BC3F88820BFF34F8FBFF36F8F4FF0D7
:1011B8008052C3F88820BFF34F8FBFF36F8F2D4D38
:1011C8002D4B2B6095F83530022B25D02B4B002466
:1011D800D3F8B82022F00102C3F8B8202122C3F8BE
:1011E800B840C3F8BC40C3F8C040C3F8C440C3F813
:1011F800C840C3F8CC20FFF763FEEA6D3F23934055
:1012080083606C6585F8344085F83540C5E90F443E
:10121800C5E91144C5E9134419484021FFF7DEF92F
:101228004FF4806100F58050FFF7D8F94FF48071D2
:10123800FFF7D4F94FF40071FFF7D0F98021FFF7D9
:10124800CDF94021FFF7CAF90E4B9A6942F0020224
:101258009A619A6922F002029A619A6B22F002025C
:101268009A630023736486F8413086F8403070BD75
:1012780000E100E008000020B86402400064024079
:10128800000402400038024008B5104B4FF47A724F
:1012980001461B68B3FBF2F3013BB3F1807F14D224
:1012A8004FF0E022F0200F295361094B83F8230007
:1012B8004FF0000393614FF00703136105D84FF017
:1012C800FF30FFF713FE034B196008BD0400002030
:1012D80000ED00E0000000202DE9F843054608274E
:1012E8000024184EB6F810900120D6F80C8064003F
:1012F8004FEA0943013FE4B2C8F81830FFF748F84D
:10130800338B290672694FF001004FEA450558BF33
:101318001B04EDB29361FFF73BF80120C8F8189061
:10132800FFF736F8F369328C01201B691A4218BF9F
:1013380044F00104FFF72CF817F0FF07D2D120463C
:10134800BDE8F88368000020554B0F2055491A68FE
:1013580042F400722DE980481A60ADF6F40D1A685F
:1013680042F480721A60CA684F4B22F4E062120499
:10137800120C1343CB60FFF787FF4C4A136C43F002
:1013880080531364136C03F080530B930B9B484BEF
:10139800196841F4404119601B6803F440430A93FB
:1013A8000A9B936803F00C03042B424B07D0916807
:1013B80001F00C0108293FD1526855023CD53B4A3F
:1013C80012683A4A916801F00C0108294DD0116859
:1013D80021F0807111601868116889013BD4364981
:1013E8005160116841F080711160304918680A68CD
:1013F800970135D52D4A116C41F080511164126C5A
:1014080002F080520C920C9A294A116841F48031FA
:10141800116018685168CD0350D5116841F4003146
:101428001160234918684A6894034CD41A68121A40
:10143800B2F57A7FF7D946E01C4A116841F4803149
:101448001160186811688C03BBD41968091A6429DB
:10145800F8D9FFF75FFC1968091A0229BCD9F8E71F
:101468001A68121A022AC2D9F3E752685602F0D54E
:1014780002F03F010829ECD147F6C0711140B1F5DF
:10148800C04FE6D112F4403FE3D102F07061B1F1F0
:10149800006FDED102F0E042B2F1005FAAD0D8E7D7
:1014A800003C024000ED00E00003FA05003802406D
:1014B800007000401C010020086040281968091AC3
:1014C800B1F57A7FA6D9CD490A6802F00F02052A3C
:1014D80040F2CC81CA4A916841F4E0519160916828
:1014E80041F460419160916821F0F00191601168C8
:1014F8008901AED5916841F2883421F0030141F0A9
:10150800020191601868916801F00C01082940F007
:10151800BA81BA4A136803F00F03062B00F2B981A7
:10152800B7498B6823F4E05343F4A0538B608B686E
:1015380023F4604343F400438B608B6803F00C038F
:10154800042B00F0CD81082B00F0B081AD48AC4BE6
:10155800AD4A9B68C3F30313D35C20FA03F4AB4B87
:101568001C60AB4B1868FFF78FFE4FF47A73B4FB1F
:10157800F3F00138B0F1807F0AD24FF0E023A54A9A
:10158800F021586182F8231000229A6107221A611B
:101598004FF0E022A04D0027A048136940240126FF
:1015A8004FF0030943F004034FF4807B4FF4007AB3
:1015B800DFF86C8213619B4B1F80FFF759FC2846AC
:1015C800FFF7C6FB95480DF59E61CDF8F044CDF8C0
:1015D800F874CDF8F464CDF8FC94FEF721FF84612B
:1015E8002846CDF8F0B4FEF71BFF4FF08073AB61CF
:1015F800CDF8F0A4FEF714FF4FF00073AB61802321
:10160800CDF8F034FEF70CFF4FF40003AB61CDF8D2
:10161800F044FEF705FF4FF48003AB614FF480639D
:10162800CDF8F034FEF7FCFE4FF080627B4BAA61E8
:101638007D4D7E4A6B604FF48063E8606861E861C5
:1016480064202B82C8F800202C81C5F80080A5F8FA
:1016580018B0A5F820A0FEF79BFE4046FFF796FDC0
:10166800FFF76CFC3946342213A800F0DFFA4FF478
:1016780040732F6812A91893F523384612934FF434
:1016880000531593FFF766FA044600287FF4E1AE8D
:101698003846FFF77BFD6F683846FFF7E9FBEB68D4
:1016A80018460093FFF7E4FBD5F814B05846FFF747
:1016B800DFFBD5F81CA05046FFF7DAFBB5F8088029
:1016C8000DF59E613846CDF8FC94CDF8F844CDF878
:1016D8000045CDF8F084CDF8F464FEF7A1FEB5F826
:1016E8001090009BC7F818801846C1F80090FEF7C4
:1016F80097FE4FEA0943B5F8189083615846C1F838
:101708000090FEF78DFE50464FEA09434FEA08491C
:10171800CBF818302B8C8E60C1E90034FEF780FEC0
:101728003046C7F81890FEF733FE6620FFF7D4FD61
:101738003046C7F81880FEF72BFE3046C7F81890D9
:10174800FEF726FE9920FFF7C7FD3046C7F8188038
:10175800FEF71EFE3046C7F81890FEF719FE9F20C8
:10176800FFF7BAFD2046FFF7B7FD2046FFF7B4FDA7
:101778002046FFF7B1FD2046FFF7AEFD8346204621
:10178800FFF7AAFDC7F8188082463046FEF700FE2C
:10179800BBF10D0F7FF45DAEBAF15D0F7FF459AE6A
:1017A8003046C7F81890FEF7F3FD3520FFF794FD93
:1017B8003046C7F81880FEF7EBFD6420FEF7E8FD19
:1017C800FFF7BCFB0E4B0DA914481A6B42F002023E
:1017D8001A631B6B03F002030993099B02231093FE
:1017E8004FF48043CDE90E640D93FEF719FEA5234F
:1017F8003CA90022FF2005931AE000BF003C0240EC
:10180800003802400024F4003C1F000804000020B7
:101818000000002000ED00E0001402400004024037
:101828008C000020D800002068000020001000A0D4
:10183800059CB2FBF0F3C3EB0323D31A0132234414
:10184800B2F5806F01F8013BF2D100230093009BB1
:101858000DF1F009009C4FF0000B1E334FF01E08ED
:101868009A4603934FF4806301934EE00A6822F08E
:101878000F0242F006020A600A6802F00F02062A06
:101888007FF4E7AD26E61968091AA1427FF63BAE58
:10189800DFE5136823F00F0343F0060313601368B2
:1018A80003F00F03062B7FF4D4AD39E64A684B6882
:1018B800496802F03F0213F48003C1F388111ABF8C
:1018C800AB480023AB48A1FB000100F0B7F9AA4BD5
:1018D8005B68C3F3014301335B00B0FBF3F036E60A
:1018E800A34834E6C344DDF804803CAB5446B8F161
:1018F8001E0F03EB0B0928BF4FF01E0808EB0A0365
:10190800B3F5000F3FF6A5AD9A460021302222A874
:1019180000F08CF94FF44073219420A926933823C2
:101928002C6820934FF44063204627934FF40053CC
:1019380023934FF04073CDE92938FFF70BF90028BE
:101948007FF487AD2668336994F84020012A3FF474
:1019580080AD012284F8402094F84120012A40F00B
:101968005281E76B013360647A690292002A40F081
:10197800D580E36212234946384684F84130032370
:10198800F360E36AC4F82490A362736923F04063A8
:1019980073617A4BFB637A4B3B647A4BFB6400239D
:1019A8003B654023BB603B6804931B68049A23F0A3
:1019B800C00343F04003136006F1200306F1200240
:1019C8000693A36AFEF7EEFC002840F0C48084F872
:1019D8004000336843F480333360336843F00403D2
:1019E8003360019BB3EB080301937FF47BAFDDF811
:1019F80000A04FF4806B0DF59E684FF01E09002182
:101A0800302230A800F012F94FF440732EA9204676
:101A18003493EB23CDF8BCA02E934FF44063359359
:101A28004FF4005331934FF04073CDE93739062313
:101A38003393FFF78FF800287FF40BADB369079352
:101A4800336994F84020012A3FF403AD012284F859
:101A5800402094F84120012A40F0D580029A0133B1
:101A68006064002A40F0AE80A36322234FF0000A8E
:101A7800049A384684F8413003230699F360A36B2F
:101A8800C4F830806363404BC7F850A0FB633F4BFA
:101A9800C7F808A03B643B4BFB64049B1B6823F01E
:101AA800C00313604246636BFEF77CFC002840F0DD
:101AB800A0807369BBEB090B23F0406343F080639C
:101AC8007361079BB36184F84000336843F4803343
:101AD8003360336843F0040333605BD14FF48062B2
:101AE8000DF59E613CA800F091F800287FF4B1AC98
:101AF800009B03F58063B3F5801F00937FF4A7AEC6
:101B0800234A53695B044EBF4FF080434FF4804330
:101B18001F4A9361059B0133DBB269E6029AB2F56D
:101B2800006F0CD1DA0702D4A268D00705D5636C20
:101B380043F008036364002316E05B0819E7029A80
:101B4800B2F5805F7FF416AF9907F0D1A2689207CB
:101B5800EDD19B080DE7636C43F004036364012334
:101B680084F841304FF0000384F8403071E400BF3E
:101B780000127A000024F400003802402B07000805
:101B88003D07000841070008190700083F0700083B
:101B980000040240019BBBF11E0FDDF80CA04B4472
:101BA800D94628BF4FF01E0901930DF59E63019A8F
:101BB80003EB0208039B4B44B3F5000F3FF649AC17
:101BC80003931CE7029AB2F5006F06D1DA07AED488
:101BD800A268D007ABD45B0846E7029AB2F5805FEB
:101BE8007FF443AF9907A2D1A26892079FD19B08BF
:101BF8003AE7636C43F004036364012384F84130DB
:101C080084F840A025E484F8400022E410B50139A6
:101C18000244904201D1002005E0037811F8014FF9
:101C2800A34201D0181B10BD0130F2E7024403465D
:101C3800934200D1704703F8011BF9E753B94AB939
:101C4800002908BF00281CBF4FF0FF314FF0FF30BC
:101C580000F06AB9ADF1080C6DE904CE00F006F8A1
:101C6800DDF804E0DDE9022304B070472DE9F04710
:101C7800089D0E4604460F46002B4AD194468C45D3
:101C8800B2FA82F260D942B1C2F12003974020FA39
:101C980003F30CFA02FC1F4394404FEA1C4E1FFA50
:101CA8008CF6B7FBFEF1230C0EFB117743EA0743D2
:101CB80001FB06F098420AD91CEB030301F1FF3738
:101CC80080F01581984240F21281023963441B1A50
:101CD800A4B2B3FBFEF00EFB103344EA034400FB4E
:101CE80006F6A6420AD91CEB040400F1FF3380F083
:101CF8000081A64240F2FD806444023840EA014077
:101D0800A41B00211DB1D4400023C5E90043BDE850
:101D1800F0878B4205D90DB1C5E9000100210846BD
:101D2800F5E7B3FA83F1002946D1B34202D38242E0
:101D380000F2F580841A66EB030201201746002D95
:101D4800E5D0C5E90047E2E7002A40F09380A1EB1F
:101D58000C034FEA1C471FFA8CFE0121B3FBF7F670
:101D680007FB1630230C43EA00430EFB06F09842AB
:101D780008D91CEB030306F1FF3802D2984200F29F
:101D8800D08046461B1AA4B2B3FBF7F007FB10330A
:101D980044EA03440EFB00FEA64508D91CEB0404E4
:101DA80000F1FF3302D2A64500F2B6801846A4EB34
:101DB8000E0440EA0640A5E7C1F120078B4022FA4D
:101DC80007FC4CEA030C06FA01FE20FA07F426FA8F
:101DD80007F344EA0E0400FA01F84FEA1C404FEA00
:101DE8001449B3FBF0FE1FFA8CF600FB1E3349EAD8
:101DF80003430EFB06F9994502FA01F20BD91CEBD5
:101E080003030EF1FF3A80F08580994540F2828005
:101E1800AEF1020E6344A3EB0909A4B2B9FBF0F3D7
:101E280000FB139944EA094403FB06F6A64208D9C5
:101E38001CEB040403F1FF3068D2A64266D9023BCA
:101E4800644443EA0E40A41BA0FB02E6B442734676
:101E5800B14652D34FD05DB1B8EB030264EB09042D
:101E680004FA07F722FA01F31F43CC40C5E90074CE
:101E780000214CE7C2F1200120FA01F30CFA02FC20
:101E880026FA01F1964033434FEA1C471FFA8CFEAD
:101E9800B1FBF7F007FB1016190C41EA064100FBED
:101EA8000EF68E4204FA02F408D91CEB010100F187
:101EB800FF382DD28E422BD902386144891B9BB240
:101EC800B1FBF7F607FB161143EA014306FB0EF1D7
:101ED800994208D91CEB030306F1FF3814D2994242
:101EE80012D9023E63445B1A46EA004136E7394696
:101EF800EDE6184602E7F045ADD2BEEB020366EB0D
:101F08000C060138B146A6E74646ECE7034698E7D3
:101F18004046D3E7D6467EE76444023847E708469A
:101F28000DE7023E63442DE7704700BF0006101618
:101F38000006101600000000000000000102030463
:101F4800060708091000000000000000017A52008E
:101F5800027C0E011B0C0D00100000001800000090
:101F68000000000010000000000000001000000049
:101F780000000000017A5200027C0E011B0C0D00CB
:101F88003800000018000000000000009E0000005B
:101F980000510E1084048503860287015BC7C6C5FD
:101FA800C40E004C0A420B0A420B0E10840485032F
:0C1FB8008602870151C7C6C5C40E000098
:081FC400B0FCFF7F01000000EA
:081FCC00100000000024F400E5
:0400000508000245A8
:00000001FF
