:020000040800F2
:1000000000000820F9010008FF01000801020008B3
:1000100017020008190200082F0200080000000063
:100020000000000000000000000000004502000881
:100030004702000800000000490200086D070008A0
:100040004B0200084B0200084B0200084B0200085C
:100050004B0200084B0200084B0200084B0200084C
:100060004B0200084B0200084B0200084B0200083C
:100070004B0200084B0200084B0200084B0200082C
:100080004B0200084B0200084B0200084B0200081C
:100090004B0200084B0200084B0200084B0200080C
:1000A0004B0200084B0200084B0200084B020008FC
:1000B0004B0200084B0200084B0200084B020008EC
:1000C0004B0200084B0200084B0200084B020008DC
:1000D0004B0200084B0200084B0200084B020008CC
:1000E0004B0200084B0200084B0200084B020008BC
:1000F0004B0200084B0200084B0200084B020008AC
:100100004B0200084B0200084B0200084B0200089B
:100110004B0200084B0200084B0200084B0200088B
:100120004B0200084B0200084B0200084B0200087B
:100130004B0200084B0200084B0200084B0200086B
:100140004B0200084B0200084B0200084B0200085B
:100150004B0200084B0200084B0200084B0200084B
:100160004B0200084B0200084B0200084B0200083B
:100170004B0200084B0200084B0200080000000080
:100180004B0200084B0200084B0200084B0200081B
:100190004B0200084B0200084B0200084B0200080B
:1001A0004B0200084B0200084B0200084B020008FB
:1001B0004B0200084B0200084B0200084B020008EB
:1001C0004B0200084B020008000000004B02000830
:1001D0004B0200084B0200084B0200084B020008CB
:1001E0004B0200084B0200084B0200084B020008BB
:1001F0004B0200084B020008DFF838050047FEE715
:100200001EF0040F0CBFEFF30880EFF30980714676
:10021000DFF824251047FEE71EF0040F0CBFEFF3B4
:100220000880EFF309807146DFF8102510471EF0B3
:10023000040F0CBFEFF30880EFF309807146DFF87D
:1002400000251047FEE7FEE7FEE7FEE78FB5764B99
:100250004FF0006275489A60754A9A60754B834208
:10026000C0F09480744A002074498A42C0F09C8097
:10027000BFF34F8FBFF36F8F6B4B0021C3F850124A
:10028000BFF34F8FBFF36F8F5A6942F400325A6148
:10029000BFF34F8FBFF36F8FC3F88410BFF34F8F3F
:1002A000D3F8802043F6E074C2F3C900C2F34E32A3
:1002B000520102EA0406014646EA81750139C3F893
:1002C0006052F9D2203A12F1200FF2D1BFF34F8FD2
:1002D0005A6942F480325A61BFF34F8FBFF36F8F78
:1002E000574A0F20116841F400711160116841F400
:1002F00080711160D968534A21F4E0610904090C46
:100300000A43DA6000F042FA4F4A136C43F080531C
:100310001364136C03F080530293029B4B4B1968D8
:1003200041F4404119601B6803F440430193019B71
:10033000936803F00C03042B454B07D0916801F040
:100340000C0108293AD15268500237D53E4A12684A
:100350003D4A916801F00C01082963D0116821F031
:1003600080711160186811688F0156D43949516045
:10037000116841F080711160334918680A6896016C
:1003800029D41A68121A022AF8D924E0D3E90012F3
:100390000C33891A53F8044C94427FF660AF5558D9
:1003A000043242F8045CF7E752F8083B52F8044C78
:1003B0009C427FF65AAF43F8040BF9E7224A1168D2
:1003C00041F480311160186811688903C0D419683C
:1003D000091A6429F8D91C4A116C41F08051116442
:1003E000126C02F080520392039A184A116841F489
:1003F0008031116018685168CD032DD5116841F422
:1004000000311160114918684A68940329D41A68A8
:10041000121AB2F57A7FF7D923E01968091A02296E
:10042000A1D9D8E75268D6E700ED00E05C070008E4
:1004300000000008440700085C0700086C0700087B
:10044000003C02400003FA05003802400070004002
:1004500008000020086040281968091AB1F57A7F61
:10046000C9D9A4490A6802F00F02052A40F2C180E6
:10047000A14A916841F4E0519160916841F4604172
:100480009160916821F0F00191601168880100F19C
:10049000BD809A4C4FF47A722368B3FBF2F3013BB0
:1004A000B3F1807F0AD24FF0E022F0215361944BE8
:1004B00083F8231000239361072313614FF0E02298
:1004C000136943F0040313618B4B9A6802F00C022A
:1004D000042A00F00081082A40F0FF8059685A6819
:1004E00049025B6802F03F0248BF8649C3F38813A4
:1004F00058BF8549B1FBF2F253437F4A5268C2F3B9
:10050000014201325200B3FBF2F37B4A00277F49DC
:1005100092687F4EC2F303127E4D8A5CAD1BD340BE
:10052000AD102360BD4200F3DA807B4E00277B4D87
:10053000AD1BAD10BD4200F3D78023684FF47A7233
:10054000B3FBF2F3013BB3F1807F0AD24FF0E0221C
:10055000F02153616A4B83F8231000239361072332
:100560001361654A002101250326136B022743F01E
:10057000020313636A4B05FA01F232F080021AD1CA
:100580004A00986806FA02F420EA040C07FA02F01E
:1005900005FA02F240EA0C009860586820F08000EA
:1005A0005860D86820EA04001043D860186820EA30
:1005B000040002431A6001311029DCD158494FF47C
:1005C00000000022802440F2EE26564BFA25886176
:1005D000002A8C6114BF37464FF47A771F601F687A
:1005E000002FFCD188611D601F68002FFCD10132F3
:1005F000EEE70A6822F00F0242F006020A600A687B
:1006000002F00F02062A3FF433AF42E7916841F24D
:10061000883421F0030141F002019160186891686B
:1006200001F00C01082928D1324A136803F00F03A6
:10063000062B27D830498B6823F4E05343F4A053AA
:100640008B608B6823F4604343F400438B608B68BA
:1006500003F00C03042B3CD0082B20D02A48264B57
:100660002A4A9B68C3F30313D35CD840234B18601A
:100670002D4B186800F08AF80BE71968091AA14297
:10068000CDD906E7136823F00F0343F00603136088
:10069000136803F00F03062B7FF4FBAECAE74A682A
:1006A0004B68496802F03F0213F48003C1F38811DC
:1006B0001ABF144800231448A1FB000100F09EF863
:1006C0000D4B5B68C3F3014301335B00B0FBF3F0F8
:1006D000C5E70C48C3E70B4B17E70B4B15E756F87C
:1006E000043B013798471DE756F8043B013798470C
:1006F00020E700BF003C0240003802400400002018
:1007000000ED00E000127A000024F400EC0A00087A
:100710006C0700086C0700086C0700086C070008ED
:10072000000402400C00002000000020FEE7FEE76D
:10073000FEE700004D0200082D0700082F07000803
:040740003107000875
:10074400040B00080000002008000020040B00082F
:10075400000000100000001008000020100000201D
:0807640000000010000000106D
:10076C00054A136801331360044B1A6812B11A68F6
:10077C00013A1A60704700BF080000200C000020EE
:10078C00184B4FF47A721B68B3FBF2F3013BB3F1D5
:10079C00807F10B525D24FF0E021F02207240F28DE
:1007AC004B61114B83F823204FF000028A610C61DE
:1007BC0017D8DB68C3F30223E11A1C1D042928BFD8
:1007CC000421062C88BFDA1E4FF0FF338B4020EA41
:1007DC0003039340044A1B01DBB282F82330034B22
:1007EC00186010BD0400002000ED00E000000020A7
:1007FC0053B94AB9002908BF00281CBF4FF0FF317C
:10080C004FF0FF3000F06AB9ADF1080C6DE904CE81
:10081C0000F006F8DDF804E0DDE9022304B07047CF
:10082C002DE9F047089D0E4604460F46002B4AD191
:10083C0094468C45B2FA82F260D942B1C2F12003DF
:10084C00974020FA03F30CFA02FC1F4394404FEA42
:10085C001C4E1FFA8CF6B7FBFEF1230C0EFB117726
:10086C0043EA074301FB06F098420AD91CEB030349
:10087C0001F1FF3780F01581984240F21281023964
:10088C0063441B1AA4B2B3FBFEF00EFB103344EA14
:10089C00034400FB06F6A6420AD91CEB040400F143
:1008AC00FF3380F00081A64240F2FD8064440238A0
:1008BC0040EA0140A41B00211DB1D4400023C5E92E
:1008CC000043BDE8F0878B4205D90DB1C5E90001A5
:1008DC0000210846F5E7B3FA83F1002946D1B3426B
:1008EC0002D3824200F2F580841A66EB03020120E7
:1008FC001746002DE5D0C5E90047E2E7002A40F095
:10090C009380A1EB0C034FEA1C471FFA8CFE0121CC
:10091C00B3FBF7F607FB1630230C43EA00430EFB40
:10092C0006F0984208D91CEB030306F1FF3802D2FB
:10093C00984200F2D08046461B1AA4B2B3FBF7F0E3
:10094C0007FB103344EA03440EFB00FEA64508D90E
:10095C001CEB040400F1FF3302D2A64500F2B68072
:10096C001846A4EB0E0440EA0640A5E7C1F12007A7
:10097C008B4022FA07FC4CEA030C06FA01FE20FA23
:10098C0007F426FA07F344EA0E0400FA01F84FEADA
:10099C001C404FEA1449B3FBF0FE1FFA8CF600FB27
:1009AC001E3349EA03430EFB06F9994502FA01F29C
:1009BC000BD91CEB03030EF1FF3A80F085809945AF
:1009CC0040F28280AEF1020E6344A3EB0909A4B29B
:1009DC00B9FBF0F300FB139944EA094403FB06F658
:1009EC00A64208D91CEB040403F1FF3068D2A642DE
:1009FC0066D9023B644443EA0E40A41BA0FB02E60A
:100A0C00B4427346B14652D34FD05DB1B8EB03023A
:100A1C0064EB090404FA07F722FA01F31F43CC40F4
:100A2C00C5E9007400214CE7C2F1200120FA01F362
:100A3C000CFA02FC26FA01F1964033434FEA1C47AC
:100A4C001FFA8CFEB1FBF7F007FB1016190C41EAEC
:100A5C00064100FB0EF68E4204FA02F408D91CEB98
:100A6C00010100F1FF382DD28E422BD9023861449E
:100A7C00891B9BB2B1FBF7F607FB161143EA014346
:100A8C0006FB0EF1994208D91CEB030306F1FF3863
:100A9C0014D2994212D9023E63445B1A46EA0041D1
:100AAC0036E73946EDE6184602E7F045ADD2BEEB27
:100ABC00020366EB0C060138B146A6E74646ECE7A6
:100ACC00034698E74046D3E7D6467EE764440238AF
:100ADC0047E708460DE7023E63442DE7704700BF29
:100AEC0000000000000000000102030406070809D2
:080AFC0030FDFF7F0100000046
:080B0400100000000024F400C1
:040000050800024DA0
:00000001FF
